:100000000080012041D3000885CC00089DCC000869
:1000100097CC000891CC000887CC000800000000B5
:10002000000000000000000000000000A9CC000853
:10003000A3CC000800000000ADCC00084DCD0008A6
:1000400091D3000891D3000891D3000891D3000800
:1000500091D3000891D3000861CD000875CD000848
:1000600089CD00089DCD000891D3000891D30008E8
:1000700091D3000891D3000891D3000891D30008D0
:1000800091D3000891D3000891D30008000000002C
:10009000000000000000000000000000B1CD0008DA
:1000A00091D3000891D3000891D3000891D30008A0
:1000B000BDCC0008B1CC000891D3000891D3000852
:1000C00091D3000891D3000891D3000891D3000880
:1000D00091D30008F5CC000801CD00080000000015
:1000E00091D3000891D3000891D3000800000000CC
:1000F00000000000000000000000000091D3000894
:100100000000000091D30008C9CC000891D300087A
:1001100000000000000000000000000000000000DF
:1001200091D3000891D3000891D3000891D300081F
:1001300091D3000800000000000000000000000053
:1001400000000000000000000000000091D3000843
:1001500091D3000891D3000891D3000891D30008EF
:1001600091D3000891D300080000000000000000B7
:10017000000000000000000000000000000000007F
:100180000000000091D30008000000000000000003
:1001900091D30008000000000000000000000000F3
:1001A00010B5054C237833B9044B13B10448AFF3B1
:1001B00000800123237010BD1804002000000000FF
:1001C00028350108084B10B51BB108490848AFF3A2
:1001D00000800848036803B910BD074B002BFBD013
:1001E000BDE81040184700BF000000001C040020BC
:1001F00028350108180400200000000081F00041AB
:1002000002E000BF83F0004330B54FEA41044FEAFB
:10021000430594EA050F08BF90EA020F1FBF54EA96
:10022000000C55EA020C7FEA645C7FEA655C00F032
:10023000E2804FEA5454D4EB5555B8BF6D420CDD03
:100240002C4480EA020281EA030382EA000083EA86
:10025000010180EA020281EA0303362D88BF30BD26
:1002600011F0004F4FEA01314FF4801C4CEA11317C
:1002700002D0404261EB410113F0004F4FEA0333DB
:100280004CEA133302D0524263EB430394EA050F66
:1002900000F0A780A4F10104D5F1200E0DDB02FAD5
:1002A0000EFC22FA05F2801841F1000103FA0EF269
:1002B000801843FA05F359410EE0A5F120050EF12F
:1002C000200E012A03FA0EFC28BF4CF0020C43FA60
:1002D00005F3C01851EBE37101F0004507D54FF06D
:1002E000000EDCF1000C7EEB00006EEB0101B1F5BD
:1002F000801F1BD3B1F5001F0CD349085FEA300003
:100300004FEA3C0C04F101044FEA445212F5800F0D
:1003100080F09A80BCF1004F08BF5FEA500C50F1AA
:10032000000041EB045141EA050130BD5FEA4C0C8D
:10033000404141EB010111F4801FA4F10104E9D116
:1003400091F0000F04BF01460020B1FA81F308BF0D
:100350002033A3F10B03B3F120020CDA0C3208DDD9
:1003600002F1140CC2F10C0201FA0CF021FA02F1B4
:100370000CE002F11402D8BFC2F1200C01FA02F124
:1003800020FA0CFCDCBF41EA0C019040E41AA2BF49
:1003900001EB0451294330BD6FEA04041F3C1CDA11
:1003A0000C340EDC04F11404C4F1200220FA04F031
:1003B00001FA02F340EA030021FA04F345EA0301DB
:1003C00030BDC4F10C04C4F1200220FA02F001FA9D
:1003D00004F340EA0300294630BD21FA04F029461F
:1003E00030BD94F0000F83F4801306BF81F48011B8
:1003F0000134013D4EE77FEA645C18BF7FEA655C2B
:1004000029D094EA050F08BF90EA020F05D054EAFC
:10041000000C04BF1946104630BD91EA030F1EBF01
:100420000021002030BD5FEA545C05D14000494105
:1004300028BF41F0004130BD14F580043CBF01F5F8
:10044000801130BD01F0004545F0FE4141F47001DE
:100450004FF0000030BD7FEA645C1ABF19461046B9
:100460007FEA655C1CBF0B46024650EA013406BFBA
:1004700052EA033591EA030F41F4002130BD00BF79
:1004800090F0000F04BF0021704730B54FF4806436
:1004900004F132044FF000054FF0000150E700BFB7
:1004A00090F0000F04BF0021704730B54FF4806416
:1004B00004F1320410F0004548BF40424FF0000103
:1004C0003EE700BF42004FEAE2014FEA31014FEA46
:1004D00002701FBF12F07F4393F07F4F81F0605195
:1004E000704792F0000F14BF93F07F4F704730B504
:1004F0004FF4607401F0004521F0004120E700BF97
:1005000050EA010208BF704730B54FF000050AE01D
:1005100050EA010208BF704730B511F0004502D51E
:10052000404261EB41014FF4806404F132045FEA20
:10053000915C3FF4DCAE4FF003025FEADC0C18BFC5
:1005400003325FEADC0C18BF033202EBDC02C2F1BB
:10055000200300FA03FC20FA02F001FA03FE40EA4D
:100560000E0021FA02F11444C1E600BF70B54FF04D
:10057000FF0C4CF4E06C1CEA11541DBF1CEA13552F
:1005800094EA0C0F95EA0C0F00F0DEF82C4481EA97
:10059000030621EA4C5123EA4C5350EA013518BFB7
:1005A00052EA033541F4801143F4801338D0A0FBA4
:1005B00002CE4FF00005E1FB02E506F00042E0FB51
:1005C00003E54FF00006E1FB03569CF0000F18BF57
:1005D0004EF0010EA4F1FF04B6F5007F64F54074FF
:1005E00004D25FEA4E0E6D4146EB060642EAC62192
:1005F00041EA55514FEAC52040EA5E504FEACE2EFF
:10060000B4F1FD0C88BFBCF5E06F1ED8BEF1004F01
:1006100008BF5FEA500E50F1000041EB045170BD7D
:1006200006F0004646EA010140EA020081EA0301C1
:10063000B4EB5C04C2BFD4EB0C0541EA045170BDBD
:1006400041F480114FF0000E013C00F3AB8014F137
:10065000360FDEBF002001F0004170BDC4F1000480
:10066000203C35DA0C341BDC04F11404C4F1200501
:1006700000FA05F320FA04F001FA05F240EA02005C
:1006800001F0004221F0004110EBD37021FA04F692
:1006900042EB06015EEA430E08BF20EAD37070BD4C
:1006A000C4F10C04C4F1200500FA04F320FA05F0AB
:1006B00001FA04F240EA020001F0004110EBD370AD
:1006C00041F100015EEA430E08BF20EAD37070BD1D
:1006D000C4F1200500FA05F24EEA020E20FA04F3F6
:1006E00001FA05F243EA020321FA04F001F00041A5
:1006F00021FA04F220EA020000EBD3705EEA430E16
:1007000008BF20EAD37070BD94F0000F0FD101F044
:100710000046400041EB010111F4801F08BF013C7D
:10072000F7D041EA060195F0000F18BF704703F0BB
:100730000046520043EB030313F4801F08BF013D42
:10074000F7D043EA0603704794EA0C0F0CEA1355FE
:1007500018BF95EA0C0F0CD050EA410618BF52EAB8
:100760004306D1D181EA030101F000414FF00000BE
:1007700070BD50EA410606BF1046194652EA4306CC
:1007800019D094EA0C0F02D150EA013613D195EA40
:100790000C0F05D152EA03361CBF104619460AD188
:1007A00081EA030101F0004141F0FE4141F4700192
:1007B0004FF0000070BD41F0FE4141F4780170BD82
:1007C00070B54FF0FF0C4CF4E06C1CEA11541DBFE7
:1007D0001CEA135594EA0C0F95EA0C0F00F0A7F8E9
:1007E000A4EB050481EA030E52EA03354FEA013116
:1007F00000F088804FEA03334FF0805545EA131329
:1008000043EA12634FEA022245EA111545EA1065F0
:100810004FEA00260EF000419D4208BF964244F187
:10082000FD0404F5407402D25B084FEA3202B61AA6
:1008300065EB03055B084FEA32024FF480104FF47A
:10084000002CB6EB020E75EB030E22BFB61A7546EE
:1008500040EA0C005B084FEA3202B6EB020E75EB81
:10086000030E22BFB61A754640EA5C005B084FEAE9
:100870003202B6EB020E75EB030E22BFB61A7546B6
:1008800040EA9C005B084FEA3202B6EB020E75EBC1
:10089000030E22BFB61A754640EADC0055EA060E82
:1008A00018D04FEA051545EA16754FEA06164FEAC5
:1008B000C30343EA52734FEAC2025FEA1C1CC0D171
:1008C00011F4801F0BD141EA00014FF000004FF0FE
:1008D000004CB6E711F4801F04BF01430020B4F1BF
:1008E000FD0C88BFBCF5E06F3FF6AFAEB5EB030C77
:1008F00004BFB6EB020C5FEA500C50F1000041EB74
:10090000045170BD0EF0004E4EEA113114EB5C0440
:10091000C2BFD4EB0C0541EA045170BD41F4801113
:100920004FF0000E013C90E645EA060E8DE60CEA1B
:10093000135594EA0C0F08BF95EA0C0F3FF43BAF38
:1009400094EA0C0F0AD150EA01347FF434AF95EAEF
:100950000C0F7FF425AF104619462CE795EA0C0FD3
:1009600006D152EA03353FF4FDAE1046194622E7A0
:1009700050EA410618BF52EA43067FF4C5AE50EA7A
:1009800041047FF40DAF52EA43057FF4EBAE12E76A
:100990004FF0FF3C06E000BF4FF0010C02E000BF4B
:1009A0004FF0010C4DF804CD4FEA410C7FEA6C5C2E
:1009B0004FEA430C18BF7FEA6C5C1BD001B050EAD1
:1009C000410C0CBF52EA430C91EA030F02BF90EABC
:1009D000020F0020704710F1000F91EA030F58BF7B
:1009E000994208BF90422CBFD8176FEAE37040F0DD
:1009F000010070474FEA410C7FEA6C5C02D150EA7B
:100A0000013C07D14FEA430C7FEA6C5CD6D152EA35
:100A1000033CD3D05DF8040B704700BF84461046FA
:100A200062468C461946634600E000BF01B5FFF7F9
:100A3000B7FF002848BF10F1000F01BD4DF808EDC9
:100A4000FFF7F4FF0CBF012000205DF808FB00BF9A
:100A50004DF808EDFFF7EAFF34BF012000205DF8F4
:100A600008FB00BF4DF808EDFFF7E0FF94BF012041
:100A700000205DF808FB00BF4DF808EDFFF7CEFF42
:100A800094BF012000205DF808FB00BF4DF808ED81
:100A9000FFF7C4FF34BF012000205DF808FB00BF52
:100AA0004A0011D212F5001211D20DD56FF47873ED
:100AB000B3EB62520ED44FEAC12343F0004343EA42
:100AC000505323FA02F070474FF00000704750EA8D
:100AD000013002D14FF0FF3070474FF000007047F7
:100AE000034613F8012B002AFBD1181A013870476E
:100AF00001F0FF01102A2BDB10F0070F08D010F8CF
:100B0000013B013A8B422DD010F0070F42B3F6D1D2
:100B1000F0B441EA012141EA014122F007047FF0EB
:100B200000070023F0E80256083C85EA010586EA42
:100B3000010685FA47F5A3FA87F586FA47F6A5FA7E
:100B400087F68EB9EED1F0BC01F0FF0102F007028A
:100B500032B110F8013B013A83EA010313B1F8D135
:100B60000020704701387047002D06BF3546033816
:100B7000073815F0010F07D1013015F4807F02BF4F
:100B8000013015F4C03F0130F0BC0138704700BFA0
:100B900010B5041F54F8040F18B1002100F08CFAAE
:100BA000F8E710BDF8B50388064615462BB14A2B69
:100BB00015D0002303800320F8BD174807F085FCFB
:100BC00004462CB1A168201D00F048F92468F8E71C
:100BD000114B01221A714A2333800120F8BD882964
:100BE000FBD10D4807F071FC0446002CF3D0231D07
:100BF0009D420ED12146084807F071FC074B6269FF
:100C00001F681A60A2691D460AB1E06990472F600B
:100C1000E1E72468E9E700BF340400204404002031
:100C200010B505480024047107F04CFC2146034828
:100C3000BDE8104000F040BA34040020000000205D
:100C400070B50446049DE3610A4B65611B79A2619E
:100C500043B1094D094B2E682B60201D00F0FEF8B2
:100C60002E6000E0A16021460248BDE8704007F018
:100C700049BC00BF340400204404002000000020D0
:100C800013B5034C24680094FFF7DAFF02B010BDDF
:100C90004404002070B5094B1B7905463BB1084C54
:100CA000084B26682360043000F0E1F826602946EE
:100CB0000248BDE8704007F025BC00BF34040020A6
:100CC000440400200000002070B5094B1B79054644
:100CD0003BB1084C084B26682360043000F0D0F884
:100CE000266029460248BDE8704007F00BBC00BFF3
:100CF00034040020440400200000002010B5084BFC
:100D00001B7904461BB1043000F0D4F801E0C36045
:100D1000036121460248BDE8104007F0E0BB00BF78
:100D2000340400207047704738B50D4B1A681C46D4
:100D30000AB95A6038BD0AF003FB216891E80C003B
:100D40001A44131A8A6842B192E822002944091A07
:100D50008B4228BF0B469268F5E71844606038BDA7
:100D60003C040020014800F0BFB900BF1000002083
:100D70002DE9F8430388054633B1592B0BD00023E6
:100D800003800320BDE8F883234A136059232B8096
:100D90000120BDE8F883872924D08229F6D11E4F8F
:100DA0004FF00008B9463C680026002CEED02046E3
:100DB00000F0D2F998B122468821E06800F052F99B
:100DC00058B9E060A3680EB1B36001E0C9F8003023
:100DD000C4F80880FFF7A8FFE5E7FFF7C3FF264642
:100DE000A468E2E70C490B6800201BB90028CDD0AD
:100DF0000B60CBE7DC68A24202D19B680120F4E7DC
:100E000000B10B6099680029C0D0C868824206BF53
:100E1000896899600B46F5E73C04002010B504464C
:100E2000FFF7A0FFE3680B4A4BB113683BB1A34245
:100E300003D1094A1268DA6007E09B68F6E7064BBF
:100E40001B68E3601368A3601460BDE81040FFF7FF
:100E50006BBF00BF3C0400204404002010B50446D2
:100E600000F068F92046BDE81040FFF7D7BF10B585
:100E7000044600F066F92046BDE81040FFF7CEBFFB
:100E800010B5044600F062F92046BDE81040FFF7B7
:100E9000C5BFC068B0FA80F04009704705C810446B
:100EA00070470000024B1868003018BF01207047DF
:100EB0003C0400200B4A1368834210B5044606D157
:100EC0008368136008E09A68944203D01346002BAD
:100ED000F9D103E0A2689A60FFF726FF0023A36020
:100EE000E36010BD3C04002038B5836804460D461D
:100EF0009BB10A4804600220A07304F10C009847DB
:100F00000238012801D9832D05D121462046BDE8AC
:100F1000384000F00BB80123A37338BD440400200F
:100F2000837BDB0701D5FFF7DFBF70472DE9F04179
:100F30001B4D6E682F68044688463346A34204D092
:100F40000BB11B68FAE7BDE8F08134B3A37BABB10A
:100F50000023A37346B1A64204D02246872130461F
:100F6000FFF7DEFF3668F5E7A3683BB1444505D0DF
:100F70002C603246832104F10C0098476B689C4238
:100F800004D1074B22685A6006E0134623B11A6861
:100F90009442FAD122681A602F60BDE8F08100BF48
:100FA00044040020094A70B50023546813720126D6
:100FB0001D4654B1E37B33B1A673E5730022822151
:100FC0002046FFF791FF2468F3E770BD440400203A
:100FD000024B587A421C5A72704700BF44040020EA
:100FE000054B06498A225A7200229A72DA720A70F6
:100FF0005A601A60704700BF44040020B8420020C5
:10100000F8B5174C237A0BB1FFF7CCFFE57A144AF9
:1010100015B3937A0C2101FB0321013348690F7B3F
:101020000E6903F00703013D9372D57260B95568EC
:1010300095B1237A0BB1FFF7B5FF28463246394602
:10104000FFF76EFF2D68F3E7812F04BF0123837341
:1010500032463946FFF764FF237AE07A1844F8BD38
:101060004404002070B50D4DEB7A082B12D0AC7AF9
:101070001C4404F007040C2606FB045401332261CF
:10108000074A217311786061DBB29942EB7203D297
:10109000137001E0012070BD002070BD44040020E9
:1010A000B842002038B5034C2568FFF739FF2560AA
:1010B00038BD00BF4404002030B40A4C65680A46BD
:1010C0002B4683420CD00BB11B68FAE740B10121DB
:1010D0000560817360608381812130BCFFF7E2BFCE
:1010E00030BC70474404002038B1837B013B012BA6
:1010F0009FBF024A0123C373137270474404002048
:101100000AF0A2BA10B5416004460AF013F9206053
:1011100010BD000010B504460AF00CF994E80C006C
:101120001344C01A024B98428CBF0020012010BD0E
:10113000FEFFFF7F10B5416004460AF001F9206010
:1011400010BD90E80C0013440360704710B50446CE
:101150000AF0F6F8206010BD10B504460AF0F0F869
:101160002368C3F1010303446068834294BF0020F5
:10117000012010BD10B590E818001C440AF0E0F8FA
:10118000201A10BD70B50D46044658B18169A942B8
:1011900008D0054E306802F0F7FC2946306802F0AE
:1011A000EBFCA56170BD00BF2000002038B50D46E6
:1011B00010220021044610F042FB2A7D0732294606
:1011C0002046D21010F015FB20460249BDE83840F9
:1011D00004F096BFEC45002030B50C4685B00546BE
:1011E000B0B159B1037D0A7D9A4207D1D20810F0FF
:1011F000F1FA18B96A7D637D9A4217D0684629468C
:10120000FFF7D4FF684604F069FE08B104F030FF30
:1012100064B121466846FFF7C9FF684604F05EFEE8
:10122000014618B90122684604F0BAFE05B030BD87
:1012300008B504F075FB04F06BFB034B014618681E
:10124000BDE8084002F06EBC200000207F2806DDCB
:101250007F2904DC01F58071081A10280AE0884211
:1012600005DD401A0F28CCBF00200120704705DAA9
:10127000081A7028D4BF0020012070470020704752
:10128000024B0349186802F081BB00BF2000002018
:10129000F1160008024B0146186802F043BC00BF7B
:1012A0002000002040B1036833B11B6A23B19B6862
:1012B00013B11B6903B118474FF6FF707047000068
:1012C000024B0146186802F067BC00BF20000020F6
:1012D00008B5FFF7F5FFBDE8084004F045BB08B5C9
:1012E000FFF7EEFFBDE8084002F0F6B908B5FFF7DA
:1012F000F6FFBDE8084002F0F5B900002DE9F0471F
:101300008946064660B3006A68B3846854B3DFF860
:101310005C80D8F8000002F067FB002705464FF616
:10132000FF7AD5B12B689E4210D1AB8853450DD0C2
:10133000B9F1000F05D13846636929469847074639
:1013400004E02846FFF7D2FF0028F4D12946D8F858
:10135000000002F02DFB0546E3E73846BDE8F087C4
:10136000BDE8F0872046BDE8F08700BF20000020E0
:1013700010B5044690B103688BB11B6A7BB19B68C2
:101380006BB1FFF7B3FF60B123681B6A9B6820460F
:101390009B689847003018BF012010BD10BD18464B
:1013A00010BD012010BD2DE9F041802A86B0054610
:1013B0008846174629D890F8386000F124045EB1B9
:1013C0002346EE4600F13C0C18685968724603C289
:1013D000083363459646F7D110220021204610F0CD
:1013E0002EFAFA1D4146D208204610F002FA402398
:1013F00085F8387085F8393021460EB9304600E05E
:101400006846FFF7E9FE012000E0002006B0BDE8D5
:10141000F08138B50446D0F890000D4620B104F0B4
:101420004FFC0023C4F890304DB10021284604F051
:101430007FFCC4F89000003018BF012038BD0120A7
:1014400038BD000038B50B4C94F89510054671B9BD
:101450004FF4AA72204610F0F2F90123204684F8D6
:10146000945084F8953001F0FDFF204638BD0020EF
:1014700038BD00BFC042002038B5054610460C46B6
:1014800004F074FA60B10146064823460122006860
:1014900002F0C6FA20B1638A05608380637E83719F
:1014A00038BD00BF2000002010B504460846FFF7F5
:1014B000BFFE18B10368A34218BF002010BD10B5CD
:1014C00004460846FFF7B4FE38B1036823B11B6A2F
:1014D000A34218BF002010BD184610BD38B500212A
:1014E0000446FFF70BFF054690B1FFF7FFFE78B902
:1014F00001212046FFF702FF014600B92946204698
:10150000FFF740FE206AC0F8CC5001F0ABFF03E0CB
:1015100029462046FFF736FEA069FFF7C3FEA083E9
:10152000A06938BD2DE9F843C468B0F8A430A28B97
:10153000A7699A4205460E464CD00868FFF7CEFFD1
:10154000316838B18C4224D0AB6820469B699847FB
:1015500004461CE08C421CD105F1100605F19008F0
:1015600004464FF6FF79464511D2737D6BB1B369DE
:101570005BB19B884B4508D034B1AB6820469B6972
:1015800031469847044600E034464036EBE7002CED
:101590004CD0E868A0421DD095F89730012B01D9B6
:1015A00001F0C4FF94F83930E86803F0400303F019
:1015B000FF0113B104F1240103E090F839305B0618
:1015C00002D52430FFF708FE0123A375EB68002243
:1015D0009A75EC60AB682846DB699847A069FFF70D
:1015E00061FEA08317B1238A834200D920824FF67F
:1015F000FF7398420DD0226AB2F8A230CBB1218A93
:10160000B2F8A420B0FBF2F00B4493FBF2F3984243
:101610000FDD0021E868FFF7B5FD95F89730012B45
:1016200004D91FB10021384601F07AFB0020BDE843
:10163000F883A06987421FD0FFF74AFE014628467B
:10164000FFF7E7FE95F89730012B04D91FB1002171
:10165000384601F065FB95F8963013F0800F03F1E2
:10166000010308BF03F07F03284685F8963001F098
:1016700069FE284601F058FE2046BDE8F88338B5DB
:101680000468A3699842054600D00BBB4FF6FF7370
:10169000A383A37DE3B1236AD3F8900028B104F0BB
:1016A0000FFB236A0022C3F89020A3699D420FD14B
:1016B000236A3BB193F89730012B03D900212846C8
:1016C00001F02EFB20460021BDE83840FFF75ABD4F
:1016D00038BD000010B50446FFF7D1FF034B21468B
:1016E0001868BDE8104002F031BA00BF20000020A9
:1016F000FFF7F0BF70B5094D0646286802F074F98F
:10170000044650B12368B34202D12046FFF7E2FFFE
:101710002146286802F04CF9F2E770BD2000002055
:1017200010B5837D0446ABB100238375036A2BB1EA
:1017300093F89730012B01D901F0F8FE94F8393075
:101740005B0604D5002104F12400FFF745FD204687
:10175000FFF7D0FF0023637510BD8369934270B516
:1017600004460E46154612D10021FFF70BFD4FF639
:10177000FF73A383A37DC3B1236AD3F89000A0B104
:1017800004F09EFA236A0022C3F890200DE0837DC6
:101790005BB1036A4BB193F89730012B05D9104622
:1017A000FFF796FD214601F0D0FE2E6070BD0000CF
:1017B000044B93F8950020B1D868837D002B08BFB7
:1017C00000207047C0420020064A92F8953033B19D
:1017D00092F8943083420CBF1046002070471846A0
:1017E000704700BFC042002008B5FFF7EDFFF0B121
:1017F000C268B0F8A430918B994217D1937C13F052
:10180000800F03F1010308BF03F07F03937490F886
:10181000963013F0800F03F1010308BF03F07F033C
:1018200080F8963001F080FD012008BD002008BD41
:1018300038B50146FFF7C8FF054630B90846FFF73F
:1018400001FE054608B9002038BD05F1100405F178
:1018500090039C42F7D2617D61B9402220460FF08F
:10186000EEFF012363754FF6FF73A3832382256286
:10187000204638BD4034ECE7034B1A8C82420CBF43
:1018800018460020704700BF680000202DE9F8438B
:1018900080460F46FFF798FF20B300F1100400F1D7
:1018A0009005F0264FF00009637DBBB11022394648
:1018B00020460FF08FFF40B9A67C16F0800F06F18E
:1018C000010614BFF6B206F07F06236ADA68A24268
:1018D00008BFC3F80C902046FFF722FF4034AC420B
:1018E000E2D100E0F02639464046FFF7A1FF054669
:1018F00010B90020BDE8F883046A86740021012035
:101900000223A875E974297584F89730FFF7B4FFAE
:10191000A0600028EDD02846FFF734FC39462B465E
:1019200007F1100251F8040B43F8040B9142F9D16E
:10193000082384F898300C2384F89930142384F811
:101940009C30E0680A2384F89A301E224FF46073BA
:10195000A4F8A23084F89B2080233C228542A4F87E
:10196000A430A4F8A620AB8309D040B194F89730F6
:10197000012B01D901F0DAFDE36800229A75F0230A
:1019800084F89630A368E5602046DB699847044BED
:1019900020461C6001F0C8FC2846BDE8F88300BF63
:1019A000BC4200202DE9F0474B7D012B80460C46C0
:1019B00000F09280088AFFF75FFF8146002800F060
:1019C0008B80087EFFF734FF0646002800F08480F5
:1019D00042462146056AFFF74FFD074618B985F8CC
:1019E0009500BDE8F087637E837194F851305B0603
:1019F00004D504F13C010020FFF7EEFB0123B37591
:101A0000A37D3375237DF374E37DB374C5F808902B
:101A1000637D85F8973094F854302B7094F85530E6
:101A20006B7094F85630AB7094F85730EB70F0232D
:101A300085F89630238CA5F8A230638CEE60A5F86B
:101A4000A430A27E85F89820E37E85F8993013446F
:101A500085F89C30237F85F89A30637F85F89B302A
:101A6000E38BA5F8A6303246234604F1100153F863
:101A7000040B42F8040B8B42F9D104F13C0306F14C
:101A80002402543453F8041B42F8041BA342F9D136
:101A900039463046FFF776FBAB682846DB69984746
:101AA0003846FFF7FFFB0D4BB0831A68308202B94E
:101AB0001D60284601F038FC41462846FFF7A9FC86
:101AC00095F8973013B1284601F03CFCAB683046DE
:101AD0001B68BDE8F0471847BDE8F087BC4200200E
:101AE0002DE9F047044690B31A4F00F1100500F1BC
:101AF00090084FF6FF79BA466B7DA3B9403545454E
:101B0000FAD1002384F8A130204601F00DFC94F8AE
:101B1000963013F0800F03F1010308BF03F07F0339
:101B200084F8963013E0A5F81C90386801F05CFF4B
:101B300006460028E2D03368AB4202D13046FFF7B8
:101B40009EFD3146DAF8000001F032FFF0E7BDE813
:101B5000F08700BF20000020F8B5C3689F6990F8A7
:101B60009730012B06460D4613D90846FFF7B0FB08
:101B700003F07EFF68B12846FFF7FAFB48B996F8F4
:101B80009730012B05D92846FFF7A2FB296801F001
:101B9000DCFCAA884FF6FF739A421DD02868016AC0
:101BA000B1F8A2304BB1008AB1F8A410B2FBF1F247
:101BB000034493FBF1F39A420EDC0124294630469C
:101BC000FFF7B0FC054628B927B13046FFF788FF7C
:101BD0002846F8BD2046F8BD2846FFF750FDF368BB
:101BE0009B699D4201D00020F8BD0024E6E72DE965
:101BF000F0410646087E0D46FFF71AFE044600280F
:101C000079D0076A3046FFF713FB20B1D0F8008087
:101C1000B8F1000F09D1324629462046FFF72CFCC7
:101C2000064670B96075BDE8F08131464046FFF761
:101C30003BFC0646002861D0024621464046FFF79D
:101C40008CFD6B8AB380288AFFF716FEBB6883423F
:101C50001DD197F897206B7D9A4218D1B7F8A22032
:101C60002B8C9A4213D1B7F8A4206B8C9A420ED1D8
:101C7000B7F898206B8B9A4209D1B7F89A20AB8BB2
:101C80009A4204D1B7F8A620EB8B9A4206D0304690
:101C9000FFF720FD00206075BDE8F081012363752A
:101CA0002B7DE374AB7D2375EB7DA37422462B461D
:101CB00005F1100153F8040B42F8040B8B42F9D1E3
:101CC00005F13C0304F1240205F1540153F8040B1F
:101CD00042F8040B8B42F9D131462046FFF752FA05
:101CE0003046FFF7DFFA3146A08320823846FFF7FF
:101CF00033FF6B7EB3712046BDE8F081B080FFDE1C
:101D000038B50D4D286801F06FFE044690B1226889
:101D10005AB1136A4BB1E379D90706D523F0010311
:101D2000E3712146106AFFF717FF2146286801F08A
:101D30003FFEEAE738BD00BF200000202DE9F84350
:101D40004B7D022B80460D4640F07681087EFFF7E2
:101D50003BFD0446002800F09D8090F8253033B10B
:101D600000F11006102230460FF034FD78B194F8DF
:101D70006560002E00F0978004F15006102229467D
:101D800030460FF027FD002840F08C8001208701AD
:101D9000E219EB7D92F8229018464946FFF756FA71
:101DA00000286AD0908DB4F8A41088420BD182F834
:101DB000223013F0800F03F1010308BF03F07F030B
:101DC00082F8223061E095F8502042B195F8513008
:101DD000590604D505F13C013046FFF7E4FA04EB5F
:101DE00007093046FFF786FCEB7D89F82230D9F8E9
:101DF0003030AA7E83F89820D9F83030EA7E83F814
:101E00009920D9F830302A7F83F89A20D9F83030D9
:101E10006A7F83F89B20D9F83030EA8BA3F8A6209C
:101E20009B6830461B689847D9F830204FF6FF73FF
:101E3000A9F8203092F8963013F0800F03F10103D7
:101E400008BF03F07F0382F89630294642463046A9
:101E5000FFF712FB054628B93C444FF6FF73A385F4
:101E6000BDE8F883FFF71EFA3C442946A08520848C
:101E7000206BBDE8F843FFF76FBE19464846FFF7F1
:101E8000E5F980B192F826306BB12046BDE8F84301
:101E900001F04ABA0A464046012100F019FC78BB1D
:101EA000BDE8F8830026E368B4F8A420998B91423A
:101EB00003D1B34240F0C08008E03EB92A46012178
:101EC000404600F005FC08BBBDE8F8836A8AB4F818
:101ED000A4309A42C0F0B08095F8502042B195F8F5
:101EE00051305B0604D505F13C013046FFF75BFA43
:101EF0002A460121404600F0EBFB80B9BDE8F8839B
:101F000029464046BDE8F843FFF74CBD2946404608
:101F1000FFF76DFE06460028D8D1BDE8F883B28BE6
:101F2000B4F8A4309A420CD16A8A4FF6FF739A42F1
:101F300000F0828094F89E30013384F89E30BDE832
:101F4000F88394F8992094F898301344012202FA07
:101F500003F341464FF47A723046B3FBF2F3F36376
:101F6000FFF7A2FA0746F0B94046FFF761F920B142
:101F7000D0F80090B9F1000F08D14246294630460A
:101F8000FFF77AFA0746C8B9BDE8F88341464846E4
:101F9000FFF78AFA074600284CD0024631464846E9
:101FA000FFF7DBFB0AE082886B8A9A4206D1B37D99
:101FB00023B194F89E30013384F89E306B8ABB8045
:101FC0004FF6FF72934205D1B3699F4202D120467A
:101FD00001F0AAF9FB7943F00103FB713946204671
:101FE000FFF7BAFD40B3B37D03B3B3699F421DD180
:101FF00094F89730B3B1E3689B699F4212D1B979E5
:10200000687EFFF723F968B194F8963013F0800FDB
:1020100003F1010301D103F07F0384F896302046D9
:1020200001F090F90021404603F082FE6B7EBB7107
:10203000BDE8F883B880FFDEBDE8F8832DE9F843FA
:10204000DFF888901F4BB9F800601F7840F20C52FF
:10205000002496421C70984603DD1F702046BDE8A0
:10206000F883194DA6F12802294605F108000FF062
:10207000CBFBA5F1280115F8223C2C6081F8283013
:10208000632315F8232CAB700423EB7006F10803CF
:10209000A9F8003002F10803DBB29A4205F8233CAC
:1020A00088BF15F8243C6C6088BF013307F108072E
:1020B00005F8224C88BF05F8243C88F80070012000
:1020C000BDE8F883302400201C460020E0450020B5
:1020D0002DE9F047DFF80091DFF8008199F8003032
:1020E000283303EB0802044652784F464646002A3E
:1020F00065D1034403EB080213F80830632B5ED16B
:102100005378042B5BD1D078FFF75EFB054600289F
:1021100055D099F8003028332344434493F8029073
:1021200019F0200F0CD090F89730012B44D908F10A
:10213000180003F0ADFC00283ED003F0DBFC3BE0D0
:10214000C268927D002A3AD0B3F804804FEA18237F
:1021500043EA08281F4B0F20D3F800A001F03EFEF1
:10216000014650464FFA89F91FFA88F801F0DAFC67
:1021700040B13B782833234433449B785B0648BF07
:10218000A0F80480EB68B9F1000F9B8B02DA984548
:1021900002D21CE098451AD220B1C5F85001284659
:1021A00001F0D4F83B7828331C443444A37803F07E
:1021B000400202F0FF002AB1284601F0B5F80120E4
:1021C000BDE8F08743F04003A370BDE8F08700202E
:1021D000BDE8F0872000002030240020F4450020D6
:1021E00070B51E4B0022014618781A701C4A94796B
:1021F0001E46154664BB92F829200AB1187027E0E4
:1022000095F82A30632B23D1EB8D0BBB154C22683C
:1022100002B392F89530FBB1D068837DE3B1FFF74C
:1022200043F918B103689B69984204D033782B4472
:10223000802283F82C20337822682A332B4492F8AA
:102240009410D970D268918B0A0A42EA01229A80CE
:10225000012070BD104670BD184670BD30240020AE
:10226000F4450020BC420020F8B51A4C1A4E1B4F12
:10227000002323703546B3792B2B1ED195F82910F6
:10228000687995F82830AB710131C900C9B2431A99
:10229000DBB298426B713A8838BF33791048A2EBB1
:1022A000010292B238BF03F1FF333A8038BF337175
:1022B000283A01440FF0A8FADDE73C2B06D1064B83
:1022C00093F82930DB0008332370F8BD002BD5D0FC
:1022D000F8BD00BF30240020F4450020E045002078
:1022E0001C4600200A4B1B6883B1DA6872B1094AA8
:1022F000108B48F2FE01884208D0127EFF2A05D0DA
:1023000093F89730012B01D9FFF798BE704700BFB3
:10231000BC420020F4450020404B1B682DE9F041F1
:1023200013B90020BDE8F081DA68002AF9D0928B59
:10233000B3F8A4309A4205D1FFF796FFBDE8F0410B
:10234000FFF77CBE364B00221F781A70354A917910
:102350001E46144600295DD192F8291039B992F829
:102360002A10632903D192F82B20042A01D01F7070
:1023700050E094F82D00FFF727FA00284AD090F893
:102380009530002B46D0C1688B7D002B42D033782E
:10239000DFF88C80234D2A33E218E35C632B37D1BE
:1023A000898B0B0A43EA0123938090F89730012B25
:1023B0002CD992F90230002B05F1180018DA03F03D
:1023C00067FB044610BB98F800302A332B440F20DB
:1023D0009A7842F020029A7001F000FDFEF75AFF51
:1023E00000289ED0224605F1180100F019FC98E75C
:1023F00003F04EFB98F800102A310D44AB7810B969
:1024000003F07F0301E063F07F03AB70377001E0FE
:1024100088F800700120BDE8F08100BFBC420020B8
:1024200030240020F4450020425C0144CB784878F9
:1024300043EA026343EA0043887843EA0020704796
:10244000130E43540144130C4B70130A8B70CA7063
:102450007047425C0144487840EA02207047130A02
:10246000435401444A707047024A00231380024AD1
:1024700013707047E0450020302400202DE9F04F14
:102480009FB05C22002107A80FF0D9F908238DF82E
:1024900036300C238DF837300A238DF838308023FE
:1024A000ADF83E304FF46073ADF83C300123DFF8F7
:1024B0001CE2ADF82C301E238DF839303C23ADF8EA
:1024C0003A300EF108030FCB7E4D7F4C03AF87E807
:1024D0000F0026782B78F61A2C3303EB0E0B1EF820
:1024E00003308DF8343002219BF801308DF8333001
:1024F0005846FFF7AEFF9BF80430ADF82E0023F0EE
:102500007F028DF83020C3F3C20203F007032C3E94
:102510008DF832309BF805308DF83530F6B28DF8F5
:1025200031200BF108030DF11C0E0BF1180CA8461D
:10253000A14618685968724603C208336345964637
:10254000F7D11824B44280F2B0801BF8043023B1D4
:102550000BEB04025578023500E0012504EB050A77
:102560005645C0F2A680023B062B00F29C80DFE8B5
:1025700003F00432519A9A9A7D00052D40F3998018
:102580000BEB04031A79DD7899788DF87010D00977
:1025900040EA45008DF87100C2F3011002F00F020D
:1025A0008DF873205A798DF872008DF87420002907
:1025B00079D0072906D1A11D5846FFF74AFFADF88B
:1025C000760070E0022974D19A79DB798DF8762053
:1025D0008DF8773067E0082D6BDD0BEB0402211DD1
:1025E0009378D2788DF85430584601938DF8552061
:1025F000FFF71AFF019B1490DA1DD210D11D8D42F6
:1026000057DD802B55D804F10801594410A80FF06C
:10261000F0F848E0102D4CD10BEB0403A11DDA7843
:102620008DF836201A798DF8372058465A798DF86A
:102630003820FFF70EFF04F10801ADF83C005846C2
:10264000FFF707FF04F10A01ADF83E005846FFF717
:1026500000FF04F10E01ADF82C005B7B8DF83930E2
:102660005846FFF7F6FEADF83A001CE0202D20D1C9
:102670000BEB040304F108019A78DB788DF86C20E9
:1026800058468DF86D30FFF7CFFE10345C441A9039
:1026900016AA04F1100520686168134603C30834C4
:1026A000AC421A46F7D154464CE707A93846FFF723
:1026B00045FB0023A9F8003088F800301FB0BDE8C2
:1026C000F08F00BF30240020E0450020F4450020BA
:1026D000F7B505460E46174603F022F9044658B9E9
:1026E0000F2001F07BFB224601468DE8C00001234C
:1026F000284603F0EFF80446204603B0F0BD000082
:102700002DE9F04F964C974E237833448DB093F8D3
:102710002C00FFF759F80394002800F0118190F87D
:102720009730012B40F20C8106F108030FCB94F88F
:1027300000B00DF1100A8AE80F000BF12C039F196D
:10274000894AF05C1488FFF73FF87B78C568590622
:1027500081460AD51022391D28460FF03BF8002883
:1027600040F0EE804FF0140801E04FF004089DF8AF
:10277000102099F89B300193FF2AFB78009301D138
:10278000022314E051462846FEF78EFE70B1B9F8D8
:10279000A4E08188AA8BB1FBFEF1B2FBFEF291426C
:1027A000C0F0D680AA69904200F0D2800123CBEB22
:1027B00004042C3C02934FF0000AE4B2A04524DA52
:1027C00017F80810E9B107EB0802052992F801B0E3
:1027D0000BF1020B04D0062915D15379019312E0B5
:1027E00092F803A00021102208A80FF028F80AF19F
:1027F000070208F10401D210394408A80EF0F9FFCD
:1028000001E04FF0010BD844D8E708A803F040F9E5
:10281000019B0746002B42D1002800F0918090F8E0
:102820002230DA0700F18C8090F82430534540F0D4
:10283000878003F005F9002800F08280384603F015
:10284000FFF810220DEB02010EF0C4FF002877D133
:1028500097F8223043F0010387F82230A8693C231F
:10286000BB6100286CD0FEF733FD002868D03F4ADA
:10287000137813F0800F03F1010308BF03F07F0307
:1028800013709DF8003087F8213097F822301278C5
:1028900087F8202043F0020387F8223043E04A46BD
:1028A000022104A8FFF714FF002849D004AB5246C8
:1028B00008A9284600F061FE0746002840D0B9F874
:1028C000A630019A5A43BA6190F8223023F00103EE
:1028D00080F82230029B012B32D1A86980B3FEF729
:1028E000F7FC68B397F822108B0707D597F82130CB
:1028F000009A934202D197F8202014E01B4A1378E3
:1029000013F0800F03F1010308BF03F07F0313707E
:1029100012789DF8003087F8213041F0020187F8E5
:10292000202087F82210039B1B781E4486F82F2056
:10293000A869FEF7CDFC234602229B2103F05AFE34
:10294000094A00231380064A13700DB0BDE8F08FCA
:102950004FF6FF738380C37943F00103C371EFE740
:1029600030240020F4450020E04500203400002001
:102970001FB5124B124A1B782C339C180021617032
:10298000D154A0B940F2FF23ADF800304FF4D0533A
:10299000ADF80200ADF80400ADF80600ADF808008F
:1029A000ADF80A00ADF80C00ADF80E306846022311
:1029B00000229B2103F01EFE04B010BD3024002035
:1029C000F44500202DE9FF477F4B804A1B78C668FD
:1029D0002C33894690F89410D1549C18B37C6370C2
:1029E000B78BB0F8A48005463A4602212046FFF78F
:1029F00036FD00232371F37C002B18BF8023237145
:102A000095F8972043EAC2035BB22371327D02F04E
:102A100007021343237195F89630637147450DD132
:102A2000B9F1000F0AD195F8963013F0800F03F139
:102A3000010308BF03F07F0385F896300023A371DC
:102A4000E37104F10802334606F1100153F8040B58
:102A500042F8040B8B42F9D12B784BB3AB68284674
:102A6000DB69984706230221217663762B78A376CB
:102A70006B785B08E3766B78DB012377AA7843EA0F
:102A80000213EA78134323772B78072B06D161775B
:102A9000EA881E212046FFF7E2FC07E0022B40F007
:102AA00090806377AB79A377EB79E377202700E019
:102AB000182704EB07080423E3554FF0000A0E2300
:102AC00088F8013088F802A095F8983088F803302B
:102AD00095F8993088F8043095F89A3088F80530E0
:102AE000B5F8A220B91D2046FFF7B9FCB5F8A4201F
:102AF00007F108012046FFF7B2FCAB6807F10A01B5
:102B00001A8C2046FFF7ABFC88F80CA095F89B3098
:102B100088F80D30B5F8A62007F10E012046FFF722
:102B20009EFC96F8382007F1100352B30822E254B5
:102B30001E2388F8113096F8383088F8123096F84D
:102B4000393088F81330726B204607F11401FFF713
:102B500077FC726B204607F11801FFF771FC07F153
:102B60001C0306F1240244F803A007F120031C44CF
:102B7000343652F8043B44F8043BB242F9D107F131
:102B80003003B9F1000F17D140F2FF22ADF8002059
:102B90004FF4D052ADF80E20ADF80290ADF804908D
:102BA000ADF80690ADF80890ADF80A90ADF80C902D
:102BB00001229B21684602E001229B21484603F046
:102BC00019FD04B0BDE8F08730240020F445002052
:102BD00038B50F4C94F89530012B13D10D4D2B7E49
:102BE000FF2B0CD00022032105F10800FFF770FD38
:102BF00040B105F108012046FFF7E4FE02E020465F
:102C000000F092FB044A00231380044A137038BD7D
:102C1000C0420020F4450020E04500203024002080
:102C20002DE9F0413B4B05460C46164693F80080D3
:102C300000F042FC01286BD0002D69D02846FEF739
:102C400047FB002864D02A68002A61D0176A002F49
:102C50005ED0002C5CD0304BDFF8C0E0197897F8DC
:102C600094C02C3101EB0E030EF801C040215970C5
:102C70000021997083F80380191D02F1100E52F89B
:102C800004CB41F804CB7245F9D105221A75122202
:102C90005A7500229A758022DA75214603F11802CE
:102CA000103451F804EB42F804EBA142F9D10622AA
:102CB00083F8282097F8972083F82D60012A14BF05
:102CC0000422142283F82920002283F82A2083F882
:102CD0002B2083F82C2097F89720012A11D12968FE
:102CE0000A68C3F82E204A68C3F8322050F8082F2B
:102CF000C3F836204268C3F83A20286840B13E2322
:102D000000E02E2302229B21BDE8F04103F072BCBB
:102D1000BDE8F0813400002030240020F44500207C
:102D2000F0B50A461F49064685B000200B7ED3B198
:102D300091F82A30012B16D88B7EFE2B10D01A4B1F
:102D400003EB40136C4603F1100E6F461868596888
:102D5000254603C5083373452C46F7D14EB91FE00D
:102D6000CB7E802BEBD10130032801F12001DDD196
:102D700016E03368A3B1186A90B10C490B7813F0D0
:102D8000800F03F1010308BF03F07F030B70131CD6
:102D900018BF012380F8A13039463046FFF740FFC5
:102DA00005B0F0BD744400208E44002034000020A3
:102DB00010B5094C201D03F071FB04F1100003F065
:102DC0006DFB04F11C0003F069FB04F12800BDE871
:102DD000104003F063BB00BF3400002070470023A5
:102DE0000370704708B5FEF77AFA08B1008808BD8D
:102DF0004FF6FF7008BD08B5FFF7F4FFB0F5806F20
:102E00008CBF0020012008BDC37CCA7C9A4203D03D
:102E1000002B08BF08467047027D0B7D9A4201D007
:102E200006D97047828B8B8B9A4228BF0846704721
:102E30000846704738B5054610B94FF6FF7038BDE3
:102E40000368002BF9D01B6A002BF6D08488FFF7AB
:102E5000C9FF4FF6FE7320449842EED82846FFF78C
:102E6000C1FF204480B238BD38B50546FFF7BAFF30
:102E700004462846FFF7DEFFB4F5806F05D8B0F5AD
:102E8000004F8CBF0020012038BD002038BD38B570
:102E9000054698B103688BB11B6A7BB1B3F8A440B7
:102EA000FFF7C8FFAB884FF6FF722344934228BF59
:102EB0001346984238BF184680B238BD4FF6FF70AF
:102EC00038BDF8B50C46054630B1FFF7CDFF061CFE
:102ED00018BF012614B908E041B12E462046FFF77D
:102EE000C3FF10B126B923461AE0C6B9002317E084
:102EF00028462F68FFF79EFF06462046FFF79AFFF9
:102F0000BB699D4201D09C4207D100F15F02B242F1
:102F100003DBA0F15F02964202DA8642E3D22B463F
:102F20001846F8BD2DE9F8432C4C236843B92046D8
:102F3000012240F8042B4EF66021294AFDF7A0FE3D
:102F4000284FDFF8988038680023A384A362E362E7
:102F5000236300F049FD0646002E3DD03146386817
:102F600000F01AFE8146304602F082FD20B1236B4C
:102F700001332363012500E005464846FEF78AF940
:102F8000F0B1E36A0133E362036813B19A699042D6
:102F90001CD0DDB9A18C4FF6FF72914216D0828809
:102FA000A2B19BB11B6A8BB19B681B699847B8F8AB
:102FB000243083420AD2A8F82400C8F8289005E0FB
:102FC00025B94FF6FF73C4F82890A38431463868BA
:102FD00000F0EEFC0646BFE7BDE8F88328050020B8
:102FE000E92F0008E800002008B5FFF79BFF024822
:102FF000BDE80840FDF768BE2C05002008B5FFF7C6
:1030000091FF034B1A6B0C2AD4BF986A002008BDAD
:103010002805002010B50C46FFF784FF207EFEF740
:10302000D3FB80B1C3685BB10749B0F8A400628AE2
:103030008B8C0244A3EB50039A4203DA886A10BDDA
:10304000184610BD002010BD2805002010B50C4604
:10305000FFF768FF44B1E368B4F8A4209B8B934268
:1030600014BF0D230F2300E00D23034A116B8B4285
:10307000CCBF906A002010BD28050020022806D091
:10308000032807D0012808D10548FFF7C3BF04482B
:10309000FFF7DCBF0248FFF7B1BF0020704700BF59
:1030A000FC45002070B590F89C40012606FA04F417
:1030B0004FF47A7303FB04F2B2FBF3F3C0F8A830C9
:1030C00005464FF4FA64B2FBF4F405F092FAD5F831
:1030D000A83085F89D6060434FF6FF71B0FBF1F1B9
:1030E00021445B1AC5F8A830002385F89E3005F10D
:1030F000D0002B46024ABDE87040FDF7C1BD00BFBD
:10310000BD31000810B5FEF753FB044600F08AFA03
:103110003CB1236A2BB193F89730012B01D900F011
:10312000D1F9FEF7EDFD084A138801339BB21380F5
:103130002CB93B2B03D920461480FFF719FC034818
:10314000BDE81040FDF7A6BD5C050020600500202D
:1031500070B5054600F0B0F901281ED0B5F8A620DC
:103160004FF6FF739A4218D095F89B40FF2C14D06D
:1031700054434FF47A72544305F03BFA6608A408AE
:10318000B0FBF4F101FB14012B46314405F58870C6
:10319000024ABDE87040FDF773BD70BD993200086A
:1031A00010B50446D0F85001FEF792F8014620B160
:1031B0002046BDE81040FFF705BC10BD70B51F4D9F
:1031C00095F82430044663B9012002F09DFE18B141
:1031D000012385F8243004E02346194A4FF47A711C
:1031E00014E094F89D30BBB194F89A303BB194F858
:1031F0009E209A4203D200212046FFF7E3FB0023E2
:103200000F4AD4F8A81084F89D30234603F1D0006B
:10321000BDE87040FDF734BD94F8991094F89820FB
:1032200094F89C300A449342BCBF013384F89C302C
:103230002046BDE87040FFF735BF00BF5C050020A9
:10324000BD31000870B505460C4600F035F901287F
:103250001ED005F1F4063046FDF720FE3046FDF79E
:1032600018FEA8B144B105F0C4F9B0FBF4F101FBBC
:10327000140000EB540100E0214605F1F0002B465C
:10328000044AFDF7FDFC2846BDE87040FFF760BF2B
:1032900070BD00BF9932000870B5144B93F824300C
:1032A000044600F1F00563B9012002F02DFE40B99B
:1032B000234628460E4A4FF47A71BDE87040FDF768
:1032C000DFBCE368986918B194F89B10FFF728FDFC
:1032D0002846FDF713FD04F58A70FDF7DAFD20B1ED
:1032E0002046BDE87040FFF733BF70BD5C0500208D
:1032F0009932000810B505F07CF93C2358434FF68D
:10330000FF73B0FBF3F30648064A193320F8043B79
:103310004FF47A710023BDE81040FDF7B1BC00BF47
:103320005C0500200531000890F8992090F89C1069
:10333000914206D9002180F89E1080F89C20FFF76A
:10334000B1BE70474FF47A61FFF77CBF0346034A72
:10335000002100F59870FDF793BC00BFA131000873
:1033600008B570B1036A63B1D3F8CC304BB105F046
:1033700040F942F21073B0FBF3F202FB130080B28B
:1033800008BD05F036F900F56A40603008BD000060
:103390002DE9F843064607F0D3FF0746002E5BD021
:1033A000306A002859D0D0F8CC00002855D1B06937
:1033B00028B1FDF79BFF10B9B069BDE8F88305F0AF
:1033C00018F910F00104DFF8988008D0D8F8000050
:1033D00000F00AFB4FF0000905464C462BE0D8F8F8
:1033E000000000F001FB4FF6FF790546ADB12B68F8
:1033F0009E420BD12846FDF779FF38B92846FDF7E4
:1034000051FF0CB1814501D981462C462946D8F897
:10341000000000F0CDFA0546E8E7D4B9D6E7284623
:10342000FDF75DFF2B689E4208D02946D8F80000C2
:1034300000F0BEFA0546002DF1D10AE00028F4D0D4
:10344000836814B1FA1A9145EFD2C3EB07092C46F1
:10345000EBE72046BDE8F8833046BDE8F88300BFBF
:103460002000002010B50446C068FFF779FF23460E
:103470000146034A04F1AC00BDE81040FDF700BC72
:103480008534000870B50446C068FFF781FF064622
:10349000FDF71EFF054648B13046FDF720FF2946DF
:1034A0002046FFF78FFA0023C4F8CC302046BDE851
:1034B0007040FFF7D7BF0000014B1878704700BF7E
:1034C00081050020F0B585B002F0C8FA30B18369FB
:1034D0000BB1013B836102F0C7FAF7E702F0BEFAD5
:1034E000114F0446F4B1A669BEB904F108030FCB2D
:1034F0008DE80F00204602F0FDFA02F0AFFA3A68BC
:10350000D368B2F8A420998B91420446EAD032469F
:1035100069469869FFF784FB04E0204602F0A4FAAC
:103520000446DFE705B0F0BDBC42002010B50446FC
:1035300002F094FA40B1C369A34202D102F0DAFA70
:10354000F6E702F091FAF5E710BD70B505460E46B4
:1035500002F084FA044678B1204602F071FA102293
:1035600029460EF037F918B9E369B34208BFA061E4
:10357000204602F079FAEDE770BD10B50446084622
:10358000D1B21A4602F01CFB68B1226AC461B2F8DB
:10359000A61092F89B304B43836190F8223023F0C1
:1035A000010380F8223010BD1FB548F2FE03ADF8CC
:1035B0000030014600236846ADF80230ADF8043013
:1035C000ADF80630ADF80830ADF80A30ADF80C3083
:1035D000ADF80E3002F094FD074890F89530012BBD
:1035E00007D16946FDF76BFF18B1C37943F00103BA
:1035F000C37105B05DF804FBC042002008B5014668
:10360000074890F89520012A09D1FDF758FF30B1FD
:103610004FF6FF738380C37943F00103C37108BD84
:10362000C042002038B50D4B93F89520AAB103F1A4
:10363000100403F19005637D1BB94034A5420CD002
:10364000F9E7E36B13B1013BE363F6E7A37D002BDE
:10365000F3D12046FEF764F8EFE738BDC042002002
:103660001FB5114B00241C60FDF70AFEFFF742FE58
:10367000FFF79EFB40F2FF23ADF8003068464FF4A1
:10368000D053ADF80240ADF80440ADF80640ADF8B7
:103690000840ADF80A40ADF80C40ADF80E3002F02D
:1036A00059FC04B010BD00BFBC420020084808B55A
:1036B000FDF7F0FA074800F097F938B103795B0895
:1036C00003710146034800F073F9F6E708BD00BF37
:1036D000144400208C0000200146014800F022BA6A
:1036E0008C00002010B5044608B9002010BD07F07A
:1036F00027FEA368C01A044B9842F6D82079032805
:1037000094BF0020012010BDBF270900F8B531F09B
:10371000020307460E46154631D10146184800F00F
:1037200001FA044650B9034608223946144800F00D
:1037300077F9044618B34FF48073038007F000FE56
:103740002379A0602B44102BA8BF1023022E18BF92
:10375000ED012371204614BFADB24FF4A065FFF711
:10376000C1FF0028238814BF0F221E22C2F164016A
:10377000554301FB03556423B5FBF3F52580F8BDE4
:103780008C00002038B50546042000F015FB2946C2
:1037900004B20E4800F0C6F9034650B90822294683
:1037A0000A4800F03DF978B14FF4807344800380FB
:1037B00038BDB0F90210C4EB0414552211FB0242CB
:1037C000642192FBF1F2428038BD00BF8C000020E2
:1037D00010B50021054800F0D9F80023044A054936
:1037E0000548BDE81040FDF74BBA00BF8C00002033
:1037F000AD360008804F1200144400200B680360AF
:103800004B684360704708B508220DF0E3FFB0FA3B
:1038100080F0400908BD000001460148FFF7EEBFF7
:1038200034440020431C1FBF034B9B680C2202FB47
:10383000003008BF002070479C00002038B14B1CAE
:1038400004D04268C36802FB013070470020704713
:1038500030B1054B9B68C01A044B80105843704729
:103860004FF0FF30704700BF9C000020ABAAAAAA0F
:1038700030B129B1C3684068C91A91FBF0F07047B4
:103880004FF0FF30704770B50C4605461146204694
:103890001E46FFF7EDFF01466CB1431C0DD02268B8
:1038A0006B5C012000FA02F20EB11A4301E023EA38
:1038B00002026A5470BD204670BD002070BD000039
:1038C00038B50D4D002818BF05460C4804F0FDFD25
:1038D000044668B1211D2846FFF795FF20B1204618
:1038E000BDE83840FFF7B4BF204604F027FEEFE7FD
:1038F0004FF0FF3038BD00BF4035010838060020CA
:1039000008B50246FFF7B4FF52B1431C0AD0064B7C
:1039100018440379106843FA00F000F0010008BD74
:10392000104608BD002008BD380600202DE9F843E8
:10393000DFF854900646002459F824508DB1AF6842
:103940007FB13046FFF784FF01462846FFF776FF38
:10395000014680462846FFF7D3FF012801D14046A3
:10396000B8470134082CE7D13046FFF771FF054B0B
:1039700018440022027131461846BDE8F84304F0AD
:10398000AEBD00BF380600204C060020074B5A6B26
:1039900010B5072A9FBF541C5C6303EB82030260CF
:1039A0009DBF816058610120002010BD38060020B5
:1039B00038B505460C4621462846FFF759FFFFF764
:1039C00031FF04F0BBFDFFF743FF01462846FFF738
:1039D00035FF044628B101462846FFF791FF00282D
:1039E000E9D0204638BD000038B505460B4804F044
:1039F0006CFDFFF72DFF01462846FFF71FFF044629
:103A000001462846FFF77CFF28B921462846BDE835
:103A10003840FFF7CDBF204638BD00BF3806002034
:103A20002DE9F8433B4E002918BF0E4605463046A7
:103A300099469046FFF744FF431C074636D1364867
:103A400004F08FFD044628BB49464046FFF716FBAD
:103A500000285CD0FFF734FF471C014638D0FFF741
:103A6000E1FE2E4B1944024691F8383080B3002B0A
:103A70004BD081F8384048E0002C42D0BB4240DBBC
:103A8000104604F05BFD02465ABB002C3FD0204696
:103A9000FFF74CFF2146214804F034FD2046FFF794
:103AA000D7FE31460746201DFFF7A8FE39462846B7
:103AB000FFF7C4FE6A68044600210DF0C0FE012332
:103AC000224629461648FFF7DEFE2046BDE8F88369
:103AD0001248DFF8488004F0F8FC0024024627462C
:103AE000D2E71046FFF7B4FE404490F83830002B80
:103AF000C6D101790029BFD0C80748BF013349109A
:103B0000F8E713B114461F46BAE71446BFE7002092
:103B1000BDE8F883403501089C00002038060020ED
:103B20003C06002038B505460846FFF7C9FE0146A9
:103B30002846FFF783FE044601462846FFF7E0FECD
:103B4000002814BF2046002038BD0000F8B5094CFD
:103B500005460E460A4600230146201DFFF793FE48
:103B6000002307463246294604F13800FFF78BFE52
:103B70003846F8BD380600200A46012301460148B0
:103B8000FFF781BE700600200A4600230146014867
:103B9000FFF779BE7006002008B5FFF769FEFFF752
:103BA00041FE00B1043008BD084B10B51B689847B2
:103BB000074B5B689847074B5B689847064B5B6809
:103BC0009847064BBDE810405B6818471836010857
:103BD000703501089035010848350108B4350108F1
:103BE000064B1A888242A1BF598880B20918101A60
:103BF000A3BF18805980012000207047440700208F
:103C0000014B1880704700BF4407002000487047F0
:103C100048070020014B1888704700BF4407002068
:103C2000034A937892F884001844C0B2704700BFEA
:103C30004407002008B5FFF7F3FF014B184408BD07
:103C400048070020F8B50C4991F884400E88A51962
:103C5000802D07460CDC224604310DF0CAFDFFF72B
:103C6000E9FF3C440146324620460DF0C2FD00E02B
:103C700000252846F8BD00BF4407002008B5FFF71F
:103C8000CFFF024B1B88184480B208BD44070020B8
:103C900010B50146FFF7F2FF4318802B13DC013803
:103CA0000A4A00B20028094B06DB131801381C79B8
:103CB0000B4400B21C71F5E793F88420114483F89B
:103CC0008410012010BD002010BD00BF440700205B
:103CD00038B5094D094C0A481E2200210DF0AFFDF0
:103CE00029462046FFF78AFD294604F10800BDE871
:103CF0003840FFF783BD00BF403501083C44002039
:103D00004C440020034B00225A801A8083F8842000
:103D1000FFF7DEBF4407002070B50C460646074D8E
:103D2000FFF7F0FF802C28BF802422463146281D53
:103D30000DF05FFD2C80204670BD00BF44070020C1
:103D400010B50A4B03F11C0253F8044B40F8044B26
:103D50009342F9D11B880380054B03F1100253F8FD
:103D6000040B41F8040B9342F9D110BD4C440020E0
:103D70003C44002010B50A4B00F11C0250F8044BE3
:103D800043F8044B9042F9D102881A80054B01F1A7
:103D9000100251F8040B43F8040B9142F9D110BD05
:103DA0004C4400203C440020024B23F8101001201A
:103DB000704700BF4C440020014B33F8100070479F
:103DC0004C44002008B5044B0F3803EBC000FFF74C
:103DD00015FD012008BD00BF3C440020024B0F38F8
:103DE00003EBC000704700BF3C440020014902487B
:103DF000FFF709BD403501084444002010B5054CCB
:103E0000204604F09EFB04F10C00BDE8104004F0D5
:103E100098BB00BFA8000020014804F0DABB00BF37
:103E2000B400002038B50E4804F09BFB0446A8B14E
:103E30000C4804F096FB0546206028B92146084846
:103E400004F0A3FB284638BDFFF7FCFE05F1A001F6
:103E5000A5F8800005F18200FFF772FF204638BD0B
:103E6000B4000020A8000020006800F1A00182300A
:103E7000FFF766BF10B501460446074804F09BFBF8
:103E800048B12168054804F080FB21460248BDE89E
:103E9000104004F07ABB10BDB4000020A800002040
:103EA00010B501460446094804F085FB68B1246852
:103EB000B4F880102046FFF72FFF04F1A00104F1B1
:103EC0008200BDE81040FFF755BF10BDB4000020D0
:103ED000036803EB4101B1F882007047014BDB68D6
:103EE000184700BF90350108014B5B69184700BFB8
:103EF00070350108014B9B69184700BF70350108F8
:103F0000024BD86900B10047704700BF7035010807
:103F100013B5044668B1406B04F0D7FA024640B1CD
:103F2000054B0648DB680193214602B0BDE810400E
:103F3000184702B010BD00BF703501086541000888
:103F400070B590F82D40032C88BF0424012303FA98
:103F500004F40C4BDB6905469847013C002808BF78
:103F60000120444305D004F044FBB0FBF4F303FB11
:103F700014042B46214605F10C00034ABDE87040AD
:103F8000FCF77EBE70350108113F00082DE9F041B5
:103F90000746464C10208846FFF720FF2378054649
:103FA00023B90123237004F024FB6080638813B9D4
:103FB0003E4B01225A8061880A204B1C6380FFF728
:103FC000F3FE3B4804F081FA044640B12946201D27
:103FD000FFF719FCD8B9204604F0B0FAF4E73548E9
:103FE00004F0BFFA044640B32946201DFFF706FC43
:103FF000002304F13000606384F82C3084F82D3005
:10400000236304F05FFA2146294804F07BFA606BD1
:1040100004F08DFA0F2810DC274804F0A2FA0546B8
:1040200098B9606B04F083FA38B92146204804F04F
:1040300056FA21461F4804F0A8FA414638460123A3
:104040000422BDE8F04100F09FBB1C4804F089FA4F
:10405000A86018B3FFF7E6FE6860D8B10920AE6823
:10406000FFF7AAFE10B90823337203E00920FFF717
:10407000A3FE30722946606B86E8800104F042FAA4
:10408000606B04F022FA85420DD12046BDE8F04174
:10409000FFF756BFA968094804F077FA2946064891
:1040A00004F073FABDE7BDE8F08100BF2C130020D7
:1040B00030130020D8000020C0000020CC000020D9
:1040C00010B5074C204604F03CFA04F10C0004F053
:1040D00038FA04F11800BDE8104004F032BA00BF0D
:1040E000C00000202DE9F0418B680D468046506BE2
:1040F000144693E8C00004F0F2F96868FFF7BAFECE
:10410000A968144804F041FA2946134804F03DFA1E
:10411000606B04F0DAF940B1002384F82C3084F8A5
:104120002D302046FFF70CFF0BE004F10C00FCF7EC
:10413000E5FD2146094804F0D2F92146084804F07B
:1041400024FA94F82C30424639463046BDE8F04116
:1041500000F01ABBCC000020C0000020301300206B
:10416000D80000202DE9F0410E46174604460028ED
:1041700061D0406B04F0A9F9054668B10A2168686E
:10418000FFF7A6FE80460A20FFF716FE804505D001
:10419000284604F0D3F9EFE7BDE8F081AB68002BC7
:1041A00049D0032E40D8DFE806F0021D0D4694F8F2
:1041B0002C2000203A4484F82C2084F82D0022463C
:1041C000294634E0002284F82D2094F82C203A442B
:1041D000D2B284F82C201B7A93421DD8224629465D
:1041E000022024E094F82D203A44D2B2052A83BF5D
:1041F000002284F82D2094F82C2084F82D2084BFF0
:10420000013284F82C2094F82C201B7A9A4203D394
:104210002246294601200AE02046FFF791FE686801
:10422000BDE8F041FFF720BE224629463046BDE8F2
:10423000F041FFF757BFBDE8F0810000014B18883F
:10424000704700BFE400002030B568B3037A022B4A
:1042500010D10479C57934B9F5B9447A003418BF5E
:1042600001242B461CE0CDB9437AB3FA83F35B09F2
:104270002C4615E00378022B10D003792BB9447A31
:1042800014F0030418BF012400E00024C37913F0E4
:10429000030318BF012303E0012301E000231C46B0
:1042A00001B10C6002B1136030BD37B500230B6063
:1042B0008B80437D0D46D9075CBF01232B70037EA5
:1042C000012B04460DD8C37D9A0708D0437E9B0777
:1042D00005D0C28B838B9A4201D1012300E00023D9
:1042E000237501AA694604F11000FFF7ADFF009B9A
:1042F0000BB10223EB70019B0BB102236B70E37DCA
:1043000003F00303022B03D0032B0CBF082300236D
:10431000AB70637E03F00303022B03D0032B0CBFAF
:10432000082300232B7103B030BD02280CBF0223E9
:1043300008230B448B4205D013F8012DFF2AF9D036
:10434000002070470120704707B56946FFF7ADFFB1
:104350009DF800009DF801309DF8032002301844BC
:104360009DF8023018449DF80430104403449DF831
:104370000500184403B05DF804FBF7B504460D468C
:104380006946FFF792FF617CA37CE27CC9001B01B8
:1043900003F0100301F008011943237C520103F0DC
:1043A00007030B4302F020021A43237D9B0103F015
:1043B000400313432B70637D627EA17D03F00103F4
:1043C00043EA8213E27D490001F0020192000B43AF
:1043D00002F00C021A43237E1B0103F03003134347
:1043E0006B709DF80030012B04BFA37EAB709DF86D
:1043F00001300CBF03200220022B08D1A28B2A54CB
:10440000431CA28BDBB2120A0230EA54C0B29DF800
:1044100002300146E218A24205D04E1C12F8017D7E
:104420006F54F1B2F7E718449DF80330022BC0B285
:1044300008D1E28B2A54431CE28BDBB2120A023011
:10444000EA54C0B29DF804301844C0B2C21AD2B2C5
:1044500023B1013BE118097AA954F7E703B0F0BD95
:104460002DE9F041012986B006460F46144640F377
:10447000A780037803F007028DF80C20C3F3C00275
:104480008DF80D20C3F300128DF80E20C3F34012F7
:10449000C3F380138DF8103043788DF80F20C3F3E9
:1044A00040028DF81220C3F3810203F001058DF85C
:1044B0001320C3F301129B098DF815308DF81420D9
:1044C0008DF8115003AB03CB1B88206161612383FE
:1044D0000DB1B51C02E0B378A376F51C02AA01A9C0
:1044E00003A8FFF7B1FE9DF81380B8F1000F23D0A9
:1044F000029B23B16A7815F8023B03EB0223B8F163
:10450000020FA38309D130492046FFF777F96B7872
:10451000237015F8023B637014E0B8F1030F11D15A
:1045200005F108021346611E13F8010D01F8010F91
:10453000AB42F9D1154605E023492046FFF75EF965
:10454000A4F81C809DF81580B8F1000F2BD0019BBA
:1045500053B16A7815F8023B03EB0223029A9BB22F
:10456000E3831AB9A38301E0A38BE383B8F1020FBD
:104570000AD1154904F10800FFF740F96B7823725E
:1045800015F8023B637215E0B8F1030F12D105F183
:1045900008021346E11D13F8010D01F8010F9D42B9
:1045A000F9D1154606E0084904F10800FFF726F99D
:1045B000A4F81E80A81B3B1A8742E363A56300DAB8
:1045C000002006B0BDE8F0814035010830B591B05B
:1045D000FFF730FB0446FFF71DFB6A460146204605
:1045E000FFF73EFF044610B94FF0FF3036E0FFF70B
:1045F000F7FA0028F8D09DF810100E20FFF7D4FB32
:104600009DF81730ABB1BDF81C50FFF717FE85427F
:1046100005D0BDF81C204FF6FF739A42E4D16946DD
:104620009DF81700FFF781FE18B969461020FFF7C3
:10463000C9FB02A90F20FFF7C5FB9DF812100D2042
:10464000FFF7B2FB9DF8153013B99DF81A1001E081
:104650004FF6FF710A20FFF7A7FB204611B030BDCF
:1046600070B590B00546FFF7E9FD4FF6FF7398422D
:1046700002D14FF0FF307BE03E4C402200216846E3
:104680000DF0DDF8237823B90123237003F0B1FF87
:1046900060700E20FFF790FB8DF810000D20FFF7E3
:1046A0008BFB8DF81200FFF7A1FB18B100238DF8EA
:1046B000133004E00B20FFF77FFB8DF8130000237D
:1046C00001268DF814308DF815308DF81860ADB1D5
:1046D0000A20FFF771FB28B10A20FFF76DFB8DF868
:1046E0001A000BE063780BB9224B5E7061788DF88D
:1046F0001A104B1C0A206370FFF756FB03248DF839
:104700001940FFF79BFDADF81C00FFF76FFB40B1B0
:1047100002238DF81730FF238DF800308DF801301B
:1047200008E01020FFF75AFB01466846FFF766F8DD
:104730008DF81740FFF782FD0F49ADF81E0002A863
:10474000FFF75CF8FFF776FA0E90FFF763FA0F9029
:104750006846FFF7F9FD04464DB1FFF799FA0028C6
:1047600087D0FFF753FA01466846FFF706FE20465A
:1047700010B070BD46150020344400200120FFF722
:104780006FBF0020FFF76CBF30B40D4604461146E2
:1047900020B11A462846234630BC184730BC704723
:1047A000014B1B6A184700BF1836010800207047EC
:1047B000FFF7F6BF70B505460E460F201449FFF708
:1047C00001FB144B5B689847002815DBFFF71EFAC6
:1047D0000446FFF753FA104B0146DB682046984722
:1047E00002280BD0032802D018B1042207E00222CD
:1047F00005E00246012403E0052200E00122002436
:10480000284601233146FFF7BFFF204670BD00BF99
:1048100034440020643501081836010870B5044698
:104820000D4652B150681668FFF73AFB29462046FC
:10483000FFF7C0FF08B13246F3E770BDFFF7BABF1C
:1048400082B0044B08B11B6A00E05B6A019302B0BE
:10485000184700BF183601080D4B07B59B689847ED
:10486000002811DB1020FFF7B9FA0A49FEF7CBFF49
:1048700030B1094BDB68019303B05DF804EB1847D6
:10488000FFF7B4FA0028F4D103B05DF804FB00BFD1
:1048900064350108344400204835010870470000A1
:1048A000014B9B68184700BFB435010870B504463A
:1048B0000D460E200121FFF777FA034B29462046CB
:1048C0009B68BDE870401847483501080C4AB8217C
:1048D00001FB00210023F0B502F5B8724B821E46A1
:1048E000194640F24C55D418A77827B19F5C8742EF
:1048F00004BFA67001317133AB42F4D10846F0BD5C
:104900004815002008B5094803F0E0FB084B0122D8
:1049100083F8BC26FD21002283F8BD2683F8BE164D
:1049200083F8BF2683F8C62608BD00BF7D4A00086D
:104930004815002030B513780546087A83F0020345
:1049400098421DD1487A5378984219D1887A937841
:10495000984215D1C87AD378984211D1087B13793F
:1049600098420DD1487B5379984209D1887B93793D
:10497000984205D1C87BD379984201D103201DE02C
:104980000B89104C7BB94B89B3F57F4F0BD18B89C9
:10499000FE2B08D1D4F8D036CA8923F8022B022086
:1049A000C4F8D0360AE001F1080303CBD4F8D026CE
:1049B000106051600832C4F8D0260120A840C0B26F
:1049C00030BD00BF4815002010B50E4C0220A17963
:1049D000FFF7EAF9A379112B01D0062B05D1218D20
:1049E000638D9942A8BF194606E03A2B03D1218D69
:1049F00049BA89B200E000210120BDE81040FFF76C
:104A0000D3B900BFF445002038B505460F4890F8EB
:104A1000BC36012B044606D10822294600F2BE60AE
:104A20000CF0D8FE50B194F8C646012C0CD10822E7
:104A3000294607480CF0CEFE30B900E00446054B8D
:104A40000A2000FB043038BD002038BD4815002086
:104A5000101C0020041C002008B501461020FFF7A0
:104A6000B1F9044B04489B6800219847BDE8084011
:104A700007F06EBA90350108855000082DE9F04F17
:104A8000994C002385B084F8D43684F8D536054691
:104A9000FFF738F9FFF7CEF8D4F8DC36C4F8D806BB
:104AA0000BB1FFF791FF0DB9904900E0294602A82C
:104AB000FEF7A4FED4F8D8A694F8D5968C480AF14F
:104AC000020309F10209C4F8D03600230AF80930BC
:104AD000FFF79AFF18B98748FFF796FF28B10AF148
:104AE0000303C4F8D036802500E00546824E717875
:104AF00030780B0943EA0013DBB29A0842EA8313C9
:104B00005BB211F00F0FDFB200F00F020ED1708810
:104B100060B912B911F0F00F27D0D4F8D03603F8ED
:104B2000017B4FF07008C4F8D03620E092B911F044
:104B3000F00F0FD1D4F8D02623F03F030B431370AE
:104B40006E4B1B88A2F801300332C4F8D0264FF018
:104B500068080CE0D4F8D0363068186003F8047B9D
:104B60004FF06008C4F8D03601E04FF07808B27911
:104B7000112A08BF48F0040818F0040F02BFD4F847
:104B8000D03603F8012BC4F8D036F379402B06D089
:104B9000FF2B07D0012B08D148F001080BE048F0AB
:104BA000020808E048F0030805E0D4F8D02602F82F
:104BB000013BC4F8D02632894F4B82B95A8972B969
:104BC0009A8962B9DA8952B91A8A42B95A8A32B9CB
:104BD0009A8A22B9DB8A13B945F0400013E04548B0
:104BE000FFF712FFC4F8E00678B142781AF80930EE
:104BF000404943EA02130AF80930414A0420FFF70A
:104C000099FE60F03F00C5B225E032893A4948F28A
:104C1000FE039A420CD14B8B53B98B8B43B9CB8B90
:104C200033B9374A08310420FFF784FE2843EAE706
:104C3000D4F8D026DFF8BCE017460EF1100C73460E
:104C400003CB6345386079609E4607F10807F6D1CB
:104C50001032C4F8D026337E274FFF2B7ED197F831
:104C600019C045F0080EBCF1020F5FFA8EFE1AD192
:104C70007B8BC3B9BB8BB3B9FB8BA3B93B8C93B90B
:104C80007B8C83B9BB8C73B997F826305BB9D4F8A9
:104C9000D03697F8272003F8012B45F00B00C5B25A
:104CA000C4F8D03695E0728B134B002A42D19A8B10
:104CB000002A3FD1DA8B2ABB1A8C1ABB5A8C0ABB4A
:104CC00093F82420F2B9D4F8D026114645F00A0012
:104CD00001F801CBC5B233F8250FA2F801009B788B
:104CE0008B70043273E000BF481500204035010886
:104CF0000C460020FC450020F4450020F64500202D
:104D0000EC450020F28BCF4BA2B91A8C92B993F8E4
:104D100022207AB9D4F8D026114645F0090001F8CE
:104D200001CBC5B253F8230FC2F801001B790B71F8
:104D300006324CE0D4F8D026C34F154607F1100CCC
:104D40003B4603CB6345286069601F4605F10805B3
:104D5000F6D11032C4F8D02675463AE007F11800B3
:104D6000FFF752FEC4F8E00668B11AF8091043785C
:104D700045F004050B43EDB20AF8093002AA07F129
:104D8000180100200DE03A8B48F2FE039A420DD143
:104D90007B8B5BB9BB8B4BB9FB8B3BB902AA07F191
:104DA0001801FFF7C7FD2843C5B212E0D4F8D0269A
:104DB000DFF894E217460EF1100C734603CB6345FF
:104DC000386079609E4607F10807F6D11032C4F8C2
:104DD000D026282384F8D436B3799C499948112BDE
:104DE0005CD1028D130A43EA02239BB223F00F0722
:104DF000BFB24FF2B00297421BD1B0F82AE04FEA9F
:104E00001E2242EA0E2222F00F0292B2BA4210D1C2
:104E1000D1F8D026F3231370038D1F0A438D1B0A8C
:104E200003EB071303F5AA6353700232C1F8D026CF
:104E300029E0718D834A090289B2B1F5704F0AD118
:104E4000D4F8D036F1211970118DA3F80110528DCC
:104E5000120ADA700DE003F47F43B3F5704FD4F813
:104E6000D03608D1F2211970118D090A5970528D6E
:104E70005A80043305E0F0211970906AC3F80100EC
:104E80000533C4F8D036724B1A88D4F8D03623F8DC
:104E9000022BC4F8D036302384F8D436D4F8D82680
:104EA00094F8D536DFF8B09102F80380134402A9D4
:104EB0005D70D4F8D036654D9B1A102084F8D53635
:104EC000FEF780FF634B1B689847B9F8003094F8F1
:104ED000D47694F8D5B630EA200028BF1520C0F16A
:104EE0006008DA1BCBEB08018A42CA4640F3B68061
:104EF000C0F15B0993FBF9F7FEF78EFF013887429B
:104F000001DB0020BBE0002395F8D5B6C5F8E436F8
:104F1000D5F8D83601935A461946181D0CF074FC82
:104F2000BAF80020019B120A62F03F021A70BAF828
:104F300000205A70B5F8E826DA70511C0BF1040B0A
:104F40005FFA8BFBA5F8E816110A9970CBEB0807FE
:104F500095F8D41685F8D5B627F007073A463144B8
:104F600003EB0B00C5F8EC760CF043FC0BEB0700F1
:104F700080B2FEF745FEFEF755FF07460028C0D079
:104F800002A8FFF769FD3846FEF78AFF3846FEF7AC
:104F900071FFD5F8E436012BB3D0043B012BB0D917
:104FA000D5F8EC3695F8D476D5F8D8261F440523E5
:104FB00085F8D536BAF800301B0A63F01F0313706A
:104FC000BAF80030537029F00700BFB2C5F8EC06FC
:104FD000BAF800309F4251D2D4F8D80694F8D5964A
:104FE000FA080271D4F8EC26DB1B9342B8BFC5F86F
:104FF000EC36D4F8EC86F119424648440CF0F9FB43
:1050000009EB080080B2FEF7FBFDFEF70BFF8046C0
:1050100000283FF476AF02A8FFF71EFD4046FEF7DA
:105020003FFF4046FEF726FFD5F8EC361F44D5F883
:10503000E436012BBFB23FF464AF043B012BC7D869
:105040005FE700BFF44500200C4600204815002013
:105050002246002064350108E0450020D5F8D80636
:10506000F11958440CF0C5FBB9F800005844C01BB6
:1050700080B2FEF7C5FD02A8FFF7EEFC012005B0E7
:10508000BDE8F08F38B50D462846114600F078FC93
:10509000054BD3F8DC261C4612B193682846984786
:1050A000C4F8E45638BD00BF48150020174AF8B5CB
:1050B00005460023712000FB03F41719144E97F8DE
:1050C00002E0BEF1000F1AD1344484F87111FEF7EA
:1050D000A1FD96F8D53684F87051C01AD6F8D85686
:1050E00084F872011D44FEF795FD96F8D5262946F1
:1050F000821AF81C0CF07DFB94F87201F8BD0133A4
:105100000C2BD8D14FF0FF30F8BD00BFB8160020EF
:10511000481500202DE9F84315090F2D064698463D
:1051200002F00F0403D00F2C35D045B103E00F2C53
:105130002FD1102425462A4630460CF05AFB2A1956
:105140000F2A274605DCC2F11002002170190CF06D
:1051500076FBBCB1DFF84C80D8F8D096C7F11000D0
:105160002246494630440CF044FB022C05D10A2D5E
:105170009FBFFF23F372FE2333734C44C8F8D0461D
:10518000BDE8F88365B141463046BDE8F84300F01C
:10519000B7BF1025CFE71024002DCCD12746D9E783
:1051A000BDE8F883481500202DE9F04707468846FA
:1051B0001546002A4CD0414E0024B046338ABB42EB
:1051C00016D1738AA3B10F20FEF708FE01463046C0
:1051D000FEF719FB60B15FFA84FA29465046FFF7E3
:1051E00065FF002829DA0027DFF8D4903E460FE05B
:1051F0000134022C06F1B806E0D14FF0FF30BDE8D3
:10520000F087A64209D10136022E09F1B8090ED065
:1052100039F8063C002BF6D0F3E74846FBF79CFF35
:105220000028F0D0F0B2FFF751FB0744EBE7002F66
:10523000E3DD29465046FFF739FF0028DDDDB823BE
:1052400003FB04839A8A1044988260B2BDE8F08719
:105250001B4E4FF0FF3436F8063C63B33046FBF785
:105260007BFF10B1E8B2FFF731FB611C03D136F8C8
:10527000063C03B96CB20135022D06F1B806EAD13D
:10528000621C15D0DFF83490B825654309EB05069C
:105290000F20A6F812803782FEF7A0FD01463046A7
:1052A000FEF7ACFA05F11800FA214844FBF742FF7B
:1052B0002046BDE8F087631CDDD1DBE74815002000
:1052C000601500202DE9F04F0F20C34C87B0FEF78A
:1052D00085FD0027FEF756FA84F8D47684F8D57653
:1052E000FEF7A8FCC4F8D8060420FEF765FDD4F844
:1052F000D826137892F8018048EA032803F0F803CF
:1053000000B2C02BC4F8F00602D0E02B1AD03BE06C
:105310009578D07894F8D536C8F30A0804333A461D
:10532000414640EA052084F8D536FFF73DFFB0F14D
:10533000FF3F814600F0A082B82505FB00452235DD
:10534000012724E092F804B09578D07894F8D52617
:10535000C8F30A08053284F8D52641465A4640EA81
:105360000520FFF721FFB0F1FF3F814600F0848266
:10537000B82202FB00424FF0010A968A464534BF2C
:10538000002601263D46F9E1944DB946B846D4F8C9
:10539000D81694F8D526904E8B5C03F0E000602878
:1053A00040F0CF81901C0A44084492F801A0C6F84E
:1053B000D0064FFA8AFBBBF1000FBCBF0130C6F824
:1053C000D00613F0100F03F0080232D1EAB9D4F876
:1053D000D02632F8011FA5F801109278D4F8D01623
:1053E000EA7011F8040BC4F8D016820802F00F011D
:1053F00041F060012970697802F0300242EA8012BF
:1054000001F00F010A436A702FE0D4F8D016602231
:1054100008462A7010F8012B960806F0300602F0B4
:105420000F0232436A7002886A800331C4F8D016D2
:105430001BE002F0FF009AB9D4F8D0261178C1F32E
:10544000830141F06001297012F8016BC4F8D02685
:10545000B10801F0300141EA86116970688004E00A
:1054600060222A7000226A706A8003F0040202F04F
:10547000FF01019132B9D4F8D02612F8011BA971AD
:10548000C4F8D02613F0030315BF554AD4F8D0361C
:10549000D35C13F8012B0ABFEA71EB71C4F8D03664
:1054A0001AF0400FCAF3011241D0BBF1000FBDBF8B
:1054B00094F8D536D4F8D8165B180023BCBF9B7877
:1054C0001B0922B905F108060ABB114622E094F82F
:1054D000BC16012904D1404991F8BD1699420AD061
:1054E00094F8C666012E0CD13B4991F8C716994233
:1054F00007D1334600E000233A490A2606FB03168B
:1055000000E00026C4F8E066002EDBD131E1D4F8DB
:10551000E0160231324B039113440F201A790292A4
:10552000FEF75CFC029A0399034630460CE02C4ED1
:10553000B3180F201A7A0292FEF750FC029A034623
:1055400006F10C0105F10800FFF7E4FD0AF008017F
:105550000AF0030001F0FF020AF00403B9B1002BC6
:105560006AD1214B1B88ADF81430431E012B9EBF1E
:10557000D4F8D03613F8012BC4F8D036184B98BFA6
:105580008DF81520184405A90023027C50E0002B5B
:1055900043D0BBF1000FBDBF94F8D536D4F8D82660
:1055A0009B181346B8BF9B7894F8BC26B8BF03F08D
:1055B0000F03012A04D1084A92F8BD269A4215D059
:1055C00094F8C666012E17D1034A92F8C7269A426C
:1055D00012D133460BE000BF48150020F4450020EF
:1055E000A0350108041C0020AE3501080023A44AA0
:1055F0000A2606FB032600E00026C4F8E066002E1B
:1056000000F0B7809F4B184490F804A01020FEF7DC
:10561000E5FB52460346B11C0AE09A4E304490F82E
:1056200008A01020FEF7DAFB5246034606F10C01F3
:1056300005F11800FFF76EFD94F8D41601F1280368
:1056400084F8D436019B002B58D08F4BD3F8D0363A
:105650001A7802F0F802F02A50D11122AA711A78B1
:1056600002F0040002F0F302F03AC0B2032A00F2A2
:105670008280DFE802F0020A1622B3F801202A85B0
:10568000B3F803206A8505332BE0B3F801202A859F
:10569000DA78A2F5805292B2120242F0F0026A85E4
:1056A00009E05A78A2F5805292B2120242F0F0025A
:1056B0002A855A886A85043313E05A781209A2F5BC
:1056C000756292B2120242F0F0022A855A7802F014
:1056D0000F02A2F5756292B2120242F0F0026A85E0
:1056E0000233C4F8D03630B9D4F8D03633F8022BB0
:1056F000EA85C4F8D036303184F8D416D4F8D036E0
:10570000D4F8D826604E9B1A84F8D536B8F1000F2D
:105710000CD1FEF77FFA96F8D536C01A96F8D43633
:105720001844283803122B71687104E0A8F128038B
:105730001A122A716B71AB79112B1CD1AB88AB8516
:1057400019E0412B40F09880531C51FA83F303F188
:105750002800294653F8046B41F8046B8342F9D1C1
:1057600094F8D4362932283384F8D52684F8D436F0
:1057700001E0BA4601E0BA460026B346FEF74AFA0F
:1057800094F8D516404A814276D80192FEF742FA43
:10579000019A92F8D516431A0193C2F8EC3692F8A2
:1057A000D436029302984FEACB039BB2034401988C
:1057B000034440F2145083425ED83DB1D2F8D8364B
:1057C000019A1944029BE8180CF013F8B8F1000F85
:1057D00036D047B1029B019A9A18B82303FB0943BC
:1057E00092B29A821A848EB3B82101FB09F1631830
:1057F0001946A3F814801A8C2448254D234F2231D2
:105800000BF0F7FF05F24C5615F8012C52B115F8C4
:10581000033C994506D115F8020C294607EBC00058
:105820000BF0E7FF7135B542EED15FFA89F0FFF773
:105830004DF8BAF1000F0CD0164BA3F800800FE022
:10584000BAF1000F05D0002EF6D115E0BAF1000F25
:1058500012D1029B019A13449B460E4BA3F800B051
:10586000D4F8DC3633B1FFF7AFF8074BD3F8DC36AA
:105870005B68984702F030FC07B0BDE8F08F00BFCE
:10588000041C0020A035010848150020F445002024
:10589000BB160020E045002010B5044640B1FDF7DE
:1058A000ADFE044B21461868BDE81040FEF74EB926
:1058B00010BD00BFE800002008B5FDF789FF034BCD
:1058C00003491868BDE80840FEF760B8E80000200A
:1058D0009958000870B504460C489DF810200068DF
:1058E0001E46059BFEF79CF8054668B120462B46F0
:1058F00004F1100250F8041B43F8041B9042F9D144
:105900006E742846FDF77AFE284670BDE800002038
:10591000024B01461868FEF73FB900BFE8000020BF
:1059200070B50C4D06462868FEF75EF8044666B969
:10593000002070BD1022314620460BF04BFF38B1DD
:1059400021462868FEF734F80446002CF2D1EFE730
:10595000204670BDE8000020024B01461868FEF7A3
:10596000E1B800BFE8000020FFF7F6BF08B5FFF779
:10597000D7FF18B1BDE80840FFF7CABF08BD000057
:1059800070B5054610200E46FEF728FA0849044671
:10599000FDF739FF58B9324629462046FDF7B6FED5
:1059A000324629462046BDE87040FDF7FDBD70BD7A
:1059B000403501082DE9F84305460F48DFF83890D7
:1059C0000F46904602F081FD044694B1012D04D8A3
:1059D0000A4802F0ACFD034601E0D9F808306668D9
:1059E000424639462846B047204602F0A7FD044605
:1059F000EBE7BDE8F88300BF4C1D0020501D0020E0
:105A000038B50C4D0C4C284602F09BFD04F10C00FF
:105A100002F058FD0949E868FDF7B8FF05F11000EC
:105A200002F08FFD201D02F04DFD2046BDE83840FC
:105A300002F048BDFC0000204C1D0020BD5B0008AA
:105A400008B540B1044B4168D868FEF7A5F8BDE839
:105A50000840FFF789BF08BDFC000020014802F0A4
:105A600034BD00BF581D002008B102F067BD70476B
:105A700008B5FFF77BFF38B1044B0146D868FEF745
:105A800051F8003018BF012008BD00BFFC00002005
:105A90002DE9F0418046FFF7E1FF002704463E462E
:105AA0009CB194F82450AF420AD8EA0804F10801E6
:105AB00040460BF08FFE18B9802D08D02F462646A1
:105AC0002046FFF7D1FF0446EAE76EB134460848A6
:105AD00002F0FBFC844207D02146054802F0FFFC9F
