:1000000000800120BD1C0208A1510008AD5100086C
:10001000B9510008C5510008D15100080000000086
:10002000000000000000000000000000DD5100089A
:10003000ED51000800000000FD5100085952000871
:100040000D1D02080D1D02080D1D02080D1D0208E0
:100050000D1D02080D1D02084D53000869530008CC
:1000600085530008A15300080D1D02080D1D02084C
:100070000D1D02080D1D02080D1D02080D1D0208B0
:100080000D1D02080D1D02080D1D020800000000D4
:10009000000000000000000000000000BD53000848
:1000A0000D1D02080D1D02080D1D02080D1D020880
:1000B0001D52000809520008F91400080D1D02081D
:1000C0000D1D02080D1D02080D1D02080D1D020860
:1000D0000D1D0208CD520008E1520008000000008A
:1000E0000D1D02080D1D02080D1D02080000000074
:1000F0000000000000000000000000000D1D0208CC
:10010000000000000D1D0208315200080D1D0208FC
:1001100000000000000000000000000000000000DF
:100120000D1D02080D1D02080D1D02080D1D0208FF
:100130000D1D02080000000000000000000000008B
:100140000000000000000000000000000D1D02087B
:100150000D1D02080D1D02080D1D02080D1D0208CF
:100160000D1D02080D1D0208000000000000000027
:10017000000000000000000000000000000000007F
:10018000000000000D1D020800000000000000003B
:100190000D1D02080000000000000000000000002B
:1001A00010B5054C237833B9044B13B10448AFF3B1
:1001B00000800123237010BDAC050020000000006A
:1001C000A86E0208084B10B51BB108490848AFF3E8
:1001D00000800848036803B910BD074B002BFBD013
:1001E000BDE81040184700BF00000000B005002027
:1001F000A86E0208AC05002000000000000000000E
:1002000001F0FF01102A2BDB10F0070F08D010F8C7
:10021000013B013A8B422DD010F0070F42B3F6D1CB
:10022000F0B441EA012141EA014122F007047FF0E4
:1002300000070023F0E80256083C85EA010586EA3B
:10024000010685FA47F5A3FA87F586FA47F6A5FA77
:1002500087F68EB9EED1F0BC01F0FF0102F0070283
:1002600032B110F8013B013A83EA010313B1F8D12E
:100270000020704701387047002D06BF354603380F
:10028000073815F0010F07D1013015F4807F02BF48
:10029000013015F4C03F0130F0BC0138704700BF99
:1002A00010F8012B11F8013B012A28BF9A42F7D020
:1002B000D01A7047034613F8012B002AFBD1181AF5
:1002C0000138704781F0004102E000BF83F0004335
:1002D00030B54FEA41044FEA430594EA050F08BFE1
:1002E00090EA020F1FBF54EA000C55EA020C7FEAA5
:1002F000645C7FEA655C00F0E2804FEA5454D4EB22
:100300005555B8BF6D420CDD2C4480EA020281EAEB
:10031000030382EA000083EA010180EA020281EA23
:100320000303362D88BF30BD11F0004F4FEA013175
:100330004FF4801C4CEA113102D0404261EB410184
:1003400013F0004F4FEA03334CEA133302D052420A
:1003500063EB430394EA050F00F0A780A4F10104C6
:10036000D5F1200E0DDB02FA0EFC22FA05F2801800
:1003700041F1000103FA0EF2801843FA05F35941E6
:100380000EE0A5F120050EF1200E012A03FA0EFC65
:1003900028BF4CF0020C43FA05F3C01851EBE3718F
:1003A00001F0004507D54FF0000EDCF1000C7EEBAC
:1003B00000006EEB0101B1F5801F1BD3B1F5001FEA
:1003C0000CD349085FEA30004FEA3C0C04F1010409
:1003D0004FEA445212F5800F80F09A80BCF1004F32
:1003E00008BF5FEA500C50F1000041EB045141EAB4
:1003F000050130BD5FEA4C0C404141EB010111F4B5
:10040000801FA4F10104E9D191F0000F04BF01465F
:100410000020B1FA81F308BF2033A3F10B03B3F13D
:1004200020020CDA0C3208DD02F1140CC2F10C02CD
:1004300001FA0CF021FA02F10CE002F11402D8BF2B
:10044000C2F1200C01FA02F120FA0CFCDCBF41EAF7
:100450000C019040E41AA2BF01EB0451294330BDC6
:100460006FEA04041F3C1CDA0C340EDC04F11404A3
:10047000C4F1200220FA04F001FA02F340EA03007A
:1004800021FA04F345EA030130BDC4F10C04C4F1C0
:10049000200220FA02F001FA04F340EA03002946A0
:1004A00030BD21FA04F0294630BD94F0000F83F4EA
:1004B000801306BF81F480110134013D4EE77FEACD
:1004C000645C18BF7FEA655C29D094EA050F08BF19
:1004D00090EA020F05D054EA000C04BF19461046FA
:1004E00030BD91EA030F1EBF0021002030BD5FEA3E
:1004F000545C05D14000494128BF41F0004130BD66
:1005000014F580043CBF01F5801130BD01F00045B9
:1005100045F0FE4141F470014FF0000030BD7FEA2C
:10052000645C1ABF194610467FEA655C1CBF0B4627
:10053000024650EA013406BF52EA033591EA030F3E
:1005400041F4002130BD00BF90F0000F04BF002136
:10055000704730B54FF4806404F132044FF0000569
:100560004FF0000150E700BF90F0000F04BF0021E2
:10057000704730B54FF4806404F1320410F0004548
:1005800048BF40424FF000013EE700BF42004FEA43
:10059000E2014FEA31014FEA02701FBF12F07F43C0
:1005A00093F07F4F81F06051704792F0000F14BFBD
:1005B00093F07F4F704730B54FF4607401F0004501
:1005C00021F0004120E700BF50EA010208BF704758
:1005D00030B54FF000050AE050EA010208BF70474D
:1005E00030B511F0004502D5404261EB41014FF4B6
:1005F000806404F132045FEA915C3FF4DCAE4FF0BA
:1006000003025FEADC0C18BF03325FEADC0C18BFA0
:10061000033202EBDC02C2F1200300FA03FC20FAF1
:1006200002F001FA03FE40EA0E0021FA02F114443E
:10063000C1E600BF70B54FF0FF0C4CF4E06C1CEA53
:1006400011541DBF1CEA135594EA0C0F95EA0C0FC8
:1006500000F0DEF82C4481EA030621EA4C5123EA3B
:100660004C5350EA013518BF52EA033541F480116A
:1006700043F4801338D0A0FB02CE4FF00005E1FB1D
:1006800002E506F00042E0FB03E54FF00006E1FB67
:1006900003569CF0000F18BF4EF0010EA4F1FF04AA
:1006A000B6F5007F64F5407404D25FEA4E0E6D41EA
:1006B00046EB060642EAC62141EA55514FEAC520FB
:1006C00040EA5E504FEACE2EB4F1FD0C88BFBCF577
:1006D000E06F1ED8BEF1004F08BF5FEA500E50F128
:1006E000000041EB045170BD06F0004646EA0101EE
:1006F00040EA020081EA0301B4EB5C04C2BFD4EB20
:100700000C0541EA045170BD41F480114FF0000E18
:10071000013C00F3AB8014F1360FDEBF002001F086
:10072000004170BDC4F10004203C35DA0C341BDC00
:1007300004F11404C4F1200500FA05F320FA04F0D2
:1007400001FA05F240EA020001F0004221F0004106
:1007500010EBD37021FA04F642EB06015EEA430E79
:1007600008BF20EAD37070BDC4F10C04C4F12005A9
:1007700000FA04F320FA05F001FA04F240EA02005C
:1007800001F0004110EBD37041F100015EEA430E2D
:1007900008BF20EAD37070BDC4F1200500FA05F24D
:1007A0004EEA020E20FA04F301FA05F243EA0203CC
:1007B00021FA04F001F0004121FA04F220EA0200DB
:1007C00000EBD3705EEA430E08BF20EAD37070BD21
:1007D00094F0000F0FD101F00046400041EB010101
:1007E00011F4801F08BF013CF7D041EA060195F0E3
:1007F000000F18BF704703F00046520043EB03039D
:1008000013F4801F08BF013DF7D043EA0603704789
:1008100094EA0C0F0CEA135518BF95EA0C0F0CD094
:1008200050EA410618BF52EA4306D1D181EA0301DA
:1008300001F000414FF0000070BD50EA410606BFD4
:100840001046194652EA430619D094EA0C0F02D119
:1008500050EA013613D195EA0C0F05D152EA03365E
:100860001CBF104619460AD181EA030101F000417C
:1008700041F0FE4141F470014FF0000070BD41F0C5
:10088000FE4141F4780170BD70B54FF0FF0C4CF49F
:10089000E06C1CEA11541DBF1CEA135594EA0C0FBE
:1008A00095EA0C0F00F0A7F8A4EB050481EA030E0B
:1008B00052EA03354FEA013100F088804FEA0333F2
:1008C0004FF0805545EA131343EA12634FEA0222C0
:1008D00045EA111545EA10654FEA00260EF0004181
:1008E0009D4208BF964244F1FD0404F5407402D2D3
:1008F0005B084FEA3202B61A65EB03055B084FEA64
:1009000032024FF480104FF4002CB6EB020E75EB60
:10091000030E22BFB61A754640EA0C005B084FEA88
:100920003202B6EB020E75EB030E22BFB61A754605
:1009300040EA5C005B084FEA3202B6EB020E75EB50
:10094000030E22BFB61A754640EA9C005B084FEAC8
:100950003202B6EB020E75EB030E22BFB61A7546D5
:1009600040EADC0055EA060E18D04FEA051545EAC4
:1009700016754FEA06164FEAC30343EA52734FEA6D
:10098000C2025FEA1C1CC0D111F4801F0BD141EAE6
:1009900000014FF000004FF0004CB6E711F4801F4B
:1009A00004BF01430020B4F1FD0C88BFBCF5E06F2B
:1009B0003FF6AFAEB5EB030C04BFB6EB020C5FEA3B
:1009C000500C50F1000041EB045170BD0EF0004E90
:1009D0004EEA113114EB5C04C2BFD4EB0C0541EAC2
:1009E000045170BD41F480114FF0000E013C90E6BF
:1009F00045EA060E8DE60CEA135594EA0C0F08BF83
:100A000095EA0C0F3FF43BAF94EA0C0F0AD150EA81
:100A100001347FF434AF95EA0C0F7FF425AF104614
:100A200019462CE795EA0C0F06D152EA03353FF43C
:100A3000FDAE1046194622E750EA410618BF52EAB9
:100A400043067FF4C5AE50EA41047FF40DAF52EA8D
:100A500043057FF4EBAE12E74FF0FF3C06E000BF2A
:100A60004FF0010C02E000BF4FF0010C4DF804CD37
:100A70004FEA410C7FEA6C5C4FEA430C18BF7FEAF7
:100A80006C5C1BD001B050EA410C0CBF52EA430C25
:100A900091EA030F02BF90EA020F0020704710F1A5
:100AA000000F91EA030F58BF994208BF90422CBF34
:100AB000D8176FEAE37040F0010070474FEA410C2D
:100AC0007FEA6C5C02D150EA013C07D14FEA430C4B
:100AD0007FEA6C5CD6D152EA033CD3D05DF8040BBC
:100AE000704700BF8446104662468C4619466346EE
:100AF00000E000BF01B5FFF7B7FF002848BF10F1C5
:100B0000000F01BD4DF808EDFFF7F4FF0CBF012009
:100B100000205DF808FB00BF4DF808EDFFF7EAFF85
:100B200034BF012000205DF808FB00BF4DF808ED40
:100B3000FFF7E0FF94BF012000205DF808FB00BF35
:100B40004DF808EDFFF7CEFF94BF012000205DF8BF
:100B500008FB00BF4DF808EDFFF7C4FF34BF0120CC
:100B600000205DF808FB00BF4FEA410212F50012B9
:100B700015D211D56FF47873B3EB625212D94FEAE4
:100B8000C12343F0004343EA505311F0004F23FACE
:100B900002F018BF404270474FF00000704750EA23
:100BA000013005D111F0004008BF6FF000407047E0
:100BB0004FF00000704700BF4A0011D212F500123A
:100BC00011D20DD56FF47873B3EB62520ED44FEAA5
:100BD000C12343F0004343EA505323FA02F0704725
:100BE0004FF00000704750EA013002D14FF0FF3063
:100BF00070474FF00000704780F0004002E000BFF7
:100C000081F0004142001FBF5FEA410392EA030FF7
:100C10007FEA226C7FEA236C6AD04FEA1262D2EB41
:100C20001363C1BFD218414048404140B8BF5B4246
:100C3000192B88BF704710F0004F40F4000020F0DF
:100C40007F4018BF404211F0004F41F4000121F0F5
:100C50007F4118BF494292EA030F3FD0A2F101023F
:100C600041FA03FC10EB0C00C3F1200301FA03F17D
:100C700000F0004302D5494260EB4000B0F5000FA0
:100C800013D3B0F1807F06D340084FEA310102F15F
:100C90000102FE2A51D2B1F1004F40EBC25008BF11
:100CA00020F0010040EA03007047490040EB0000DB
:100CB00010F4000FA2F10102EDD1B0FA80FCACF10A
:100CC000080CB2EB0C0200FA0CF0AABF00EBC25009
:100CD00052421843BCBFD0401843704792F0000FF7
:100CE00081F4000106BF80F400000132013BB5E74A
:100CF0004FEA41037FEA226C18BF7FEA236C21D0C0
:100D000092EA030F04D092F0000F08BF0846704724
:100D100090EA010F1CBF0020704712F07F4F04D1F2
:100D2000400028BF40F00040704712F100723CBF05
:100D300000F50000704700F0004343F0FE4040F42F
:100D4000000070477FEA226216BF08467FEA2363ED
:100D50000146420206BF5FEA412390EA010F40F4D8
:100D6000800070474FF0000304E000BF10F0004324
:100D700048BF40425FEA000C08BF704743F096430B
:100D800001464FF000001CE050EA010208BF704726
:100D90004FF000030AE000BF50EA010208BF7047AD
:100DA00011F0004302D5404261EB41015FEA010CC2
:100DB00002BF84460146002043F0B64308BFA3F1BA
:100DC0008053A3F50003BCFA8CF2083AA3EBC2539C
:100DD00010DB01FA02FC634400FA02FCC2F12002BB
:100DE000BCF1004F20FA02F243EB020008BF20F0F2
:100DF0000100704702F1200201FA02FCC2F1200258
:100E000050EA4C0021FA02F243EB020008BF20EA4C
:100E1000DC7070474FF0FF0C1CEAD0521EBF1CEA7A
:100E2000D15392EA0C0F93EA0C0F6FD01A4480EA68
:100E3000010C400218BF5FEA41211ED04FF0006351
:100E400043EA501043EA5111A0FB01310CF000407D
:100E5000B1F5000F3EBF490041EAD3715B0040EAA3
:100E6000010062F17F02FD2A1DD8B3F1004F40EB73
:100E7000C25008BF20F00100704790F0000F0CF046
:100E8000004C08BF49024CEA502040EA51207F3A0A
:100E9000C2BFD2F1FF0340EAC250704740F40000E5
:100EA0004FF00003013A5DDC12F1190FDCBF00F0D6
:100EB00000407047C2F10002410021FA02F1C2F184
:100EC000200200FA02FC5FEA310040F1000053EA20
:100ED0004C0308BF20EADC70704792F0000F00F06E
:100EE000004C02BF400010F4000F013AF9D040EA74
:100EF0000C0093F0000F01F0004C02BF490011F408
:100F0000000F013BF9D041EA0C018FE70CEAD15305
:100F100092EA0C0F18BF93EA0C0F0AD030F0004C85
:100F200018BF31F0004CD8D180EA010000F0004039
:100F3000704790F0000F17BF90F0004F084691F0F7
:100F4000000F91F0004F14D092EA0C0F01D1420231
:100F50000FD193EA0C0F03D14B0218BF084608D1FA
:100F600080EA010000F0004040F0FE4040F4000044
:100F7000704740F0FE4040F4400070474FF0FF0CD7
:100F80001CEAD0521EBF1CEAD15392EA0C0F93EA1E
:100F90000C0F69D0A2EB030280EA010C49024FEA70
:100FA000402037D04FF0805343EA111143EA101329
:100FB0000CF000408B4238BF5B0042F17D024FF4E1
:100FC000000C8B4224BF5B1A40EA0C00B3EB510FBC
:100FD00024BFA3EB510340EA5C00B3EB910F24BFA5
:100FE000A3EB910340EA9C00B3EBD10F24BFA3EB2A
:100FF000D10340EADC001B0118BF5FEA1C1CE0D1F2
:10100000FD2A3FF650AF8B4240EBC25008BF20F0A4
:10101000010070470CF0004C4CEA50207F32C2BFF8
:10102000D2F1FF0340EAC250704740F400004FF095
:101030000003013A37E792F0000F00F0004C02BFC6
:10104000400010F4000F013AF9D040EA0C0093F090
:10105000000F01F0004C02BF490011F4000F013BEA
:10106000F9D041EA0C0195E70CEAD15392EA0C0F52
:1010700008D142027FF47DAF93EA0C0F7FF470AF8A
:10108000084676E793EA0C0F04D14B023FF44CAFCD
:1010900008466EE730F0004C18BF31F0004CCAD162
:1010A00030F000427FF45CAF31F000437FF43CAF9E
:1010B0005FE700BF4FF0FF3C06E000BF4FF0010CC0
:1010C00002E000BF4FF0010C4DF804CD4FEA4002A2
:1010D0004FEA41037FEA226C18BF7FEA236C11D0EC
:1010E00001B052EA530C18BF90EA010F58BFB2EB9F
:1010F000030088BFC81738BF6FEAE17018BF40F01F
:10110000010070477FEA226C02D15FEA402C05D1D2
:101110007FEA236CE4D15FEA412CE1D05DF8040B57
:10112000704700BF844608466146FFE70FB5FFF7EA
:10113000C9FF002848BF10F1000F0FBD4DF808EDA2
:10114000FFF7F4FF0CBF012000205DF808FB00BF93
:101150004DF808EDFFF7EAFF34BF012000205DF8ED
:1011600008FB00BF4DF808EDFFF7E0FF94BF01203A
:1011700000205DF808FB00BF4DF808EDFFF7D2FF37
:1011800094BF012000205DF808FB00BF4DF808ED7A
:10119000FFF7C8FF34BF012000205DF808FB00BF47
:1011A0004FEA4002B2F1FE4F0FD34FF09E03B3EB74
:1011B00012620DD94FEA002343F0004310F0004FB4
:1011C00023FA02F018BF404270474FF0000070470A
:1011D00012F1610F01D1420205D110F0004008BFA9
:1011E0006FF0004070474FF00000704742000ED291
:1011F000B2F1FE4F0BD34FF09E03B3EB126209D452
:101200004FEA002343F0004323FA02F070474FF007
:101210000000704712F1610F01D1420202D14FF07C
:10122000FF3070474FF00000704700BF80B582B0BC
:1012300000AF786039607B680E4A18461146332348
:101240001A4623F04AFD3968786823F0FEFF786873
:10125000FFF730F803461A467B681344064A1846DF
:10126000114609231A4623F038FD00BF0837BD4652
:1012700080BD00BFC06E0208F46E020890B583B056
:1012800000AF786039607B68002283F869217B6851
:1012900093F86931002B43D17B686A4A184611469E
:1012A0001A231A4623F019FD7B68303300221A7086
:1012B0007B686033644A1846114615231A4623F0AA
:1012C0000CFD7B6860333968184623F0BEFF7B68ED
:1012D000002283F8A0207B68A13300221A707B686B
:1012E000C13300221A707B68E133584A1846114610
:1012F00033231A4623F0F1FC7B6803F2211300220A
:101300001A707B6803F2411300221A707B6842F264
:10131000B322C3F864217B68732283F868218EE0CE
:101320007B68484A184611461A231A4623F0D5FC12
:101330007B683033464A1846114615231A4623F077
:10134000CCFC7B68002283F8A0207B68A133414A53
:10135000184611460F231A4623F0BFFC7B68C133A1
:101360003D4A1846114613231A4623F0B6FC7B6803
:10137000E1333A4A184611462F231A4623F0ADFCB2
:101380007B6803F22113364A184611460D231A468C
:1013900023F0A3FC7B6803F24113324A184611463E
:1013A00007231A4623F099FC7B6860332E4A1846BF
:1013B000114603231A4623F090FC7B6803F1600278
:1013C0007B6803F241131946104623F03EFF7B6809
:1013D00003F160042046FEF76DFF03462344234AD1
:1013E0001846114602231A4623F077FC7B6803F166
:1013F00060027B6803F221131946104623F025FF93
:101400007B6803F160042046FEF754FF0346234443
:10141000164A1846114602231A4623F05EFC7B68E2
:1014200060333968184623F010FF7B6842F2B3221C
:10143000C3F864217B68732283F8682100BF0C37EE
:10144000BD4690BD006F02081C6F0208346F020891
:10145000686F0208806F0208906F0208A46F02088C
:10146000D46F0208E46F0208EC6F0208F06F020804
:1014700080B582B000AF00237B601C4A1B4B1B6C05
:1014800043F004031364194B1B6C03F004037B60EB
:101490007B68174B174A1A60154B0922DA60144B08
:1014A00042F2CF025A60124B00221A61104B002206
:1014B0009A600F481EF026FF0346002B01D018F05B
:1014C000B3FC0B481EF04AFF0346002B01D018F076
:1014D000ABFC012200211E201CF0BAFB1E201CF0D8
:1014E000D3FB00BF0837BD4680BD00BF00380240B7
:1014F0000C8900200008004080B500AF04F05CFCBF
:10150000034B1B686FF001021A6100BF80BD00BF72
:101510000C89002080B582B000AF7860064B186857
:10152000391D4FF0FF3301221FF01AFD7B6818466A
:101530000837BD4680BD00BFE4D6002080B582B02C
:1015400000AF114B1868F91D4FF0FF3301221FF057
:101550009FFD0D4B1868F91D4FF0FF3301221FF05E
:10156000FFFCFB790D2B09D10A23BB71064B1868D0
:10157000B91D4FF0FF3301221FF0F2FCFB79184632
:101580000837BD4680BD00BFE4D6002080B582B0DC
:1015900000AF78607868FFF7BDFF0346184608374C
:1015A000BD4680BD80B500AFFFF7C8FF03461846B3
:1015B00080BD00BF80B500AF0F4B104A1A600E4BC4
:1015C00040225A600C4B7F229A600B4B4FF498726A
:1015D000DA60094B00221A61074B00225A61064B60
:1015E00000229A6104481DF0FDFF0346002B01D044
:1015F00000F0D8F800BF80BD5889002000280040C6
:1016000080B586B000AF1423FB7502237B751823C9
:10161000BB7502233B7507F11403012219461148DB
:101620001EF022F90346002B01D000F0BBF808237E
:101630003B7010237B700023BB700023FB700023E2
:10164000FB6000233B613B460122194605481EF022
:1016500045F80346002B01D000F0A4F800BF18376E
:10166000BD4680BD5889002080B594B000AF0023EE
:10167000BB60294A284B1B6C43F080531364264BF4
:101680001B6C03F08053BB60BB6800237B60234A64
:10169000224B1B6823F4404343F4004313601F4B69
:1016A0001B6803F440437B607B680223FB600123DB
:1016B000BB611023FB6102237B620023BB6210230A
:1016C000FB624FF4A8733B6304237B630723BB6374
:1016D00007F10C0318461DF01BFA0346002B01D03E
:1016E00000F060F80F23FB6302233B6400237B645C
:1016F0004FF48053BB640023FB6407F13C030221D9
:1017000018461DF05FFC0346002B01D000F04AF89C
:1017100000BF5037BD4680BD003802400070004019
:1017200080B485B000AF0023FB601D4A1C4B1B6BCF
:1017300043F0010313631A4B1B6B03F00103FB60BF
:10174000FB680023BB60164A154B1B6B43F002037A
:101750001363134B1B6B03F00203BB60BB680023D6
:101760007B600F4A0E4B1B6B43F0040313630C4B5F
:101770001B6B03F004037B607B6800233B60084A1B
:10178000074B1B6B43F008031363054B1B6B03F004
:1017900008033B603B6800BF1437BD4680BC704700
:1017A0000038024080B500AF002020F037FFFA205B
:1017B0001CF00EF9F8E700BF80B500AF4FF4A5525A
:1017C00000210D4823F0AFFA4FF4A55200210B4839
:1017D00023F0A9FA90220021094823F0A4FA094B2A
:1017E00000221A70084B00221A60074B1B68074A38
:1017F000136000BF80BD00BF78890020A89E002034
:10180000189E0020D0050020CC050020C80500202F
:1018100090B58DB002AFF860B9603B601346FB71C4
:1018200000237B6200233B620023FB7700233B62A3
:1018300045E07A4A3B6A582101FB03F31344143311
:101840001A68FB689A4237D13B6A582202FB03F3BD
:10185000724A1344B9681846FEF722FD0346002B6E
:101860002AD16E4A3B6A582101FB03F3134410331B
:101870001A68FB799A421FD1684A3B6A582101FBDA
:1018800003F3134444331B78002B15D13B6A5822D1
:1018900002FB03F33033614A13443968184623F0DE
:1018A000F1FC5E4A3B6A582101FB03F313444433C5
:1018B00001221A700123ADE03B6A01333B62584BB1
:1018C0001B683A6A9A42B4D3554B1B683C2B1FD114
:1018D00000233B6210E0514A3B6A582101FB03F3AD
:1018E000134444331B78002B03D13B6A7B620123F2
:1018F000FB773B6A01333B623B6A3B2BEBD9FB7FB7
:10190000002B0DD13C21474823F0C2FA002381E08F
:10191000434B1B687B62424B1B680133404A136098
:1019200007F1140107F1180207F1100300930B46A9
:101930003D49B86823F01AFC0346032B05D0B9686B
:101940003A4823F0A5FA002364E0FA7933497B6A28
:10195000582000FB03F30B4410331A607B6A5822B3
:1019600002FB03F32D4A9C18B868FEF7A3FC03465C
:101970001A46B968204623F0A2FC7B6A582202FB73
:1019800003F33033254A134414220021184623F070
:10199000CAF97B6A582202FB03F330331F4A9C18B2
:1019A0003868FEF787FC03461A463968204623F05C
:1019B00086FC1A4A7B6A582101FB03F31344143353
:1019C000FA681A60154A7B6A582101FB03F3134435
:1019D000443301221A70114A7B6A582101FB03F338
:1019E00013442C3300221A600C4A7B6A582101FBF5
:1019F00003F3134403F140010D48FA6813465B00FA
:101A000013445B01C2188B1D11461022184623F0A7
:101A100064F9012318462C37BD4690BDA89E0020CE
:101A2000CC050020F46F02084470020850700208D0
:101A300048B3002080B584B000AF786039600023DF
:101A4000FB600023FB6025E0174AFB68582101FB7F
:101A500003F3134414331A687B689A4217D1FB6866
:101A6000582202FB03F3104A134439681846FEF764
:101A700017FC0346002B0AD10B4AFB68582101FBD7
:101A800003F31344443300221A70012308E0FB6877
:101A90000133FB60054B1B68FA689A42D4D30023DC
:101AA00018461037BD4680BDA89E0020CC050020FA
:101AB00090B58DB002AFF860B9603B601346FB7122
:101AC00000237B6200233B620023FB7700233B6201
:101AD0004EE07F4A3B6A582101FB03F31344143361
:101AE0001A68FB689A4240D13B6A582202FB03F312
:101AF000774A1344B9681846FEF7D2FB0346002B19
:101B000033D1734A3B6A582101FB03F3134410336A
:101B10001A68FB799A4228D16D4A3B6A582101FB29
:101B200003F3134444331B78002B1ED13B6A582225
:101B300002FB03F33033664A13443968184623F036
:101B4000A1FB634A3B6A582101FB03F3134444336E
:101B500001221A705E4A3B6A582101FB03F31344C9
:101B60002C3301221A600123ADE03B6A01333B6252
:101B7000584B1B683A6A9A42ABD3564B1B683C2BB6
:101B80001FD100233B6210E0514A3B6A582101FB00
:101B900003F3134444331B78002B03D13B6A7B626D
:101BA0000123FB773B6A01333B623B6A3B2BEBD95A
:101BB000FB7F002B0DD13C21474823F069F900231E
:101BC00081E0444B1B687B62424B1B680133414AF6
:101BD000136007F1140107F1180207F110030093D5
:101BE0000B463E49B86823F0C1FA0346032B05D0E3
:101BF000B9683B4823F04CF9002364E0FA79344992
:101C00007B6A582000FB03F30B4410331A607B6A95
:101C1000582202FB03F32E4A9C18B868FEF74AFBD1
:101C200003461A46B968204623F049FB7B6A5822CE
:101C300002FB03F33033264A1344142200211846D2
:101C400023F071F87B6A582202FB03F33033204AF9
:101C50009C183868FEF72EFB03461A463968204662
:101C600023F02DFB1A4A7B6A582101FB03F313442E
:101C70001433FA681A60164A7B6A582101FB03F391
:101C80001344443301221A70114A7B6A582101FB24
:101C900003F313442C3301221A600D4A7B6A582146
:101CA00001FB03F3134403F140010E48FA681346A5
:101CB0005B0013445B01C2188B1D114610221846AD
:101CC00023F00BF8012318462C37BD4690BD00BF0A
:101CD00078890020C805002070700208447002084E
:101CE000BC70020848B3002080B584B000AF7860B3
:101CF00039600023FB600023FB6025E0174AFB6886
:101D0000582101FB03F3134414331A687B689A4289
:101D100017D1FB68582202FB03F3104A13443968B9
:101D20001846FEF7BDFA0346002B0AD10B4AFB68A2
:101D3000582101FB03F31344443300221A7001239A
:101D400008E0FB680133FB60054B1B68FA689A42A8
:101D5000D4D3002318461037BD4680BD78890020B3
:101D6000C805002080B586B000AFF860B9607A6021
:101D700000237B61FB68002B0AD14FF48A72224951
:101D8000224823F085F8224823F008F9002337E0A1
:101D900000237B612EE07B69582202FB03F3403372
:101DA0001C4A134406331022F968184622F086FFB5
:101DB0000346002B1BD17B69582202FB03F3154A13
:101DC00013441946B868FEF76BFA0346002B0ED190
:101DD000104A7B69582101FB03F3134444331B78F9
:101DE000002B04D07B687A691A60012308E07B69C4
:101DF00001337B61084B1B687A699A42CBD300237D
:101E000018461837BD4680BDD87002083C710208DC
:101E10004471020878890020C805002080B584B08C
:101E200000AF78600023FB600023FB6031E01E4AB6
:101E3000FB68582101FB03F3134414331A687B68D1
:101E40009A4223D1184AFB68582101FB03F313443B
:101E5000443300221A707A6813465B0013445B0116
:101E6000124A9818FB68582202FB03F30E4A1344E7
:101E70001A4643F2163113F019FC0B4AFB6858213D
:101E800001FB03F313442C3300221A60FB68013377
:101E9000FB60074B1B68FA689A42C8D301231846B7
:101EA0001037BD4680BD00BF7889002048B30020B0
:101EB000C805002080B485B000AF78600023FB60C7
:101EC0000023FB601FE0154AFB68582101FB03F368
:101ED000134414331A687B689A4211D10F4AFB6885
:101EE000582101FB03F31344443300221A700B4AB8
:101EF000FB68582101FB03F313442C3300221A60C2
:101F0000FB680133FB60064B1B68FA689A42DAD320
:101F1000012318461437BD4680BC7047A89E002098
:101F2000CC05002080B586B000AFF860B9607A605B
:101F3000234B1B78FB75224B1B781946214A0B4615
:101F40005B000B441B0113441433FA681A601C4BEA
:101F50001B781A4613465B0013441B01194A1344AD
:101F6000B968184623F08EF9154B1B781946154AA7
:101F70000B465B000B441B01134410337A681A6054
:101F80000F4B1B7819460F4A0B465B000B441B0195
:101F900013442C3301221A60094B1B785A1C0A4B3C
:101FA00083FB0231D317C91A0B465B000B44D11ACD
:101FB000CAB2034B1A70FB7D18461837BD4680BD68
:101FC000D0050020189E00205655555590B583B079
:101FD00000AF03463960FB713B68002B0AD14FF418
:101FE000C4723E493E4822F053FF3E4822F0D6FFDD
:101FF00000236EE0FA793C4913465B0013441B0151
:102000000B4410331B68022B0FD0032B19D0012B6C
:1020100036D1FA793B681968334813465B0013449C
:102020001B010344183319603EE0FA793B681968D4
:102030002D4813465B0013441B01034418331960F9
:1020400032E0FA7913465B0013441B011833264A29
:10205000134414220021184622F065FEFA79134633
:102060005B0013441B0118331F4A9C183868FEF7A5
:1020700021F903461A463968204623F020F913E077
:1020800040F297121549164822F002FFFA791649D4
:1020900013465B0013441B010B4410331B681946A5
:1020A000124822F0F5FE00BFFA79F9790E480B4686
:1020B0005B000B441B0103442C331B6843F00201FB
:1020C000094813465B0013441B0103442C33196079
:1020D000012318460C37BD4690BD00BFD8700208DA
:1020E0003C71020868710208189E00209471020871
:1020F0002DE9F041AAB002AFF860B9607A607B8048
:102100000023C7F88C3000237B6607F16803242284
:102110000021184622F007FE00233B660023FB64E3
:1021200007F1500300221A605A609A60DA600023B7
:10213000BB6400233B6207F12403242200211846DC
:1021400022F0F1FD0023C7F898300023C7F894303F
:102150000023FB610023FB76002387F89F300023D8
:1021600087F89E3000233B8300237B61002387F8A0
:102170009D30B04BDB6807F18C021146F868984738
:10218000C7F8900000233B6107F1200328220021BB
:10219000184622F0C8FDD7F88C10D7F8902007F128
:1021A0006403184622F099FDA34B5B6807F16402B3
:1021B00011461846FEF774F80346002B40F02882BB
:1021C0009E4B1A89598909040A43002010469A89AE
:1021D000D98909040A43002616461A8A598A09042D
:1021E0000A43002515469A8ADB8A1B041343002400
:1021F0001C4631462A46234600F034FC0346002B99
:102200002CD08E4B07F110041A89598909040A430E
:102210004FF0000890469A89D98909040A4300269C
:1022200016461A8A598A09040A4300251546684643
:1022300014330422194622F050FD414632462B4603
:10224000204600F047FA0346002B36D1794B5B69F4
:10225000784A926F1146B86898472AE2774B07F19F
:10226000100200921A89598909040A430020104675
:102270009A89D98909040A43002616461A8A598A76
:1022800009040A43002515469A8ADB8A1B04134376
:1022900000241C4631462A46234600F081FA0346B4
:1022A000002B0AD1664822F079FE624B5B69614AD5
:1022B000926F1146B8689847FBE107F1180007F1E3
:1022C0001B0207F11C0107F1140300930346F86891
:1022D00015F0A2FB0346002B16D0012387F89D3092
:1022E000FB69002B02D1012387F89F30FB7E002B76
:1022F00002D1012387F89E30BB689B7D43F0080321
:10230000DAB2BB689A7505E0012387F89F30012394
:1023100087F89E3097F89F30002B3AD03A694949A8
:1023200013465B0013445B010B442C3301221A60FB
:102330003A69444913465B0013445B010B44303354
:1023400000221A603B691846FFF768FD3B69184692
:10235000FFF7B0FD374B5B6D07F148023A49F8686B
:102360009847C7F89400BB6C1A46D7F894103748C2
:1023700022F08EFD3A6913465B0013445B01103373
:10238000304A13440233B96CD7F89420184622F02F
:1023900096FF3B691846FA6997F89D30194600F098
:1023A000C7FB0346002B55D097F89D30002B16D065
:1023B0003A69396923480B465B000B445B010344CF
:1023C00030331B68F969012000FA01F119431D48F7
:1023D00013465B0013445B01034430331960154B13
:1023E0009B6C07F160021146F8689847C7F898009F
:1023F0003B6E1A46D7F89810154822F049FD3B6EFF
:102400003A691146184600F049FA97F89D30002BBA
:1024100008D0FB7E002B05D0064B5B695F21B868B6
:10242000984790E0034B5B69024A926E1146B86888
:10243000984788E0149A020800000020D8CF0020B6
:10244000B071020848B30020E4710208E871020884
:1024500000720208994B1A89598909040A4300201D
:1024600010469A89D98909040A43002616461A8A11
:10247000598A09040A43002515469A8ADB8A1B04F7
:10248000134300241C4631462A46234600F016FB1F
:102490000346002B51D0894B07F14C0200921A8958
:1024A000598909040A43002010469A89D9890904E8
:1024B0000A43002616461A8A598A09040A43002547
:1024C00015469A8ADB8A1B04134300241C463146B6
:1024D0002A46234600F06CFB0346002B07D1784BBD
:1024E0005B69774A926F1146B8689847E1E007F157
:1024F000200007F14C030093724B734A282122F00D
:10250000DFFD6F4B5B6C07F120021146B8689847FE
:102510007B6862221A706A4BDC6C7868FDF7CAFE31
:1025200003461A467968B868A047654B5B69644AF8
:10253000926E1146B8689847BBE0614B5B695F21BA
:10254000B8689847B5E097F89E30002B00F0B1804E
:1025500007F14C030521184600F062F907F14C031E
:102560000521184600F05CFB0346002BF0D007F174
:10257000200007F14C030093524B534A282122F0CC
:102580009FFD07F120031846FDF794FE014607F171
:1025900020031A464D4822F07BFC3A6913465B0043
:1025A00013445B0130334A4A13441C1D07F14C03AA
:1025B0001846FDF77FFE024607F14C0319462046F8
:1025C00022F07DFE3E4B5B6C07F120021146B8689D
:1025D00098477B6861221A70394BDC6C7868FDF78C
:1025E00069FE03461A467968B868A0473A693849CF
:1025F00013465B0013445B010B442C3302221A6028
:102600002F4B5B692E4A926E1146B868984750E08E
:102610002A4B07F14C0200921A89598909040A438E
:10262000002010469A89D98909040A4300261646D3
:102630001A8A598A09040A43002515469A8ADB8AB0
:102640001B04134300241C4631462A46234600F04F
:10265000AFFA0346002B25D007F1200007F14C0309
:102660000093184B184A282122F02AFD07F1640232
:1026700007F1200311461846FDF712FE0346002B12
:1026800007D10F4B5B690E4AD26E1146B868984766
:102690000FE00B4B5B690A4AD2F888201146B868F4
:1026A000984706E0064B5B69054A926F1146B86889
:1026B0009847A037BD46BDE8F08100BFD8CF0020C5
:1026C000149A020860990208247202082C72020807
:1026D00048B3002084B090B583B000AF786007F1B4
:1026E0001C0080E80E002A4B1B68142B01D100232C
:1026F00047E0274B1A687B681A60254B1B6801333B
:10270000234A13607B681A682248234913465B00FA
:1027100013445B010B441C46014610231A46204615
:1027200022F0DBFA7B681A681B4913465B001344EE
:102730005B010B445C3301221A707B681A6897F8BE
:102740002A309BB21B0299B297F82B309BB20B44F4
:1027500098B2114913465B0013445B010B441033DC
:1027600002461A807B681B6819460C4822F090FBD1
:1027700007F11C03184611F0BDF80A2022F0A0FB57
:10278000012318460C37BD46BDE8904004B07047A1
:10279000D4050020E0CF002048B300205872020882
:1027A00090B587B000AF3C4684E80F0000237B6102
:1027B00016E07A6913465B0013445B010D4A9918D1
:1027C0003B461022184622F079FA0346002B04D12A
:1027D000BB6A7A691A60012308E07B6901337B6177
:1027E000054B1B687A699A42E3D3002318461C37CD
:1027F000BD4690BD48B30020D405002080B500AF91
:102800004FF4F0620021044822F08DFA034B0022BD
:102810001A6000BF80BD00BF48B30020D40500206F
:1028200080B586B000AF786039603E23FB603B68BE
:10283000002B02DB3B68142B05DD0522AB217868F9
:1028400022F071FA27E000237B6120E011F090FB79
:102850000346FA6893FBF2F2F96801FB02F29B1A55
:1028600030333B613B69392B02DD3B6907333B6108
:102870003B695A2B02DD3B6906333B617B697A6811
:1028800013443A69D2B21A707B6901337B617A6969
:102890003B689A42DADB1837BD4680BD80B588B008
:1028A00000AF786039600023FB617B68BB61002367
:1028B000FB7500233B612DE03C21B86922F0D4FC7C
:1028C000B861BB69002B04D03E21B86922F0CCFC72
:1028D000F861BB69002B02D0FB69002B02D10123F8
:1028E000FB7517E007F1080307F10C020D49B86901
:1028F00022F03CFC0346022B01D000230EE03B6992
:1029000001333B61FB69BB61FB68B9683A681846F3
:1029100000F00AF8FB7D002BCED03B69184620372B
:10292000BD4680BD9072020890B58DB002AFF860D0
:10293000B9607A6000237B6200233B6200233B6125
:1029400007F1140300221A605A60114619819A7225
:102950003C4B06221A6000237B626AE03A4A7B6A9B
:102960005B0113441A68FB689A425FD101233B6202
:10297000354A7B6A5B01134404331B6807F110007E
:102980000093BB68FA68314922F0CCFB2E4A7B6A7F
:102990005B01134409331B78012B02D0042B1AD09E
:1029A00033E007F110031A467968294822F070FADB
:1029B0007868254A7B6A5B01134408331C787B6A7C
:1029C0005B010833204A1344023307F11001224609
:1029D000FFF76EF82AE007F110031A4679681D48E0
:1029E00022F056FA7868184A7B6A5B011344083370
:1029F0001C787B6A5B010833134A1344023307F1E6
:102A000010012246FEF704FF10E040F23322124983
:102A1000124822F03DFA0C4A7B6A5B0113440933E9
:102A20001B7819460E4822F033FA07E07B6A01331F
:102A30007B62044B1B687A6A9A428FDB2C37BD4657
:102A400090BD00BFD8050020240000209872020825
:102A5000A4720208C8720208EC72020860730208CD
:102A60006873020890B587B000AF3C4684E80F0059
:102A700000237B6113E07A6913465B0013445B011A
:102A80000C4A99183B461022184622F017F90346C3
:102A9000002B01D1002308E07B6901337B61064BE9
:102AA0001B687A699A42E6D3012318461C37BD4653
:102AB00090BD00BF48B30020D405002090B587B07A
:102AC00000AF3C4684E80F0000237B6122E07A6976
:102AD00013465B0013445B01134A99183B461022CE
:102AE000184622F0EBF80346002B10D10E497A6904
:102AF00013465B0013445B010B442C331B6803F04B
:102B00000203002B01D001230AE0002308E07B69C7
:102B100001337B61054B1B687A699A42D7D3002346
:102B200018461C37BD4690BD48B30020D405002090
:102B300080B485B000AFF8600B467A60FB72FB682A
:102B4000002B2ADBFA68184B1B689A4225D21749DA
:102B5000FA6813465B0013445B010B442C331B687B
:102B600003F00203002B01D0002317E0FB7A002BB7
:102B700011D00E49FA6813465B0013445B010B4405
:102B800030331B6801217A6801FA02F21340002BEE
:102B900001D0002302E0012300E00023184614378F
:102BA000BD4680BC704700BFD405002048B300205C
:102BB00090B587B000AF3C4684E80F0000237B61EE
:102BC00020E07A6913465B0013445B01124A9918AE
:102BD0003B461022184622F071F80346002B0ED116
:102BE0007A6913465B0013445B0130330A4A13448D
:102BF00004331946B86A22F045FB012308E07B69DB
:102C000001337B61054B1B687A699A42D9D3002353
:102C100018461C37BD4690BD48B30020D40500209F
:102C200080B584B000AF786039600023FB6015E0A8
:102C3000FA6813465B0013445B0130330C4A1344BB
:102C400004333A687968184622F038F80346002BB6
:102C500001D1002308E0FB680133FB60054B1B68D2
:102C6000FA689A42E4D3012318461037BD4680BD66
:102C700048B30020D405002080B58CB000AFF860C8
:102C8000B9601346FB710023FB620023FB61002344
:102C9000BB6100237B6100233B61FB68002B08D1F3
:102CA00096226B496B4822F0F3F86B4822F076F9D4
:102CB000CAE0BB68002B17D007F11C031946B8689F
:102CC00014F014FFF862FB79042B00F2BD8001A21E
:102CD00052F823F0FB2C0008FB2C0008092E0008FA
:102CE0001B2E00082D2E00089D225949594822F01C
:102CF000CFF85A4822F052F9A6E0FB68181DFB688D
:102D00009B6907F110021946FFF72CF80346002BC8
:102D10000ED1534822F042F9FB680433184610F0F4
:102D2000E9FDFB689B6919464E4822F0B1F88BE03B
:102D30003B694D4A582101FB03F313442C33022213
:102D40001A6007F118031946B86814F011FCBB6942
:102D500042F61652934239D1F969FA6A07F1200313
:102D6000184611F0B1FB0346002B6CD03B693E4A7C
:102D7000582101FB03F3134410331B68012B02D0CD
:102D8000022B11D03FE007F12003184611F0FEFBA3
:102D900003467B613B697A693349582000FB03F3A2
:102DA0000B4418331A602EE007F1140107F12003D9
:102DB0000A22184611F00AFC3B697A692A49582010
:102DC00000FB03F30B4418331A601CE0BB6940F2AC
:102DD0000562934237D13B69234A582101FB03F333
:102DE000134410331B68032B00D00CE03B695822BE
:102DF00002FB03F318331C4A1344FA6911461846C0
:102E000022F040FA00BF1EE0FB691A46F96A174833
:102E100022F03EF80023FB6016E0FB691A46F96ACF
:102E2000134822F035F80023FB600DE0FB685B7F60
:102E30001946FB689B7F1A460E4822F029F80023AA
:102E4000FB6000BF00E000BF3037BD4680BD00BF63
:102E5000BC73020828740208307402085C7402080B
:102E60009C740208CC74020878890020D874020887
:102E7000F47402081075020880B58EB000AF786057
:102E80000023FB620023BB6107F11C0300221A60D0
:102E90005A609A60DA6000237B6107F130031946BB
:102EA000786814F023FE786307F12C0319467868DC
:102EB00014F05EFB7B6B002B6FDDFB6A42F6165253
:102EC00093423DD1396B7A6B07F10803184611F034
:102ED000FBFA0346002B60D0324B1B68324A582164
:102EE00001FB03F3134410331B68012B02D0022BA8
:102EF00012D052E007F10803184611F047FB0346D1
:102F00007B61284B1B687A692749582000FB03F333
:102F10000B4418331A6040E007F1140107F108036D
:102F20000A22184611F052FB1E4B1B687A691E4993
:102F3000582000FB03F30B4418331A6000BF2CE049
:102F4000FB6A40F20562934227D1164B1B68164A72
:102F5000582101FB03F3134410331B68032B1CD1CE
:102F600007F1180314220021184621F0DCFE396B0A
:102F70007A6B07F11803184622F0A1F9094B1B6878
:102F8000582202FB03F31833074A134407F11802CF
:102F90001146184622F076F9FFE700BF3837BD46E4
:102FA00080BD00BFE0050020A89E002080B58EB047
:102FB00000AF78600023BB6107F11C0300221A6098
:102FC0005A609A60DA6000237B6107F1300319468A
:102FD000786814F08BFD7863604B1B78022B0CD95A
:102FE00040F229125E495F4821F052FF5B4B1B788B
:102FF000022219465C4821F04BFF07F12C031946C9
:10300000786814F0B5FA7B6B002B40F3A280FB6A62
:1030100042F6165293426DD1396B7A6B07F1080371
:10302000184611F051FA0346002B00F092804B4BEA
:103030001B7819464D4A0B465B000B441B01134499
:1030400010331B68022B13D0032B22D0012B3BD152
:1030500007F10803184611F099FA03467B613F4BCC
:103060001B7807F1140211461846FEF7AFFF70E017
:1030700007F1140107F108030A22184611F0A6FA15
:10308000364B1B7807F1140211461846FEF79EFFD7
:103090005FE03969FB68142B28BF14231A4607F137
:1030A0001803184621F019FEFB6807F13802134493
:1030B000002203F8202C294B1B7807F11802114637
:1030C0001846FEF783FF44E040F2431224492548A6
:1030D00021F0DEFE214B1B781946244A0B465B008B
:1030E0000B441B01134410331B681946204821F080
:1030F000CFFE2EE0FB6A40F20562934223D1174BCC
:103100001B781946194A0B465B000B441B011344FC
:1031100010331B68032B1CD107F118031422002164
:10312000184621F000FE396B7A6B07F11803184638
:1031300022F0C5F8094B1B7807F118021146184612
:10314000FEF744FF05E0FB6A19460A4821F0A0FE9D
:10315000FFE700BF3837BD4680BD00BFE405002053
:10316000BC7302082874020858750208189E0020D3
:103170008C750208B075020880B483B000AF786027
:103180007B689B79442B01D0862B00E000BF00BFF9
:103190000C37BD4680BC704780B483B000AF786008
:1031A0007B689B79442B00BF00BF0C37BD4680BCB9
:1031B000704700BF80B588B000AF3B461946354820
:1031C00010F08AFC0346002B03D13249324821F02B
:1031D0005FFE3B460322002118460EF059F93B469C
:1031E00018460EF00BFAB861BB69002B1CD03B46A9
:1031F00019461E2005F0AEFB78614AF6AA233B80F3
:1032000000237B800023BB800023FB8000233B81C5
:1032100000237B810023BB810023FB813B464022AE
:103220001946786905F038FD1C4821F0B7FE0023E7
:10323000FB6128E01A4AFB695B0113442A331B78BF
:10324000FB74FB7C002B02D0FB7C012B18D1FB69AB
:103250005B011833124A13440233184610F04AFB3C
:103260000A2021F02DFE0A2021F02AFEFB7C002BF3
:1032700006D10B4AFB695B0113442A3301221A7001
:10328000FB690133FB61FB69022BD3DD00BF2037F3
:10329000BD4680BDDC750208EC7502083476020874
:1032A0005CCE002080B588B002AFF8600B467A6033
:1032B000FB720123FB75FB681B88B3F5ED7F1BD008
:1032C000B3F5ED7F02DC002B09D00BE140F2ED12EB
:1032D000934234D0B3F5067F00F0E08002E1864BE4
:1032E0001B6800228521184605F004F80023FB75B1
:1032F000FB684FF4ED721A80FB7D002B02D0FB7A45
:10330000852B01D00123F3E011F0DAFFFFF752FF24
:103310007A4B5B690120984710F016FF784979488D
:1033200010F038FF00E000BF4FF47A61764804F0F7
:1033300097FD0023FB75FB6840F2ED121A80FB7DC0
:10334000002B01D10123D3E06F4804F0BBFD0346FD
:10335000002BE8D06D4B00221A606EE06B4B1B68AF
:103360006B4A582101FB03F313442C331B6803F011
:103370000103002B25D0654B1B68654A582101FBD2
:1033800003F3134444331B78012B51D15F4B1B686B
:10339000582202FB03F340335D4A1344981D5B4BF4
:1033A0001B68582202FB03F3594A1A440023009376
:1033B000584B43F2163112F0A5FA0246564B1A60EA
:1033C00036E0524B1B68524A582101FB03F3134469
:1033D0002C331B6803F00203002B29D04B4B1B68D6
:1033E0004B4A582101FB03F3134444331B78002B51
:1033F0001ED1464B1B68582202FB03F34033444A5C
:103400001344981D414B1B68582202FB03F3404AAA
:1034100013441A4643F2163112F048F93B4B1B682D
:103420003B4A582101FB03F313442C3300221A605A
:10343000364B1B680133354A1360344B1A68374BDF
:103440001B689A428AD3364B00221A6043E0344B01
:103450001B68344A582101FB03F3134444331B789F
:10346000012B33D10023012200212F4813F06CFAE5
:103470002B4B1B68582202FB03F32A4A13441946BC
:10348000294814F081F9264B1B68284A1360284B01
:1034900000221A80FB684FF406721A80204B1B68CA
:1034A000582202FB03F340331E4A13449A1DF97A53
:1034B000204B01931C4B009343F216331C4811F030
:1034C00081FF0346012B01D8002311E0144B1B6838
:1034D0000133134A1360124B1A68174B1B689A4248
:1034E000B5D320E70023FB75FB6800221A80032375
:1034F00018461837BD4680BDDC0B00209C99020899
:103500004876020800000020100600202006002057
:1035100078890020792C0008DC050020C8050020EF
:1035200024060020A89E002028060020E005002098
:10353000CC060020792E0008CC05002080B598B07C
:1035400002AFF8600B467A60FB72012387F85730B0
:10355000FB681B8840F29122934200F09C8140F26C
:103560009122934206DC002B0FD040F23922934285
:1035700038D0C1E240F29A22934200F0068240F233
:10358000A222934200F04482B6E24FF0FF337B6404
:1035900000233B6307F1340300221A605A609A60EB
:1035A000DA600023FB6107F1200300221A605A60F1
:1035B0009A60DA6000233B6107F1140300221A606D
:1035C0009A80052387F856304FF0FF333B65002380
:1035D000BB6400E000BF002387F85730FB6840F26F
:1035E00039221A8097F85730002B02D0FB7A822BB1
:1035F00001D0012387E2B349B34821F049FCB14827
:10360000FCF758FE03461A46AE49B04811F0B4F92B
:1036100008E17B6C4E2B40F0F180AD49AB4811F0D6
:10362000CFFB0346002B0AD1002387F85630A7486A
:1036300011F0C2F9A54811F0ABFB3865F2E0A549DD
:10364000A24811F0BDFB0346002B14D1012387F8DB
:1036500056309E4811F0B0F907F11C0314220021E6
:10366000184621F060FB07F11C0314221946974805
:1036700011F0E2FAD6E09849944811F0A1FB034614
:10368000002B6ED1022387F85630904811F094F940
:1036900007F1300314220021184621F044FB07F102
:1036A000300314221946894811F0C6FA07F1300395
:1036B0008A491846FCF7F4FD0346002B03D100238A
:1036C00087F84F30AEE007F1300385491846FCF724
:1036D000E7FD0346002B03D1012387F84F30A1E01B
:1036E00007F130037F491846FCF7DAFD0346002B4B
:1036F00003D1022387F84F3094E007F130037A4971
:103700001846FCF7CDFD0346002B03D1042387F8B0
:103710004F3087E007F1300374491846FCF7C0FDCD
:103720000346002B03D1032387F84F307AE007F1DB
:1037300030036F491846FCF7B3FD0346002B03D155
:10374000052387F84F306DE007F1300369491846CB
:10375000FCF7A6FD0346002B64D1062387F84F3003
:1037600060E06549594811F02BFB0346002B3AD124
:10377000032387F85630554811F01EF907F130033E
:1037800014220021184621F0CEFA07F1300314224A
:1037900019464E4811F050FA07F1300357491846C0
:1037A000FCF77EFD0346002B03D1554B01221A7016
:1037B00038E007F1300353491846FCF771FD034622
:1037C000002B03D14E4B02221A702BE007F130037D
:1037D0004D491846FCF764FD0346002B22D1484BA7
:1037E00003221A701EE04949384811F0E9FA0346ED
:1037F000002B17D1042387F8563013E07B6C302B55
:1038000010D197F85630002B04D1304811F0C0FA8F
:10381000386507E097F85630042B03D12B4811F098
:10382000B7FAB864294811F0C7F878647B6C002BAC
:103830007FF4EFAE3B6D002BFFF6CCAE3A6D344B10
:103840001B689A42BFF4C6AE97F84F30002B6BD17D
:103850003B6D07F11C0102221846FEF763FB03468D
:103860001A462C4B1A700023012200212A4813F01B
:103870006BF842F61651284813F094FE07F11C032A
:103880001946254813F080FF244B00221A80FB685C
:1038900040F291221A803A6D13465B0013445B019B
:1038A0001F4A1A44F97A1F4B01931B4B009343F2B2
:1038B00016331A4811F086FD0346012B3FF68AAEF7
:1038C000002320E1C00700204C760208E805002014
:1038D0007076020878760208807602088C760208F4
:1038E000947602089C760208A4760208AC76020858
:1038F000B4760208BC760208C4760208CC760208C8
:103900000C060020D0760208D8760208E07602087D
:10391000D4050020E4050020E006002084070020F4
:1039200048B30020AD2F000897F84F30012B43D14A
:10393000002303220021764813F006F807F11C0348
:103940001946734813F020FF07F110030A220021E3
:10395000184621F0E8F907F11003BA6C6D491846D2
:1039600021F0E0FB40F20561694813F01BFE07F10E
:1039700010030A221946664814F0D6F8664B002256
:103980001A80FB6840F29A221A803A6D13465B0057
:1039900013445B01614A1A44F97A614B01935C4B11
:1039A000009343F216335C4811F00CFD0346012BE3
:1039B0003FF610AE0023A6E097F84F30022B3ED121
:1039C000002302220021524812F0BEFF07F11C031F
:1039D00019464F4813F0D8FE07F110030A220021C0
:1039E000184621F0A0F907F11003BA6C49491846AE
:1039F00021F098FB07F110030A221946444814F0FD
:103A000093F8484B00221A80FB6840F2A2221A80E9
:103A10003A6D13465B0013445B01404A1A44F97A3D
:103A2000414B01933A4B009343F216333D4811F05A
:103A3000C9FC0346012B3FF6CDAD002363E097F8A8
:103A40004F30042B11D13B6D07F11C021146184673
:103A5000FEF74AF90346002B7FF4BCAD07F11C03C7
:103A60001946324821F014FAB4E597F84F30032B89
:103A700013D1386D2E4B1A7807F11C0307F11C0186
:103A8000FEF716F80346002B7FF4A4AD07F11C03E4
:103A90001946284821F0FCF99CE597F84F30052B92
:103AA00013D1386D224B1A7807F11C0307F11C0162
:103AB000FDF7AEFE0346002B7FF48CAD07F11C032F
:103AC00019461D4821F0E4F984E597F84F30062B9C
:103AD0007FF480AD3B6D07F11C0211461846FDF7DF
:103AE000A9FF0346002B7FF475AD07F11C031946AF
:103AF000124821F0CDF96DE5002387F85730FB68B7
:103B000000221A80032318465837BD4680BD00BFE7
:103B1000E0060020E87602089807002048B300205D
:103B200079310008AC07002099310008EC760208D2
:103B30000C0600202C77020868770208A477020898
:103B4000F0B58BB004AF0023BB600023FB60002303
:103B50003B610023FB71FDF7E3FD19F0DDFEFDF78E
:103B600083FD1EF02FF819F05BFF00201EF00CFD06
:103B700000201EF0E7F9002100201EF063FD1EF07A
:103B8000C7F84FF4E1301EF0F3F800F06FFF4FF488
:103B9000E131374800F03AFF354818F05BFD354811
:103BA00021F0FCF9344821F0F9F9344821F0F6F914
:103BB000334821F0F3F9334821F0F0F92E4821F091
:103BC000EDF9314821F0EAF919F020FF03461C0E07
:103BD00019F01CFF03461B0CDDB219F017FF03465A
:103BE0001B0ADEB219F012FF0346DBB2274A02922B
:103BF000274A0192009333462A462146254821F060
:103C000047F907F10803184619F018FFB968FA6870
:103C10003B69214821F03CF9FB1D184600F046FAAB
:103C200000F0D8FAFDF7C6FCFDF7EAFCFDF7C4FD8D
:103C3000FEF7E4FD18F052FE184821F0AFF9142108
:103C4000174821F025F93C21164821F021F93C21A3
:103C5000154821F01DF90021144804F0A5F90023AE
:103C60007B6104F02FFB78617B69002BF9DCF6E7C0
:103C700088C90020F47702083478020870780208B6
:103C8000AC780208E87802082479020898790208DA
:103C9000A479020860790208B0790208D079020894
:103CA000F8790208087A0208187A0208040100204C
:103CB00080B586B000AFF8600B467A60FB720123D6
:103CC000FB75FB681B88002B03D0B3F5987F0FD0E2
:103CD0001FE00023BB7500E000BF4FF47A7112486B
:103CE00004F0BEF80023FB75FB684FF498721A804D
:103CF000FB7D002B01D1012311E00B4804F0E2F819
:103D00000346002BE8D007F11603184600F00EF822
:103D1000E2E70023FB75FB6800221A8003231846A4
:103D20001837BD4680BD00BF9408002080B588B01C
:103D300004AF78600023FB73B34B1B780C2B00F2AD
:103D40005C8101A252F823F0FB3F00087D3D000892
:103D5000DF3F0008233E0008FB3F00083F3E00080D
:103D6000FB3F0008FB3F0008473E0008FB3F000800
:103D7000AF3E0008393F0008733F00082021A348E8
:103D800014F06CFA03461A467B681A707B681B783D
:103D9000002B3FD10023FB7329E0FB7B2C2202FB8D
:103DA00003F30833994A13449949184621F09AFAC3
:103DB0000346002B18D0974821F0F0F8964B0122CB
:103DC0001A70964B1B781A469549914814F094FA4C
:103DD00003461A467B681A707B681B78002B0AD052
:103DE000904821F0DBF806E0FB7B0133FB73FB7BA3
:103DF0001F2BD2D900E000BF874B1B78002B02D1CC
:103E0000894821F0CBF84FF4B06200217F4820F0C0
:103E10008AFF02E0854821F0C1F87B4B02221A702C
:103E2000EEE04FF4FA6019F0D3FD814821F0B6F8C6
:103E3000012014F0CFFA744B02221A70E0E0724BAA
:103E400000221A70DCE07B4BD3F864217A4B7B496B
:103E50007B4802F021F80346002B12DA794821F062
:103E60009DF8764821F014F8774821F097F87248C9
:103E700021F00EF8744821F091F8634B08221A7073
:103E8000BEE04FF400730293704B01934FF4007344
:103E900000936F4B4FF47A6269496E4803F014F84F
:103EA000594B0A221A706C4821F078F8A8E06B4848
:103EB00021F074F86A4B03221A72694B694ADA607E
:103EC000674B694A1A64664B684ADA646449614818
:103ED00003F02AFB0346002B06DA654821F05EF862
:103EE000494B0A221A7011E0524B93F86931002BAA
:103EF00006D1604821F052F8434B0C221A7005E0BD
:103F00005D4821F04BF8404B0B221A7040F2DC5018
:103F100019F05EFD07F108031946584816F058F8E5
:103F200007F10803184620F0C9FC0346DBB2194626
:103F3000534820F0ADFF63E03E4B93F8A020514B77
:103F40005149444803F088FB0346002B03DA4F48ED
:103F500021F024F805E04E4821F020F84A4820F0EE
:103F600097FF40F2DC5019F033FD274B0C221A70FA
:103F700046E0484800F0A8F9474B00221A70464B2B
:103F800000229A70444B01225A70434B414A9A6076
:103F90004048FCF78FF902463F4BDA603D493F4805
:103FA00020F076FF3C4A23492A4803F00DFC0346E3
:103FB000002B06DA3A4820F0F1FF134B0A221A7060
:103FC0001DE01C4B93F86931012B18D1354820F0C6
:103FD000E5FF4FF4FA611F4803F056FA0FE02E2078
:103FE00020F06EFF304B1B689B68184620F01CFDCC
:103FF0004FF4FA7019F0ECFC02E000BF00E000BFE3
:1040000000BF1037BD4680BD44C20020A4C30020BD
:104010004CCA0020287A02086A0900206C0100209E
:1040200078CA0020547A0208887A0208A47A020822
:10403000BC7A0208D8BE002040C00020B9BF0020D2
:10404000C8BC0020D07A0208407B0208D8BC0020FF
:10405000C8BA002048C20020447B0208707B0208D6
:104060001401002038BF002079BF002099BF002034
:10407000807B0208F47B0208507C0208D47C020892
:10408000E47C0208E544000808BF0020FC7C02082C
:10409000507D020844C0002078C90020707D0208CD
:1040A000907D0208D47D02083C04002090B583B0C6
:1040B00000AF7860374B00225A70364B02229A705C
:1040C000344B0122DA70334B00221A70314B01223B
:1040D0001A76314B02221A70304820F0D9FE30484F
:1040E00020F05CFF2F4B1B689B68184620F09CFC5F
:1040F000284813F035FD03461A467B681A707B6822
:104100001B78002B03D0284820F0C2FE3FE001F0CE
:10411000F7FC264B1B68002B26D0254B1B68002B79
:1041200022D0244820F0B4FE204B1C681F4B1B6893
:104130001846FCF7BFF803461A4621461E4820F0F1
:10414000CCFD1B4B1C681A4B1B681846FCF7B2F8D9
:1041500003461A462146194820F0BFFD042218499B
:10416000184820F0BAFD12E0174820F091FE40F602
:10417000B83019F02DFC01F0DFFB0346002B03DA09
:10418000124820F085FE02E0114820F081FE0C3735
:10419000BD4690BDDCC9002044C200200C7E020850
:1041A000407B02083C040020307E02088808002082
:1041B0008C080020407E02084CCA002078CA0020EB
:1041C0006C7E02086CCA0020747E0208AC7E020875
:1041D000CC7E020880B500AF104801F0EBFEFDF781
:1041E00047F90F4800F024F90D490E48FDF746F84D
:1041F0000B490D48FDF71AF80C4820F049FE0A4813
:1042000020F046FE0A4820F0C9FE094820F0C6FE0C
:10421000C82019F0DDFB00BF80BD00BFC8BC002076
:10422000C8C90020D8BE002028C90020E07E0208AE
:10423000407B020880B500AF034820F0AFFE034B7F
:1042400001221A7000BF80BD087F020844C200200E
:1042500080B400AF034B08221A7000BFBD4680BC7B
:10426000704700BF44C2002080B500AF024820F074
:1042700095FE00BF80BD00BF287F020880B582B0D8
:1042800000AF0346FB71054820F088FE044B012275
:104290001A7000BF0837BD4680BD00BF587F0208B6
:1042A00044C2002080B582B000AF7860044820F09E
:1042B00075FE044B08221A7000BF0837BD4680BD4A
:1042C000987F020844C2002090B591B000AF78609A
:1042D0000023FB63002387F83B304E4B1B687B6356
:1042E00007F10C0328220021184620F01CFD4FF492
:1042F00000720021786820F016FD7B68464A184657
:1043000011461D231A4620F0E8FC444B93F869310E
:10431000012B58D1424820F041FE07F10C0318460A
:1043200000F080F90346002B4DD007F10C0318462E
:10433000FBF7C0FF04467868FBF7BCFF0346C3F1F8
:1043400001039C423FD207F10C031946786820F024
:104350007CFF7868FBF7AEFF03461A467B68134480
:10436000304A1846114603231A4620F0B6FC4EE0A8
:104370002D4B1B783B7307F10C03184600F020FA15
:104380000346002B27D0FB6B0133FB6307F10C03C3
:104390001846FBF78FFF04467868FBF78BFF034650
:1043A000C3F101039C4206D207F10C031946786859
:1043B00020F04BFF02E0012387F83B30154B1B68D0
:1043C0007A6B9A4209D0FB6B092B07D897F83B30E0
:1043D000002BCDD002E000BF00E000BFFB6B002B44
:1043E0000ED07868FBF766FF03461A467B681344D5
:1043F0000C4A1846114603231A4620F06EFC06E0CC
:104400000A4820F0CBFD7B6800221A7000BF4437B9
:10441000BD4690BD90080020EC7F0208D8BE002069
:104420000C80020824800208288002082C800208E0
:1044300090B595B000AF78600023FB6007F11003E2
:104440003C220021184620F06EFC07F10C031946AF
:10445000224815F0BDFD00237B7707F10C031946B8
:104460001F4820F015FD0023A7F84E300023A7F8C1
:104470004C301EE0B7F84E3007F15002134413F8E9
:10448000443C3A2B10D0B7F84C307A681344B7F854
:104490004E2007F150010A4412F8442C1A70B7F864
:1044A0004C300133A7F84C30B7F84E300133A7F841
:1044B0004E30B7F84E4007F10C031846FBF7FAFEF2
:1044C00003469C42D6D3B7F84C307A681344002296
:1044D0001A7000BF5437BD4690BD00BF5C80020813
:1044E0006C80020880B584B000AF78607B681B6880
:1044F000FB60134820F052FDFB689B68184620F0D3
:10450000C7FC104820F04AFDC82200210E4820F0C8
:104510000AFCFB689968FB68DB681A460A4820F0C9
:10452000CEFEFB689868FB68DB681A46002120F025
:10453000FAFB064803F04AFF00BF1037BD4680BDB6
:1045400094800208BC800208C0070020F40000200C
:1045500090B587B000AFF860B9607A603B60F868EA
:10456000FCF702F84FF000022D4BFCF78DF90346E3
:104570000C46C7E90434BB6800221A704FF00002F1
:104580004FF00003D7E90401FCF7C6FA0346002BFD
:1045900002D0BB6801221A70D7E90401FCF7E4FAE3
:1045A00002467B681A607B681B681846FBF7DCFFD5
:1045B00003460C461A462346D7E90401FBF786FE5C
:1045C00003460C46C7E904344FF000024FF00003E5
:1045D000D7E90401FCF7A0FA0346002B05D03B699C
:1045E0003B617B6983F000437B61B86AFBF7BCFFEA
:1045F000D7E90423FCF71EF803460C46184621466B
:1046000022F002FC03460C4618462146FCF7D4FA79
:1046100002463B681A6000BF1C37BD4690BD00BF14
:104620000000904090B597B002AF78600023FB6423
:1046300000237B6107F118032E220021184620F089
:1046400072FB0023BB6400233B610023FB6000235B
:10465000FB720023FB6497E05049FA6C13465B0041
:1046600013441B010B442C331B68032B40F089803F
:10467000FA6C13465B0013441B01484A1344BB64A5
:10468000BB6C002B08D140F2DF224549454820F0A1
:10469000FFFB454820F082FCBC6CBB6C1846FBF766
:1046A00009FE024607F114032146184620F007FED2
:1046B000BB6C1B69022B10D0032B3CD0012B47D1C4
:1046C000BB6C5969BB6C9B6907F1140200930B46E4
:1046D0003649786820F026FD47E0BB6C986907F101
:1046E0000C0407F1100207F10B0164230093234629
:1046F000FFF72EFF3B69002B02D1FB7A002B0ED176
:10470000BB6C58693B69FA6807F114010192009388
:1047100003460A462649786820F004FD25E0BB6C74
:104720005969FB6807F1140200930B462149786828
:1047300020F0F8FC19E0BB6C5969BB6C183307F129
:10474000140200930B461C49786820F0EBFC0CE047
:104750004FF43D721249134820F09AFBBB6C1B6961
:104760001946164820F094FB00BF0C49FA6C13461A
:104770005B0013441B010B442C3300221A600123FD
:1047800007E0FB6C0133FB64FB6C022B7FF764AF2B
:10479000002318465437BD4690BD00BF189E002028
:1047A000C08002082081020828810208588102087E
:1047B0006C81020888810208A0810208B481020885
:1047C00090B599B002AF7860002387F85730002386
:1047D0007B6400233B64002387F83F300023FB64A5
:1047E0000023BB6400233B650023FB6007F110033B
:1047F0002E220021184620F096FA07F10C033222EF
:104800000021184620F08FFA734B1B68002B05D14E
:10481000724B1B68002B01D10023D9E0704B1B6841
:10482000BB6458E06E4B1A686B4B1B689A4217D2F8
:104830006B4B1B68FB646B4AFB6C582101FB03F359
:10484000134444331B78002B29D0FB6C582202FB05
:1048500003F3644A13443B65012387F857301EE095
:104860005F4B1A685C4B1B68D31AFB645B4B1B687D
:10487000FA6C9A4213D25C4AFB6C582101FB03F399
:10488000134444331B78002B09D0FB6C582202FBE5
:1048900003F3554A13443B65012387F85730504BC7
:1048A0001B6801334E4A13604C4B1A684A4B1B6815
:1048B0001A444B4B1B689A4202D1494B00221A60A2
:1048C000474B1A68BB6C9A4205D197F85730002BBA
:1048D00001D100237CE097F85730002BA2D03B6D2C
:1048E000002B0AD14FF44D724049414820F0D0FAD4
:1048F000404820F053FB00236AE03B6D03F1300495
:104900003B6D30331846FBF7D5FC024607F10C032C
:104910002146184620F0D3FC3B6D1B69022B10D0BA
:10492000032B3DD0012B48D13B6D59693B6D9B69F1
:1049300007F10C0200930B462F49786820F0F2FB38
:1049400045E03B6D986907F1400407F1440207F127
:104950003F01642300932346FFF7FAFD7B6C002B95
:1049600003D197F83F30002B0ED13B6D58697B6C1B
:104970003A6C07F10C010192009303460A461F4965
:10498000786820F0CFFB22E03B6D59693B6C07F162
:104990000C0200930B461A49786820F0C3FB16E01E
:1049A0003B6D59693B6D183307F10C0200930B46C0
:1049B0001449786820F0B6FB09E04FF454720B49B3
:1049C0000B4820F065FA104820F0E8FA00BF0123F8
:1049D00018465C37BD4690BDCC050020C8050020B8
:1049E00090080020A89E002078890020C08002083E
:1049F00020810208DC810208588102086C810208CB
:104A000088810208A08102080082020880B582B075
:104A100000AF786039607B68134A1A607B683A6837
:104A20005A607B6800229A607B680022DA607B68AB
:104A300000221A617B6800229A617B680C225A610D
:104A400078681CF069FA0346002B01D015F0ECF9E8
:104A500078681CF013FA0346002B01D015F0E4F936
:104A600000BF0837BD4680BD0044004080B58AB015
:104A700000AF00233B612C4A2B4B1B6B43F001031F
:104A80001363294B1B6B03F001033B613B6900235C
:104A9000FB60254A244B1B6B43F001031363224B3D
:104AA0001B6B03F00103FB60FB680023BB601E4A25
:104AB0001D4B1B6C43F4003313641B4B1B6C03F442
:104AC0000033BB60BB6800237B60174A164B5B6CEE
:104AD00043F480435364144B5B6C03F480437B606A
:104AE0007B6804237B610223BB610123FB610323F9
:104AF0003B6207237B6207F1140319460B4819F048
:104B000061FD08237B610023BB610223BB61072396
:104B10007B6207F114031946044819F053FD00BFE6
:104B20002837BD4680BD00BF00380240000002406B
:104B300080B596B000AF78607B681B68404A9342AE
:104B400040F086800023FB633E4A3E4B1B6B43F0E4
:104B5000020313633B4B1B6B03F00203FB63FB6B12
:104B60000023BB63374A374B1B6B43F001031363CE
:104B7000344B1B6B03F00103BB63BB6B00237B63F4
:104B8000304A304B1B6B43F0010313632D4B1B6BFF
:104B900003F001037B637B6B02237B640123BB6413
:104BA0000323FB6405233B6508233B6407F14003B3
:104BB0001946254819F006FD02237B640223BB64D5
:104BC0000323FB6405233B6540233B6407F140035B
:104BD00019461E4819F0F6FC80233B6407F1400398
:104BE00019461A4819F0EEFC00233B63154A154B91
:104BF0001B6B43F002031363124B1B6B03F00203A6
:104C00003B633B6B40233B6401237B640123BB6418
:104C10000323FB6407F1400319460B4819F0D2FC4B
:104C20000023FB62074A074B5B6C43F480535364D9
:104C3000044B5B6C03F48053FB62FB6A72E100BFC0
:104C400000300140003802400004024000000240F1
:104C50007B681B68A54A934240F064810023BB62D5
:104C6000A34AA34B1B6B43F001031363A04B1B6BC5
:104C700003F00103BB62BB6A00237B629C4A9C4B2E
:104C80001B6B43F001031363994B1B6B03F0010390
:104C90007B627B6A00233B62954A954B1B6B43F01A
:104CA00001031363924B1B6B03F001033B623B6AEE
:104CB0000023FB618E4A8E4B1B6B43F00103136391
:104CC0008B4B1B6B03F00103FB61FB690023BB6192
:104CD000874A874B1B6B43F004031363844B1B6BA6
:104CE00003F00403BB61BB6900237B61804A804BF6
:104CF0001B6B43F0040313637D4B1B6B03F0040336
:104D00007B617B6900233B61794A794B5B6C43F49F
:104D100080535364764B5B6C03F480533B613B6977
:104D20004FF480733B6401237B640123BB64002345
:104D3000FB6400233B6507F1400319466D4819F0F9
:104D400041FC20233B6402237B640223BB640223D7
:104D5000FB6405233B6507F140031946654819F0DC
:104D600031FC40233B6402237B640023BB640223A9
:104D7000FB6405233B6507F1400319465D4819F0C4
:104D800021FC80233B6402237B640023BB64022359
:104D9000FB6405233B6507F140031946554819F0AC
:104DA00011FC02233B6401237B640123BB640223C7
:104DB000FB6400233B6507F1400319464E4819F098
:104DC00001FC012202214C4819F078FE80233B644B
:104DD0004A4B7B640123BB640223FB6400233B65D5
:104DE00007F140031946444819F0ECFB0023FB602F
:104DF0003F4A3F4B1B6B43F4800313633C4B1B6BDD
:104E000003F48003FB60FB683D4B4FF0C0625A60C7
:104E10003B4B40229A603A4B0022DA60384B4FF409
:104E200080621A61364B00225A61354B00229A612A
:104E3000334B0022DA61324B4FF400321A62304BAE
:104E4000304A1A602E4818F063FF7B681B680C33E9
:104E50007B652B4B1B687A6D9A607B68284A9A6445
:104E6000274A7B689363284B4FF0C0625A60264BF9
:104E700000229A60244B0022DA60234B4FF48062B8
:104E80001A61214B00225A611F4B00229A611E4B6E
:104E90000022DA611C4B4FF400321A621A4B1B4A93
:104EA0001A60194818F034FF7B681B680C337B6567
:104EB000154B1B687A6D9A607B68134ADA64124A54
:104EC0007B689363002201213B2018F0C1FE3B2048
:104ED00018F0DAFE00220121382018F0B9FE38203F
:104EE00018F0D2FE00220121232011E00030014001
:104EF000003802400000024000080240000021107B
:104F0000A4080020586402400409002010640240F4
:104F100018F09EFE232018F0B7FE00220221172071
:104F200018F096FE00BF5837BD4680BD80B58CB0E6
:104F300000AF78607B68374A934267D10023BB613A
:104F4000354A354B1B6B43F001031363324B1B6B2C
:104F500003F00103BB61BB6900237B612E4A2E4B2A
:104F60001B6B43F0020313632B4B1B6B03F0020319
:104F70007B617B6900233B61274A274B5B6C43F0D5
:104F800010035364244B5B6C03F010033B613B69DB
:104F90000023FB60204A204B5B6C43F48043536446
:104FA0001D4B5B6C03F48043FB60FB684FF40073A4
:104FB000FB6102233B6200237B620723FB62032326
:104FC000BB6207F11C031946144819F0FBFA802351
:104FD000FB610723FB6207F11C031946104819F017
:104FE000F1FA4FF48053FB6101237B620723FB62DC
:104FF00007F11C031946094819F0E4FA00220321BD
:10500000252018F025FE252018F03EFE00BF303781
:10501000BD4680BDECD800200038024000000240B0
:105020000004024080B582B000AF78607B680F4A10
:10503000934217D10E4A0E4B5B6A43F01003536242
:105040000B4A0B4B5B6A23F0100353624FF4007161
:10505000084819F039FC8021074819F035FC252053
:1050600018F020FE00BF0837BD4680BDECD80020F8
:1050700000380240000002400004024080B586B0C3
:1050800000AF78607B681B68274A934216D10023E3
:105090007B61264A254B1B6C43F008031364234BAA
:1050A0001B6C03F008037B617B6900220021322026
:1050B00018F0CEFD322018F0E7FD30E07B681C4A86
:1050C000934216D100233B61184A184B1B6C43F0E6
:1050D00001031364154B1B6C03F001033B613B6937
:1050E000002203211C2018F0B3FD1C2018F0CCFD79
:1050F00015E00023FB600D4A0C4B1B6C43F00203D0
:1051000013640A4B1B6C03F00203FB60FB68002274
:1051100003211D2018F09CFD1D2018F0B5FD00BFD7
:105120001837BD4680BD00BF000C0040003802406B
:1051300010CA002080B594B000AF78600C233B62A9
:105140000023BB6301237B630023BB6207F12003C1
:10515000184619F0DDFC0346002B01D0FCF722FBBA
:105160000223FB604FF40073BB6107F10C03184688
:105170001AF036F90346002B01D0FCF713FB074B5E
:1051800001221A6000220F21022018F061FD022086
:1051900018F07AFD00BF5037BD4680BD3C0E474237
:1051A00080B400AF00BFBD4680BC704780B500AF83
:1051B00000201DF01FFAFBE780B500AF00201DF0B6
:1051C00019FAFBE780B500AF00201DF013FAFBE7EA
:1051D00080B500AF00201DF00DFAFBE780B500AFF1
:1051E00000201DF007FA00BF80BD00BF80B500AFF2
:1051F00000201DF0FFF900BF80BD00BF80B400AFEC
:1052000000BFBD4680BC704780B500AF02481BF0B0
:10521000F5F800BF80BD00BF30E5002080B500AFCD
:1052200002481BF0EBF800BF80BD00BF10CA002091
:1052300080B400AF064B1B686FF001021A61054B8A
:105240001B680133034A136000BFBD4680BC704732
:105250008CE500207888002080B500AF18F0A0FB16
:1052600014F0F6F900F048F800BF80BD80B582B0B8
:1052700000AF7860786813F02FFA00BF0837BD469A
:1052800080BD00BF80B582B000AF7860786814F050
:1052900065FA00BF0837BD4680BD00BF80B582B04B
:1052A00000AF7860786814F04BFA00BF0837BD464D
:1052B00080BD00BF80B582B000AF7860786814F020
:1052C000B1FA00BF0837BD4680BD00BF80B500AF52
:1052D00002481BF0CFFF00BF80BD00BFECD800200C
:1052E00080B500AF034B1B6818461BF0C3FF00BF1F
:1052F00080BD00BFE4D6002080B500AF104B1B6816
:1053000001330F4A13600E4B1A680E4BA3FB0213B6
:105310009B094FF47A7101FB03F3D31A002B06D1DA
:10532000094B1B680133084A136002F07BFC02F052
:10533000E7FD0346002B01D002F054FD00BF80BD05
:1053400070E50020D34D62106CE5002080B400AF02
:10535000044B5B6903F00103002B02D0014B0122D7
:105360005A61FEE7003C014080B400AF044B5B692A
:1053700003F00203002B02D0014B02225A61FEE728
:10538000003C014080B400AF044B5B6903F00403B0
:10539000002B02D0014B04225A61FEE7003C014081
:1053A00080B400AF044B5B6903F00803002B02D00C
:1053B000014B08225A61FEE7003C014080B500AF76
:1053C000104B5B6903F08003002B07D00D4B80224C
:1053D0005A61802000F018F818F0D8F9094B4FF402
:1053E00000725A61074B4FF480725A61054B80225C
:1053F0005A61044B40225A61024B20225A6100BF7D
:1054000080BD00BF003C014080B582B000AF0346C4
:10541000FB80FB88B3F5005F02D103480EF0D4FD9A
:1054200000BF0837BD4680BD209B020880B485B010
:1054300000AF7860154B1B68002B02D1134B144A48
:105440001A60124B1B68FB60124B1B681B68BB6029
:10545000BB68A3F50073BB600C4B1A687B681A44E9
:10546000BB689A4205D90C4B0C221A604FF0FF33EF
:1054700006E0064B1A687B681344044A1360FB6815
:1054800018461437BD4680BC704700BF6409002031
:1054900050E6002008ED00E048E6002080B586B028
:1054A00000AFF860B9607A6000237B6109E0BB68F7
:1054B0005A1CBA601B781846FCF768F87B69013300
:1054C0007B617A697B689A42F1DB7B681846183702
:1054D000BD4680BD80B483B000AF78604FF0FF332D
:1054E00018460C37BD4680BC704700BF80B483B0FF
:1054F00000AF786039603B684FF400525A60002377
:1055000018460C37BD4680BC704700BF80B483B0DE
:1055100000AF7860012318460C37BD4680BC704749
:1055200080B485B000AFF860B9607A600023184697
:105530001437BD4680BC704780B584B000AFF860BA
:10554000B9607A60FCF72EF80346DAB2BB681A70CD
:10555000012318461037BD4680BD00BF80B582B01C
:1055600000AF0023FB7000237B6077481FF016FD1F
:105570002021764812F072FE0346FB70FB78002B68
:1055800026D100237B6019E07B682C2202FB03F309
:1055900008336E4A13441B78002B0CD07B682C22F6
:1055A00002FB03F30833694A134418461FF070FCEA
:1055B00067481FF0F3FC7B6801337B607B681F2B1F
:1055C000E2DD4FF4B062002160481FF0ACFB02E066
:1055D00060481FF0E3FC604B1B689B6818461FF097
:1055E00023FA5E4B01221A705D481FF0D7FC5A4B1C
:1055F0001B689B6818461FF017FA5A4B00221A7056
:1056000059495A481FF044FD0346DAB2554B1A7007
:105610004F481FF0C3FC504B1B689B6818461FF097
:1056200003FA504B1B78202B05D151481FF030FC5A
:105630004FF0FF3384E04F481FF02AFC464B1B68B5
:105640009B6818461FF0F0F94B4948481FF020FDB1
:105650003F481FF0A3FC484B1B78312B07D0322B5F
:1056600009D0302B0BD1454B00221A700DE0434B73
:1056700001221A7009E0414B02221A7005E04048ED
:105680001FF08CFC4FF0FF335AE03E4B1A783E4B34
:105690001A703A4B1B78002B26D03C481FF0F8FBC1
:1056A0002D4B1B689B6818461FF0BEF92D4B00223E
:1056B0001A7035492D481FF0EBFC0346DAB2294B2E
:1056C0001A7023481FF06AFC234B1B689B6818461E
:1056D0001FF0AAF9234B1B78202B05D12C481FF073
:1056E000D7FB4FF0FF332BE01F48FAF7E3FD0346EB
:1056F0001A461D4927481FF0F0FA2348FAF7DAFD49
:1057000003461A46204924481FF0E7FA1B4B1B7832
:10571000002B05D10422214921481FF0DEFA0EE0BA
:10572000164B1B78012B05D103221E491C481FF084
:10573000D4FA04E004221C4919481FF0CEFA0123D0
:1057400018460837BD4680BD24820208A4C3002045
:1057500040820208448202083C04002069090020BB
:105760005C820208680900206C090020708202082F
:1057700074820208A482020898CA00206C010020EA
:10578000E8820208148302088C09002018830208AA
:10579000308302084CCA002078CA002060830208C7
:1057A0006CCA0020688302086C83020890B585B03B
:1057B00000AFFF23FB7300F05DF80346FB7397F91E
:1057C0000F30002B41D0254BBB6018F073FC244BED
:1057D0003B603B684FF000041A462346B96802203C
:1057E00018F014FC0346002B03D1BB680433BB60E4
:1057F00004E01C481FF04CFBFF23FB7300237B607D
:105800001AE0194A7B6852F823304FF000041A4618
:105810002346B968022018F0F9FB0346002B03D198
:10582000BB680433BB6004E00E481FF031FBFF236C
:10583000FB737B6801337B607B68122BE1DD18F022
:1058400053FC0A481FF024FB02E009481FF020FB2C
:1058500097F90F3018461437BD4690BD0000060872
:1058600078563412748302084CCA002094830208CC
:10587000B483020880B588B000AFFF23FB77002314
:105880007B600023BB600223BB6107233B610123D4
:105890007B6118F00FFC3A1D07F10803114618460A
:1058A00018F068FD0346002B03D007481FF0F0FAFC
:1058B00001E00123FB7718F017FC97F91F30184619
:1058C0002037BD4680BD00BFDC83020880B584B0B0
:1058D00000AFFF23FB73144BBB60BB681B683B60CE
:1058E0003B68124A934216D100237B600DE0BB68EF
:1058F0000433BB60BB681B683B603A680C497B683B
:1059000041F823207B6801337B607B68122BEEDD3E
:105910000123FB7302E007481FF0BAFA97F90F3032
:1059200018461037BD4680BD000006087856341270
:105930004CCA00200084020880B582B000AFFF236B
:10594000FB710023BB7140481FF0A2FA3F481FF0D3
:1059500025FB00237B7113E07B79C3F10403194617
:105960003B481FF095FA3B4B1B689B6818461FF09D
:105970005BF84FF47A7018F02BF87B7901337B7168
:105980007B79042BE8D934481FF082FA314B1B682D
:105990009B6818461FF048F800201CF0A9FE03463B
:1059A000002B1CD0FFF792FF0346002B11DD2B4884
:1059B0001FF06EFA2A492B481FF06AFA2A492B4831
:1059C0001FF066FA2A492B481FF062FA0123FB7187
:1059D00007E029481FF05CFA0123BB7101E00123B5
:1059E000BB71BB79002B28D0FF23FB7197F90730DF
:1059F000012B03D121481FF0D1FA10E020481FF0FD
:105A000047FAFFF7ABFD0346FB7197F90730012B0F
:105A100005D01C481FF0C2FA97F907300FE0FFF7D6
:105A2000C5FE0346FB7197F90730012B05D01548D9
:105A30001FF0B4FA97F9073001E097F907301846DC
:105A40000837BD4680BD00BF1C840208848402085C
:105A5000D08402083C040020DC840208E4840208AC
:105A60004CCA0020FC84020878CA0020188502086D
:105A70006CCA002034850208508502086C85020833
:105A800090850208B885020880B584B000AF7860C0
:105A900039600023FB7314F0BBF97A681549164886
:105AA0001FF040FB1448FAF705FC03469BB218466A
:105AB00014F0C4F90346FB73FB7B002B14D113F0E5
:105AC00095FE0346FB730D48FAF7F4FB0346BB60F3
:105AD000BB681A46094938681FF0FFF8BB681A46C8
