:100000000080012049C90108851A0008991A0008D2
:10001000A11A0008A91A0008B11A0008000000007F
:10002000000000000000000000000000B91A0008F5
:10003000C51A000800000000D11A0008811C000841
:10004000911A000899C9010899C9010899C90108BC
:1000500099C9010899C90108DD1A0008F91A0008B0
:10006000151B0008311B000899C9010899C901082E
:1000700099C9010899C9010899C9010899C90108D4
:1000800099C9010899C9010899C90108000000002F
:100090000000000000000000000000004D1B0008F0
:1000A00099C9010899C9010899C9010899C90108A4
:1000B00099C9010899C9010899C9010899C9010894
:1000C00099C9010899C9010899C9010899C9010884
:1000D00099C9010899C90108A91B0008000000007E
:1000E000991B000899C9010899C90108000000007E
:1000F00000000000000000000000000099C9010895
:100100000000000099C90108591C000899C901089C
:1001100000000000000000000000000000000000DF
:1001200099C9010899C9010899C9010899C9010823
:1001300099C9010800000000000000000000000054
:1001400000000000000000000000000099C9010844
:1001500099C9010899C9010899C9010899C90108F3
:1001600099C9010899C901080000000000000000B9
:10017000000000000000000000000000000000007F
:100180000000000099C90108000000000000000004
:1001900099C90108000000000000000000000000F4
:1001A00010B5054C237833B9044B13B10448AFF3B1
:1001B00000800123237010BDF40A0020000000001D
:1001C00080C80208084B10B51BB108490848AFF3B6
:1001D00000800848036803B910BD074B002BFBD013
:1001E000BDE81040184700BF00000000F80A0020DA
:1001F00080C80208F40A00200000000081F00041DD
:1002000002E000BF83F0004330B54FEA41044FEAFB
:10021000430594EA050F08BF90EA020F1FBF54EA96
:10022000000C55EA020C7FEA645C7FEA655C00F032
:10023000E2804FEA5454D4EB5555B8BF6D420CDD03
:100240002C4480EA020281EA030382EA000083EA86
:10025000010180EA020281EA0303362D88BF30BD26
:1002600011F0004F4FEA01314FF4801C4CEA11317C
:1002700002D0404261EB410113F0004F4FEA0333DB
:100280004CEA133302D0524263EB430394EA050F66
:1002900000F0A780A4F10104D5F1200E0DDB02FAD5
:1002A0000EFC22FA05F2801841F1000103FA0EF269
:1002B000801843FA05F359410EE0A5F120050EF12F
:1002C000200E012A03FA0EFC28BF4CF0020C43FA60
:1002D00005F3C01851EBE37101F0004507D54FF06D
:1002E000000EDCF1000C7EEB00006EEB0101B1F5BD
:1002F000801F1BD3B1F5001F0CD349085FEA300003
:100300004FEA3C0C04F101044FEA445212F5800F0D
:1003100080F09A80BCF1004F08BF5FEA500C50F1AA
:10032000000041EB045141EA050130BD5FEA4C0C8D
:10033000404141EB010111F4801FA4F10104E9D116
:1003400091F0000F04BF01460020B1FA81F308BF0D
:100350002033A3F10B03B3F120020CDA0C3208DDD9
:1003600002F1140CC2F10C0201FA0CF021FA02F1B4
:100370000CE002F11402D8BFC2F1200C01FA02F124
:1003800020FA0CFCDCBF41EA0C019040E41AA2BF49
:1003900001EB0451294330BD6FEA04041F3C1CDA11
:1003A0000C340EDC04F11404C4F1200220FA04F031
:1003B00001FA02F340EA030021FA04F345EA0301DB
:1003C00030BDC4F10C04C4F1200220FA02F001FA9D
:1003D00004F340EA0300294630BD21FA04F029461F
:1003E00030BD94F0000F83F4801306BF81F48011B8
:1003F0000134013D4EE77FEA645C18BF7FEA655C2B
:1004000029D094EA050F08BF90EA020F05D054EAFC
:10041000000C04BF1946104630BD91EA030F1EBF01
:100420000021002030BD5FEA545C05D14000494105
:1004300028BF41F0004130BD14F580043CBF01F5F8
:10044000801130BD01F0004545F0FE4141F47001DE
:100450004FF0000030BD7FEA645C1ABF19461046B9
:100460007FEA655C1CBF0B46024650EA013406BFBA
:1004700052EA033591EA030F41F4002130BD00BF79
:1004800090F0000F04BF0021704730B54FF4806436
:1004900004F132044FF000054FF0000150E700BFB7
:1004A00090F0000F04BF0021704730B54FF4806416
:1004B00004F1320410F0004548BF40424FF0000103
:1004C0003EE700BF42004FEAE2014FEA31014FEA46
:1004D00002701FBF12F07F4393F07F4F81F0605195
:1004E000704792F0000F14BF93F07F4F704730B504
:1004F0004FF4607401F0004521F0004120E700BF97
:1005000050EA010208BF704730B54FF000050AE01D
:1005100050EA010208BF704730B511F0004502D51E
:10052000404261EB41014FF4806404F132045FEA20
:10053000915C3FF4DCAE4FF003025FEADC0C18BFC5
:1005400003325FEADC0C18BF033202EBDC02C2F1BB
:10055000200300FA03FC20FA02F001FA03FE40EA4D
:100560000E0021FA02F11444C1E600BF70B54FF04D
:10057000FF0C4CF4E06C1CEA11541DBF1CEA13552F
:1005800094EA0C0F95EA0C0F00F0DEF82C4481EA97
:10059000030621EA4C5123EA4C5350EA013518BFB7
:1005A00052EA033541F4801143F4801338D0A0FBA4
:1005B00002CE4FF00005E1FB02E506F00042E0FB51
:1005C00003E54FF00006E1FB03569CF0000F18BF57
:1005D0004EF0010EA4F1FF04B6F5007F64F54074FF
:1005E00004D25FEA4E0E6D4146EB060642EAC62192
:1005F00041EA55514FEAC52040EA5E504FEACE2EFF
:10060000B4F1FD0C88BFBCF5E06F1ED8BEF1004F01
:1006100008BF5FEA500E50F1000041EB045170BD7D
:1006200006F0004646EA010140EA020081EA0301C1
:10063000B4EB5C04C2BFD4EB0C0541EA045170BDBD
:1006400041F480114FF0000E013C00F3AB8014F137
:10065000360FDEBF002001F0004170BDC4F1000480
:10066000203C35DA0C341BDC04F11404C4F1200501
:1006700000FA05F320FA04F001FA05F240EA02005C
:1006800001F0004221F0004110EBD37021FA04F692
:1006900042EB06015EEA430E08BF20EAD37070BD4C
:1006A000C4F10C04C4F1200500FA04F320FA05F0AB
:1006B00001FA04F240EA020001F0004110EBD370AD
:1006C00041F100015EEA430E08BF20EAD37070BD1D
:1006D000C4F1200500FA05F24EEA020E20FA04F3F6
:1006E00001FA05F243EA020321FA04F001F00041A5
:1006F00021FA04F220EA020000EBD3705EEA430E16
:1007000008BF20EAD37070BD94F0000F0FD101F044
:100710000046400041EB010111F4801F08BF013C7D
:10072000F7D041EA060195F0000F18BF704703F0BB
:100730000046520043EB030313F4801F08BF013D42
:10074000F7D043EA0603704794EA0C0F0CEA1355FE
:1007500018BF95EA0C0F0CD050EA410618BF52EAB8
:100760004306D1D181EA030101F000414FF00000BE
:1007700070BD50EA410606BF1046194652EA4306CC
:1007800019D094EA0C0F02D150EA013613D195EA40
:100790000C0F05D152EA03361CBF104619460AD188
:1007A00081EA030101F0004141F0FE4141F4700192
:1007B0004FF0000070BD41F0FE4141F4780170BD82
:1007C00070B54FF0FF0C4CF4E06C1CEA11541DBFE7
:1007D0001CEA135594EA0C0F95EA0C0F00F0A7F8E9
:1007E000A4EB050481EA030E52EA03354FEA013116
:1007F00000F088804FEA03334FF0805545EA131329
:1008000043EA12634FEA022245EA111545EA1065F0
:100810004FEA00260EF000419D4208BF964244F187
:10082000FD0404F5407402D25B084FEA3202B61AA6
:1008300065EB03055B084FEA32024FF480104FF47A
:10084000002CB6EB020E75EB030E22BFB61A7546EE
:1008500040EA0C005B084FEA3202B6EB020E75EB81
:10086000030E22BFB61A754640EA5C005B084FEAE9
:100870003202B6EB020E75EB030E22BFB61A7546B6
:1008800040EA9C005B084FEA3202B6EB020E75EBC1
:10089000030E22BFB61A754640EADC0055EA060E82
:1008A00018D04FEA051545EA16754FEA06164FEAC5
:1008B000C30343EA52734FEAC2025FEA1C1CC0D171
:1008C00011F4801F0BD141EA00014FF000004FF0FE
:1008D000004CB6E711F4801F04BF01430020B4F1BF
:1008E000FD0C88BFBCF5E06F3FF6AFAEB5EB030C77
:1008F00004BFB6EB020C5FEA500C50F1000041EB74
:10090000045170BD0EF0004E4EEA113114EB5C0440
:10091000C2BFD4EB0C0541EA045170BD41F4801113
:100920004FF0000E013C90E645EA060E8DE60CEA1B
:10093000135594EA0C0F08BF95EA0C0F3FF43BAF38
:1009400094EA0C0F0AD150EA01347FF434AF95EAEF
:100950000C0F7FF425AF104619462CE795EA0C0FD3
:1009600006D152EA03353FF4FDAE1046194622E7A0
:1009700050EA410618BF52EA43067FF4C5AE50EA7A
:1009800041047FF40DAF52EA43057FF4EBAE12E76A
:100990004FF0FF3C06E000BF4FF0010C02E000BF4B
:1009A0004FF0010C4DF804CD4FEA410C7FEA6C5C2E
:1009B0004FEA430C18BF7FEA6C5C1BD001B050EAD1
:1009C000410C0CBF52EA430C91EA030F02BF90EABC
:1009D000020F0020704710F1000F91EA030F58BF7B
:1009E000994208BF90422CBFD8176FEAE37040F0DD
:1009F000010070474FEA410C7FEA6C5C02D150EA7B
:100A0000013C07D14FEA430C7FEA6C5CD6D152EA35
:100A1000033CD3D05DF8040B704700BF84461046FA
:100A200062468C461946634600E000BF01B5FFF7F9
:100A3000B7FF002848BF10F1000F01BD4DF808EDC9
:100A4000FFF7F4FF0CBF012000205DF808FB00BF9A
:100A50004DF808EDFFF7EAFF34BF012000205DF8F4
:100A600008FB00BF4DF808EDFFF7E0FF94BF012041
:100A700000205DF808FB00BF4DF808EDFFF7CEFF42
:100A800094BF012000205DF808FB00BF4DF808ED81
:100A9000FFF7C4FF34BF012000205DF808FB00BF52
:100AA0004A0011D212F5001211D20DD56FF47873ED
:100AB000B3EB62520ED44FEAC12343F0004343EA42
:100AC000505323FA02F070474FF00000704750EA8D
:100AD000013002D14FF0FF3070474FF000007047F7
:100AE00080F0004002E000BF81F0004142001FBFE3
:100AF0005FEA410392EA030F7FEA226C7FEA236CEC
:100B00006AD04FEA1262D2EB1363C1BFD2184140E0
:100B100048404140B8BF5B42192B88BF704710F076
:100B2000004F40F4000020F07F4018BF404211F019
:100B3000004F41F4000121F07F4118BF494292EA81
:100B4000030F3FD0A2F1010241FA03FC10EB0C00AD
:100B5000C3F1200301FA03F100F0004302D549423A
:100B600060EB4000B0F5000F13D3B0F1807F06D3E7
:100B700040084FEA310102F10102FE2A51D2B1F1DF
:100B8000004F40EBC25008BF20F0010040EA0300D4
:100B90007047490040EB000010F4000FA2F1010281
:100BA000EDD1B0FA80FCACF1080CB2EB0C0200FA0B
:100BB0000CF0AABF00EBC25052421843BCBFD04059
:100BC0001843704792F0000F81F4000106BF80F4D3
:100BD00000000132013BB5E74FEA41037FEA226C96
:100BE00018BF7FEA236C21D092EA030F04D092F061
:100BF000000F08BF0846704790EA010F1CBF002095
:100C0000704712F07F4F04D1400028BF40F00040F1
:100C1000704712F100723CBF00F50000704700F011
:100C2000004343F0FE4040F4000070477FEA226238
:100C300016BF08467FEA23630146420206BF5FEA09
:100C4000412390EA010F40F4800070474FF0000309
:100C500004E000BF10F0004348BF40425FEA000CD0
:100C600008BF704743F0964301464FF000001CE078
:100C700050EA010208BF70474FF000030AE000BFCE
:100C800050EA010208BF704711F0004302D540420C
:100C900061EB41015FEA010C02BF8446014600207E
:100CA00043F0B64308BFA3F18053A3F50003BCFA99
:100CB0008CF2083AA3EBC25310DB01FA02FC634446
:100CC00000FA02FCC2F12002BCF1004F20FA02F24D
:100CD00043EB020008BF20F00100704702F1200240
:100CE00001FA02FCC2F1200250EA4C0021FA02F2A1
:100CF00043EB020008BF20EADC7070474FF0FF0CA6
:100D00001CEAD0521EBF1CEAD15392EA0C0F93EAA0
:100D10000C0F6FD01A4480EA010C400218BF5FEA42
:100D200041211ED04FF0006343EA501043EA5111B5
:100D3000A0FB01310CF00040B1F5000F3EBF4900AF
:100D400041EAD3715B0040EA010062F17F02FD2AB3
:100D50001DD8B3F1004F40EBC25008BF20F0010096
:100D6000704790F0000F0CF0004C08BF49024CEAAD
:100D7000502040EA51207F3AC2BFD2F1FF0340EA3F
:100D8000C250704740F400004FF00003013A5DDCB0
:100D900012F1190FDCBF00F000407047C2F10002F1
:100DA000410021FA02F1C2F1200200FA02FC5FEADE
:100DB000310040F1000053EA4C0308BF20EADC7028
:100DC000704792F0000F00F0004C02BF400010F49A
:100DD000000F013AF9D040EA0C0093F0000F01F047
:100DE000004C02BF490011F4000F013BF9D041EA69
:100DF0000C018FE70CEAD15392EA0C0F18BF93EA6B
:100E00000C0F0AD030F0004C18BF31F0004CD8D194
:100E100080EA010000F00040704790F0000F17BF1B
:100E200090F0004F084691F0000F91F0004F14D061
:100E300092EA0C0F01D142020FD193EA0C0F03D1B9
:100E40004B0218BF084608D180EA010000F00040BC
:100E500040F0FE4040F40000704740F0FE4040F497
:100E6000400070474FF0FF0C1CEAD0521EBF1CEA36
:100E7000D15392EA0C0F93EA0C0F69D0A2EB030254
:100E800080EA010C49024FEA402037D04FF08053EE
:100E900043EA111143EA10130CF000408B4238BFB3
:100EA0005B0042F17D024FF4000C8B4224BF5B1AC1
:100EB00040EA0C00B3EB510F24BFA3EB510340EA0F
:100EC0005C00B3EB910F24BFA3EB910340EA9C00BD
:100ED000B3EBD10F24BFA3EBD10340EADC001B012D
:100EE00018BF5FEA1C1CE0D1FD2A3FF650AF8B42D1
:100EF00040EBC25008BF20F0010070470CF0004CDE
:100F00004CEA50207F32C2BFD2F1FF0340EAC25008
:100F1000704740F400004FF00003013A37E792F0C9
:100F2000000F00F0004C02BF400010F4000F013A27
:100F3000F9D040EA0C0093F0000F01F0004C02BF22
:100F4000490011F4000F013BF9D041EA0C0195E78B
:100F50000CEAD15392EA0C0F08D142027FF47DAF24
:100F600093EA0C0F7FF470AF084676E793EA0C0F14
:100F700004D14B023FF44CAF08466EE730F0004C12
:100F800018BF31F0004CCAD130F000427FF45CAFA2
:100F900031F000437FF43CAF5FE700BF4FF0FF3C10
:100FA00006E000BF4FF0010C02E000BF4FF0010C63
:100FB0004DF804CD4FEA40024FEA41037FEA226C2C
:100FC00018BF7FEA236C11D001B052EA530C18BF4E
:100FD00090EA010F58BFB2EB030088BFC81738BFB3
:100FE0006FEAE17018BF40F0010070477FEA226CA1
:100FF00002D15FEA402C05D17FEA236CE4D15FEA9D
:10100000412CE1D05DF8040B704700BF84460846D0
:101010006146FFE70FB5FFF7C9FF002848BF10F191
:10102000000F0FBD4DF808EDFFF7F4FF0CBF0120D6
:1010300000205DF808FB00BF4DF808EDFFF7EAFF60
:1010400034BF012000205DF808FB00BF4DF808ED1B
:10105000FFF7E0FF94BF012000205DF808FB00BF10
:101060004DF808EDFFF7D2FF94BF012000205DF896
:1010700008FB00BF4DF808EDFFF7C8FF34BF0120A3
:1010800000205DF808FB00BF4FEA4002B2F1FE4FBE
:101090000FD34FF09E03B3EB12620DD94FEA00233A
:1010A00043F0004310F0004F23FA02F018BF404213
:1010B00070474FF00000704712F1610F01D14202FA
:1010C00005D110F0004008BF6FF0004070474FF0AE
:1010D0000000704742000ED2B2F1FE4F0BD34FF02A
:1010E0009E03B3EB126209D44FEA002343F000439E
:1010F00023FA02F070474FF00000704712F1610FC1
:1011000001D1420202D14FF0FF3070474FF0000092
:10111000704700BF00000000000000000000000059
:1011200001F0FF01102A2BDB10F0070F08D010F898
:10113000013B013A8B422DD010F0070F42B3F6D19C
:10114000F0B441EA012141EA014122F007047FF0B5
:1011500000070023F0E80256083C85EA010586EA0C
:10116000010685FA47F5A3FA87F586FA47F6A5FA48
:1011700087F68EB9EED1F0BC01F0FF0102F0070254
:1011800032B110F8013B013A83EA010313B1F8D1FF
:101190000020704701387047002D06BF35460338E0
:1011A000073815F0010F07D1013015F4807F02BF19
:1011B000013015F4C03F0130F0BC0138704700BF6A
:1011C00010F8012B11F8013B012A28BF9A42F7D0F1
:1011D000D01A7047034613F8012B002AFBD1181AC6
:1011E0000138704780B58AB000AFF8600B467A606E
:1011F000FB72012387F82730FB681B88002B02D085
:101200006A2B3AD07EE045482AF034F944494548F3
:101210002AF0AAF8444B08221A70434B08225A704D
:10122000414B08229A70404B0822DA7007F11403F0
:1012300019463D480BF0F2FE07F114034FF0FF3161
:1012400018460DF08FFA4FF4FA61384801F082F831
:1012500033480CF047FE40F6B83017F04BFC1BE06B
:10126000334B1B68042B02D02D480CF03BFE0023AF
:1012700087F82730FB686A221A8097F82730002BFE
:1012800005D02A4801F098F80346002B01D101232C
:101290003FE0264801F070F8264921480CF0DCFEBA
:1012A00003461A46224B1A60214B1B68002BD7D1EC
:1012B000214B01221A701F4B1B68204A1046194609
:1012C00010231A462AF021F81B4B1B78002B03D160
:1012D0001B482AF0CFF815E01A482AF0CBF8174837
:1012E0000DF0C4F90A202AF057F8002113480EF037
:1012F00015FA01200EF0F6F90EF0BCFE0EF064FFB8
:1013000013F06AF8002387F82730FB6800221A8060
:10131000032318462837BD4680BD00BFB0C8020869
:1013200000000020CCC8020860380020140B002008
:10133000240B0020100B0020280B00206438002014
:10134000ECC8020838C9020880B500AF0F4B104A3C
:101350001A600E4B40225A600C4B7F229A600B4B56
:101360004FF49872DA60094B00221A61074B002291
:101370005A61064B00229A61044819F0BDFB0346EE
:10138000002B01D000F0CAF800BF80BD74380020E7
:101390000028004080B586B000AF1423FB750223FF
:1013A0007B751823BB7502233B7507F114030122DB
:1013B0001946114819F0E2FC0346002B01D000F059
:1013C000ADF808233B7010237B700023BB70002313
:1013D000FB700023FB6000233B613B460122194662
:1013E000054819F005FC0346002B01D000F096F8E3
:1013F00000BF1837BD4680BD7438002080B594B05A
:1014000000AF0023BB60294A284B1B6C43F080537C
:101410001364264B1B6C03F08053BB60BB68002336
:101420007B60234A224B1B6823F4404343F4004370
:1014300013601F4B1B6803F440437B607B680223EF
:10144000FB600123BB611023FB6102237B6200234D
:10145000BB621023FB624FF4A8733B6304237B63DE
:101460000723BB6307F10C03184618F025FE03465B
:10147000002B01D000F052F80F23FB6302233B64E2
:1014800000237B644FF48053BB640023FB6407F1AB
:101490003C030221184619F025F80346002B01D021
:1014A00000F03CF800BF5037BD4680BD0038024018
:1014B0000070004080B485B000AF0023FB60164A86
:1014C000154B1B6B43F001031363134B1B6B03F0B2
:1014D0000103FB60FB680023BB600F4A0E4B1B6BD4
:1014E00043F0040313630C4B1B6B03F00403BB605A
:1014F000BB6800237B60084A074B1B6B43F0080363
:101500001363054B1B6B03F008037B607B6800BF14
:101510001437BD4680BC70470038024080B500AF2C
:1015200000201DF031FBFA2017F0E4FAF8E700BFC5
:10153000F0B587B004AF17F087FAFFF75FFF17F039
:10154000F9FAFFF7B7FF00201DF0C0FA00201CF0E9
:1015500009FF012100201DF02BFB00F029FAFFF705
:10156000F3FEFFF717FF17F0DBFA03461C0E17F028
:10157000D7FA03461B0CDDB217F0D2FA03461B0A5A
:10158000DEB217F0CDFA0346DBB20B4A02920B4AE9
:101590000192009333462A462146094829F0E4FE89
:1015A00016F040FA00237B6001F016F978607B6842
:1015B000002BF9DCF6E700BF88C9020894C90208CD
:1015C00050C9020880B582B000AF7860054B5B68F7
:1015D0000020984702467B681A60002318460837A7
:1015E000BD4680BD0CE5020880B582B000AF7860D2
:1015F000054B5B680120984702467B681A60002310
:1016000018460837BD4680BD0CE5020880B582B09B
:1016100000AF7860054B5B680220984702467B6804
:101620001A60002318460837BD4680BD0CE5020845
:1016300080B500AF034B9B6801218120984700BF14
:1016400080BD00BF0CE5020880B582B000AF7860B5
:10165000074B5B68002098470246642303FB02F2B5
:101660007B681A60002318460837BD4680BD00BF5E
:101670003CE5020880B500AF034B9B680121812047
:10168000984700BF80BD00BF3CE5020880B582B02E
:1016900000AF7860054B5B680020984702467B6886
:1016A0001A60002318460837BD4680BD4CE5020885
:1016B00080B582B000AF7860054B5B680120984729
:1016C00002467B681A60002318460837BD4680BD75
:1016D0004CE5020880B582B000AF7860054B5B68CE
:1016E0000220984702467B681A6000231846083794
:1016F000BD4680BD4CE5020880B500AF034B9B683A
:1017000001218120984700BF80BD00BF4CE5020841
:1017100080B582B000AF7860074B5B6800209847C7
:101720000246642303FB02F27B681A60002318461A
:101730000837BD4680BD00BF5CE5020880B500AF3C
:10174000034B9B6801218120984700BF80BD00BFEB
:101750005CE5020880B582B000AF7860074B5B683B
:10176000002098470246642303FB02F27B681A605C
:10177000002318460837BD4680BD00BF7CE502083F
:1017800080B500AF034B9B6801218120984700BFC3
:1017900080BD00BF7CE5020880B58CB000AF00239F
:1017A000BB61414A404B1B6B43F0010313633E4B4B
:1017B0001B6B03F00103BB61BB6900237B613A4AE9
:1017C000394B1B6B43F004031363374B1B6B03F064
:1017D00004037B617B6900233B61334A324B1B6B03
:1017E00043F008031363304B1B6B03F008033B61AA
:1017F0003B690023FB602C4A2B4B1B6B43F002031D
:101800001363294B1B6B03F00203FB60FB6800238F
:10181000BB60254A244B1B6B43F002031363224B2E
:101820001B6B03F00203BB60BB6800237B601E4A96
:101830001D4B1B6C43F4001313641B4B1B6C03F414
:1018400000137B607B684FF48073FB6112233B6263
:1018500001237B620323BB620423FB6207F11C03A9
:101860001946124817F0C0FA4FF40073FB610423C5
:10187000FB6207F11C0319460C4817F0B5FA012268
:101880000021202017F050FA202017F069FA0222D8
:1018900000211F2017F048FA1F2017F061FA00BF3F
:1018A0003037BD4680BD00BF003802400004024012
:1018B00080B584B000AF78607B681B680E4A9342A5
:1018C00015D10023FB600D4A0C4B1B6C43F0080341
:1018D00013640A4B1B6C03F00803FB60FB680022D7
:1018E0000021322017F020FA322017F039FA00BF19
:1018F0001037BD4680BD00BF000C004000380240DC
:1019000080B58AB000AF786000233B61264A264B41
:101910001B6B43F001031363234B1B6B03F00103A9
:101920003B613B690023FB601F4A1F4B1B6B43F06D
:10193000010313631C4B1B6B03F00103FB60FB688B
:101940000023BB60184A184B1B6C43F4003313642C
:10195000154B1B6C03F40033BB60BB6804237B6135
:101960000223BB610123FB6103233B6207237B62EC
:1019700007F1140319460D4817F036FA08237B6166
:1019800007237B6207F114031946084817F02CFA65
:1019900001220021262017F0C7F9262017F0E0F9D0
:1019A00000BF2837BD4680BD00380240000002401D
:1019B00080B500AF144B154A1A60154B1B68124ACC
:1019C0005360114B00229A600F4B0022DA600E4BDD
:1019D00000221A610C4B00229A610B4B0C225A61B7
:1019E00009481AF091FB0346002B01D0FFF796FD42
:1019F000054B084A9A62044B4FF400729A85024BD9
:101A00000022DA6300BF80BD94380020004400400B
:101A100038000020D438002080B594B000AF786042
:101A20000C233B620023BB6301237B630023BB6267
:101A300007F12003184618F03FFB0346002B01D0A6
:101A4000FFF76CFD0223FB604FF40073BB6107F1ED
:101A50000C03184618F054FF0346002B01D0FFF783
:101A60005DFD074B01221A6000220F21022017F0B2
:101A70005BF9022017F074F900BF5037BD4680BDF6
:101A80003C0E474280B400AF00BFBD4680BC7047EB
:101A900080B400AFFEE700BF80B400AFFEE700BF38
:101AA00080B400AFFEE700BF80B400AFFEE700BF28
:101AB00080B400AFFEE700BF80B400AF00BFBD46FA
:101AC00080BC704780B400AF00BFBD4680BC70478B
:101AD00080B400AF00BFBD4680BC704780B400AF8B
:101AE000044B5B6903F00103002B02D0014B012280
:101AF0005A61FEE7003C014080B400AF044B5B69D3
:101B000003F00203002B02D0014B02225A61FEE7D0
:101B1000003C014080B400AF044B5B6903F0040358
:101B2000002B02D0014B04225A61FEE7003C014029
:101B300080B400AF044B5B6903F00803002B02D0B4
:101B4000014B08225A61FEE7003C014080B500AF1E
:101B5000104B5B6903F08003002B07D00D4B8022F4
:101B60005A61802000F0BEF816F0A8FE094B4FF431
:101B700000725A61074B4FF480725A61054B802204
:101B80005A61044B40225A61024B20225A6100BF25
:101B900080BD00BF003C014080B500AF4FF4005055
:101BA00017F0E6FA00BF80BD80B487B000AF294BC4
:101BB0007B617B691B681B6803F00103002B0AD063
:101BC00000233B617B691B681B683B617B691B6869
:101BD0005B683B613B697B691B681B6803F0020320
:101BE000002B0AD00023FB607B691B681B68FB602D
:101BF0007B691B685B68FB60FB687B691B681B6813
:101C000003F00403002B0AD00023BB607B691B6830
:101C10001B68BB607B691B685B68BB60BB687B69DA
:101C20001B681B6803F00803002B0AD000237B60AD
:101C3000084B1B681B687B60064B1B685B687B60FE
:101C40007B687B691B681B6800BF1C37BD4680BC76
:101C5000704700BF9438002080B400AF064B1B686B
:101C60006FF001021A61054B1B680133034A1360D0
:101C700000BFBD4680BC7047E4440020D43500203E
:101C800080B500AF16F01EFF00F002F800BF80BD67
:101C900080B500AF104B1B6801330F4A13600E4B29
:101CA0001A680E4BA3FB02139B094FF47A7101FBD8
:101CB00003F3D31A002B06D1094B1B680133084AE2
:101CC000136000F029FA00F095FB0346002B01D0C9
:101CD00000F002FB00BF80BDC0440020D34D621065
:101CE000BC44002080B582B000AF0346FB80FB8877
:101CF000B3F5005F02D103480DF036F800BF083796
:101D0000BD4680BD1CE5020890B587B000AFF86005
:101D1000B9607A6000237B610AE0BC68631CBB6029
:101D200015F078FE0346DBB223707B6901337B61DB
:101D30007A697B689A42F0DB7B6818461C37BD469F
:101D400090BD00BF80B586B000AFF860B9607A6022
:101D500000237B6109E0BB685A1CBA601B781846F7
:101D600015F04CFE7B6901337B617A697B689A428E
:101D7000F1DB7B6818461837BD4680BD80B584B05E
:101D800000AF7860114B1B68002B02D10F4B104A3B
:101D90001A600E4B1B68FB600C4B1A687B6813447F
:101DA0006A46934207D929F04DFA02460C23136084
:101DB0004FF0FF3306E0054B1A687B681344034A73
:101DC0001360FB6818461037BD4680BD2C0B002001
:101DD000A045002080B483B000AF78604FF0FF339F
:101DE00018460C37BD4680BC704700BF80B483B036
:101DF00000AF786039603B684FF400525A600023AE
:101E000018460C37BD4680BC704700BF80B483B015
:101E100000AF7860012318460C37BD4680BC704780
:101E200080B485B000AFF860B9607A6000231846CE
:101E30001437BD4680BC704780B584B000AF786071
:101E40000023FB600BE0FB689B007A6813441B686F
:101E50000021184600F022FBFB680133FB60FB68A1
:101E60009B007A6813441B68002BECD100BF10372D
:101E7000BD4680BD80B588B000AFF8600B467A6083
:101E8000FB720123FB76FB681B88002B02D04A2BD8
:101E90001DD053E02E4B1B6818460CF0ABFDF861CB
:101EA0000AE0FB691A1DFB699B681946104600F0A1
:101EB00051FAFB691B68FB61FB69002BF1D1254BD3
:101EC00001221A700023FB76FB684A221A80FB7EEF
:101ED000002B02D0FB7A882B01D0012334E01C4B6D
:101EE0001B6818460CF086FDF86123E0FB691A1D9B
:101EF0007B689A421BD1164B1B68F96918460CF097
:101F0000D3FD154B1B687B61FB695B69124A13604B
:101F1000FB699B69002B05D0FB699B69FA69D26953
:101F2000104698470C4A7B69136000BFCAE7FB69FB
:101F30001B68FB61FB69002BD8D1C3E70023FB764C
:101F4000FB6800221A80032318462037BD4680BD57
:101F50003C000020340B0020440B002080B500AF73
:101F6000064B00221A70064B1B6818460CF036FD13
:101F70000021044800F092FA00BF80BD340B00201D
:101F80003C0000204000002080B586B002AFF86021
:101F9000B9607A603B60064B1B6800933B687A68C7
:101FA000B968F86800F006F800BF1037BD4680BD7C
:101FB000440B002080B586B000AFF860B9607A604D
:101FC0003B60FB683A6A5A61FB687A689A61FB6811
:101FD0003A68DA61104B1B78002B0FD00F4B1B684F
:101FE0007B610E4B0E4A1A60FB680433B9681846D1
:101FF00000F0B0F9094A7B69136002E0FB68BA6837
:102000009A60084B1B68F96818460CF01BFD00BF6E
:102010001837BD4680BD00BF340B0020440B0020A4
:10202000400000203C00002080B584B000AF786004
:102030000D4B1B78002B0DD00C4B1B68FB600B4B22
:102040000B4A1A607B680433184600F095F9074A7A
:10205000FB681360074B1B68796818460CF0F2FCAC
:1020600000BF1037BD4680BD340B0020440B00205C
:10207000400000203C00002080B584B000AF7860B4
:102080000D4B1B78002B0DD00C4B1B68FB600B4BD2
:102090000B4A1A607B680433184600F07DF9074A42
:1020A000FB681360074B1B68796818460CF0CAFC84
:1020B00000BF1037BD4680BD340B0020440B00200C
:1020C000400000203C00002080B582B000AF786066
:1020D0000C4B1B78002B05D07B680433184600F0AE
:1020E00099F905E07B680022DA607B6800221A61BA
:1020F000054B1B68796818460CF0D6FC00BF083702
:10210000BD4680BD340B00203C00002080B400AFF1
:1021100000BFBD4680BC704780B400AF00BFBD4665
:1021200080BC704780B584B000AF1D4B1B68002B8E
:1021300003D11C4B00221A602EE015F00BFC7860D6
:10214000174B1B68BB60BB681A68BB685B681A44A6
:102150007B68D31AFB60BB689B68BB6014E0BB68FC
:102160001A68BB685B681A447B68D21AFB689A429B
:1021700007D2BB681A68BB685B681A447B68D31ACD
:10218000FB60BB689B68BB60BB68002BE7D17A68CB
:10219000FB681344034A136000BF1037BD4680BD7F
:1021A000380B00203C0B002080B588B000AFF860F1
:1021B0000B467A60FB720123FB75FB681B88002BC2
:1021C00002D0592B08D07BE0424B00221A6000233A
:1021D000FB75FB6859221A80FB7D002B01D101237E
:1021E00074E0FB7A872B2DD17B683B6104E0394B8F
:1021F0001B689B68374A1360364B1B68002B05D061
:10220000344B1B68DA683B699A42F0D0314B1B684B
:10221000002B51D02F4B1B68FB610EE0FB699B68C4
:10222000DA683B699A4205D1FB699B689A68FB6949
:102230009A6002E0FB699B68FB61FB699B68002B6D
:10224000ECD139E0FB7A822B38D10023BB61214BE2
:102250001B68FB612CE0FB69184600F0CFFB0346CE
:10226000002B20D0FB69DB68FA698821184600F052
:10227000CBFA0346002B14D1FB690022DA60BB695C
:10228000002B04D0FB699A68BB699A6003E0FB6984
:102290009B68104A1360FB6900229A60FFF742FFB7
:1022A000D3E700F019F8FB69BB61FB699B68FB6130
:1022B000FB69002BCFD18AE700BF88E700BF86E724
:1022C0000023FB75FB6800221A8003231846203781
:1022D000BD4680BD380B002080B500AF024800F03D
:1022E000FFFA00BF80BD00BF5000002080B584B061
:1022F00000AF7860FFF7F0FF7B68DB68002B14D03D
:10230000124B1B68FB600DE0FA687B689A4206D1AD
:102310000F4B1A687B68DA60FFF704FF12E0FB6876
:102320009B68FB60FB68002BEED1094B1A687B6849
:10233000DA60064B1A687B689A60044A7B6813600F
:10234000FFF7F0FE1037BD4680BD00BF380B002000
:10235000440B002080B582B000AF786039607B68A4
:102360003968184600F01AFB7868FFF7BFFF00BF16
:102370000837BD4680BD00BF80B582B000AF786031
:102380007B68184600F01CFB7868FFF7AFFF00BFC2
:102390000837BD4680BD00BF80B582B000AF786011
:1023A0007B68184600F01CFB7868FFF79FFF00BFB2
:1023B0000837BD4680BD00BF80B483B000AF7860F1
:1023C0007B68DB68002B0CBF01230023DBB21846BF
:1023D0000C37BD4680BC704780B483B000AF7860D6
:1023E0007B681A687B685B68134418460C37BD46E7
:1023F00080BC704780B400AF054B1B68002B14BF36
:1024000001230023DBB21846BD4680BC704700BFE5
:10241000380B002080B584B000AF7860174B1B6884
:102420007A689A4207D1154B1B689B68134A136060
:10243000FFF778FE17E0114B1B68FB6002E0FB68BA
:102440009B68FB60FB68002B04D0FB689A687B6884
:102450009A42F4D1FB68002B05D07B689A68FB6830
:102460009A60FFF75FFE7B6800229A607B6800221B
:10247000DA6000BF1037BD4680BD00BF380B0020BA
:1024800080B400AF044B1B785A1CD1B2024A1170C1
:102490001846BD4680BC7047480B002080B584B00C
:1024A00000AF78603960144B1B68FB6002E0FB688A
:1024B0001B68FB60FA687B689A4202D0FB68002BBD
:1024C000F5D1FA687B689A4212D00B4B1A687B6888
:1024D0001A60094A7B6813607B6801229A737B68E3
:1024E00000229A813A688121786800F0DFF900E0E3
:1024F00000BF1037BD4680BD400B002090B585B0B1
:1025000000AF786039602C4B1B68FB602B4B1C685C
:1025100000E024687B689C4201D0002CF9D1002C9B
:1025200046D0786800F0F8F90346002B23D07B688A
:1025300000229A73214B1C6808E07B68A34204D0F8
:102540007A688721204600F03BF82468002CF4D1FB
:102550007B689B68002B0ED07A683B689A420AD051
:10256000154A7B6813607B689B687A6802F10C00EF
:10257000002283219847114B1B687A689A4205D143
:102580000E4B1B681B680D4A13600DE00B4B1C685B
:1025900008E022687B689A4203D17B681B6823604D
:1025A00002E02468002CF4D1034AFB68136000E0C9
:1025B00000BF1437BD4690BD440B0020400B0020E7
:1025C00080B586B000AFF8600B467A60FB72FB689E
:1025D0009B7B03F00103002B24D0FB689B68002B3E
:1025E00020D0124AFB681360FB6802229A73FB68D2
:1025F0009B68FA6802F10C00F97A7A6898470346FA
:102600007B617B69022B05D07B69032B02D0FB7AAF
:10261000832B04D1F968F868FFF770FF02E0FB68CC
:1026200001229A7300BF1837BD4680BD440B0020BD
:1026300080B582B000AF7860044B1B68194678689B
:10264000FFF75CFF00BF0837BD4680BD440B00208C
:1026500080B400AF0B4B8A221A700B4B00221A7009
:10266000094B1A78094B1A70094B00221A70094B52
:1026700000221A60074B1B68074A136000BFBD4663
:1026800080BC7047480B00204A0B0020490B0020FB
:10269000D43A0020400B0020440B002080B582B0CB
:1026A00000AF104B00221A700F4B1B687B6011E0CB
:1026B0007B68DB7B002B0AD07B6801229A737B68E6
:1026C0000022DA73002282217868FFF779FF7B68A5
:1026D0001B687B607B68002BEAD100BF0837BD46D2
:1026E00080BD00BFAC0B0020400B002080B584B043
:1026F00000AF334B1B78002B5DD0324B1B78194653
:10270000314A0B465B000B449B0013441B78FB7261
:102710002C4B1B7819462C4A0B465B000B449B0044
:10272000134404331B687B60264B1B781946264AEA
:102730000B465B000B449B00134408331B683B6053
:10274000204B1B785A1C214B1340002B03DA013B12
:1027500063F007030133DAB21A4B1A70184B1B7877
:10276000013BDAB2164B1A703B68002B17D1184B9D
:102770001B68FB600FE0174B1B78DBB2002B01D00E
:10278000FFF78CFFFB7A7A681946F868FFF718FFA5
:10279000FB681B68FB60FB68002BECD10BE0FB7A4D
:1027A000812B02D13B6801229A73FB7A7A68194621
:1027B0003868FFF705FF00BF1037BD4680BD00BF7A
:1027C000490B00204A0B00204C0B00200700008022
:1027D000400B0020AC0B002080B500AF084B1B78ED
:1027E000DBB2002B01D0FFF759FFFFF77FFF054B4E
:1027F0001B781A46024B1B78DBB21344184680BD87
:10280000AC0B0020490B002080B487B000AFF8600B
:102810000B467A60FB72214B1B78082B01D10123F8
:1028200036E01F4B1A781D4B1B781344DBB203F0C4
:102830000703FB75FA7D1B4913465B0013449B009D
:102840000B44FA7A1A70FA7D164913465B0013445A
:102850009B000B4404337A681A60FA7D11491346D1
:102860005B0013449B000B440833FA681A600B4B5F
:102870001B780133DAB2094B1A70084B1A780A4BED
:102880001B789A4203D9054B1A78074B1A7000231C
:1028900018461C37BD4680BC704700BF490B00205E
:1028A0004A0B00204C0B0020D43A002080B586B0A3
:1028B00000AFF8600B467A60FB72084B1B687B61C7
:1028C000FB7A7A681946F868FFF77AFE034A7B6953
:1028D000136000BF1837BD4680BD00BF440B002009
:1028E00080B483B000AF78607B68002B0DD07B682C
:1028F0009B7B012B03D07B689B7B022B05D17B68E4
:102900000122DA73034B01221A7000BF0C37BD4657
:1029100080BC7047AC0B002080B483B000AF7860FF
:102920007B689B7B002B14BF01230023DBB218467E
:102930000C37BD4680BC704780B500AF15F02CFA4F
:1029400000BF80BD80B582B000AF786039607B6821
:102950003A685A6014F0F4FF02467B681A6000BFC0
:102960000837BD4680BD00BF80B582B000AF78603B
:1029700014F0E6FF01467B681A687B685B681344C5
:10298000CB1A054A934294BF01230023DBB21846B9
:102990000837BD4680BD00BFFEFFFF7F80B582B017
:1029A00000AF786039607B683A685A6014F0D2FFF3
:1029B00002467B681A6000BF0837BD4680BD00BF75
:1029C00080B483B000AF78607B681A687B685B680E
:1029D0001A447B681A6000BF0C37BD4680BC704744
:1029E00080B582B000AF786014F0B4FF02467B6817
:1029F0001A6000BF0837BD4680BD00BF80B584B0F7
:102A000000AF786014F0A6FF02467B681B68D31AFB
:102A10000133FB607B685A68FB689A4234BF01232C
:102A20000023DBB218461037BD4680BD80B582B0AA
:102A300000AF7860786800F03BFE00BF0837BD4605
:102A400080BD00BF80B500AF034B1B68034918462B
:102A500004F058FD00BF80BD700000202D2A000842
:102A600080B584B000AF7860054B1B687968184664
:102A700004F008FEF860FB6818461037BD4680BDBC
:102A80007000002080B584B000AF78607B68002BB8
:102A90001AD07B681B68002B16D07B681B681B6AEA
:102AA000FB60FB68002B0FD0FB689B68002B0BD0F2
:102AB000FB689B681B69002B06D0FB689B681B6941
:102AC00078689847034601E04FF6FF7318461037C1
:102AD000BD4680BD80B582B000AF7860054B1B68F5
:102AE0007968184604F02EFE034618460837BD469E
:102AF00080BD00BF7000002080B584B000AF78605A
:102B00007868FFF7E7FFF860F86808F0DFF8034639
:102B100018461037BD4680BD80B584B000AF7860E0
:102B20007868FFF7D7FFF860F86804F089F9034682
:102B300018461037BD4680BD80B584B000AF7860C0
:102B40007868FFF7E9FFF860F86804F08BF903464E
:102B500018461037BD4680BD80B582B000AF7860A2
:102B60007B68002B0ED07B681B68002B0AD07B682B
:102B70001B681B6A002B05D07B681B681B6A9B685F
:102B8000002B01D1002313E07868FFF7D5FF03463F
:102B9000002B09D07B681B681B6A9B689B68786860
:102BA00098470346002B01D0012300E0002300BF1B
:102BB00018460837BD4680BD80B582B000AF78604A
:102BC00039607B68002B15D07B689A693B689A4214
:102BD00010D00A4B1A687B689B691946104604F0AE
:102BE0009FFD064B1B683968184604F087FD7B681B
:102BF0003A689A6100BF0837BD4680BD700000206A
:102C000080B483B000AF786039607B687F2B0DDDC6
:102C10003B687F2B0ADC3B6803F580727B68D31A24
:102C2000102BCCBF01230023DBB215E07A683B6890
:102C30009A4204DD7A683B68D31A0F2B08DD7A6864
:102C40003B689A4206DA3A687B68D31A702B01DD3A
:102C5000012300E0002300BF18460C37BD4680BCAE
:102C6000704700BF80B584B000AF78600B467B80B2
:102C7000104B1B68184604F06BFCF86013E0FB680F
:102C80001A687B689A4207D1FB689B887A889A42C7
:102C900002D8F86800F00CFD064B1B68F96818466E
:102CA00004F07CFCF860FB68002BE8D100BF103713
:102CB000BD4680BD7000002080B584B000AF786054
:102CC0000B467B80104B1B68184604F041FCF860F3
:102CD00013E0FB681A687B689A4207D1FB689B88FF
:102CE0007A889A4202D8F86800F0F6FC064B1B6816
:102CF000F968184604F052FCF860FB68002BE8D134
:102D000000BF1037BD4680BD7000002080B584B084
:102D100000AFF860B9607A60FB6893F89730002BD9
:102D200001D1002315E0FB68DB689A697B689A4251
:102D30000DD1BB685B7E1A467B689B7919461046AD
:102D4000FFF75EFF0346002B01D0012300E00023C4
:102D500000BF18461037BD4680BD00BF80B483B0A9
:102D600000AF78600B467B807B884FF6FF72934202
:102D700020D07B681B6AB3F8A230002B18D07B6888
:102D80001B6AB3F8A4307A88B2FBF3F39BB21946FE
:102D90007B681B8A1A467B681B6AB3F8A23013440F
:102DA0007A68126AB2F8A42093FBF2F3994201DC2C
:102DB000012300E0002318460C37BD4680BC704755
:102DC00080B586B000AF03463960FB71FB791846C9
:102DD00000F046FD38613B69002B01D100231EE065
:102DE00000237B6117E07B699B0110333A69134430
:102DF000FB60FB685B7D002B0AD0FB681022396802
:102E0000184628F073FA0346002B01D1FB6806E050
:102E10007B6901337B617B69012BE4DD002318466C
:102E20001837BD4680BD00BF80B584B000AF0346F3
:102E3000FB71FB79184600F013FDF860FB68002B6E
:102E400007D0FB68DB689A8BFB68B3F8A4309A4222
:102E500001D0002337E0FB68DB689B7C5BB2002B72
:102E600008DAFB68DB68FA68D268927C0132D2B279
:102E70009A740AE0FB68DB68FA68D268927C0132D7
:102E8000D2B202F07F02D2B29A74FB6893F8963005
:102E90005BB2002B08DAFB6893F896300133DAB2A4
:102EA000FB6883F896200AE0FB6893F896300133BC
:102EB000DBB203F07F03DAB2FB6883F89620F86890
:102EC00003F0CAFB012318461037BD4680BD00BF82
:102ED00080B582B000AF7860396010220021786838
:102EE00028F039FA39683B681B7D0733002B00DA7C
:102EF0000733DB101A46786828F007FA0349786828
:102F000008F026FE00BF0837BD4680BD043E002005
:102F100080B588B000AF786039607B68002B1AD02C
:102F20003B68002B17D07B681A7D3B681B7D9A425B
:102F300011D1786839683B681B7DDB08DBB21A4623
:102F400028F0D4F90346002B05D17B685A7D3B68F5
:102F50005B7D9A422DD07B68002B11D007F10C03CA
:102F600079681846FFF7B4FF07F10C03184608F01C
:102F7000BDFCF861FB69002B02D0F86908F070FC19
:102F80003B68002B16D007F10C0339681846FFF791
:102F90009FFF07F10C03184608F0A8FC0346002B1E
:102FA00008D107F10C0301220021184608F0E8FBC4
:102FB00000E000BF2037BD4680BD00BF80B58CB0AB
:102FC00000AFF860B9607A60FB6893F8383087F832
:102FD0002F307B68802B01D900233CE0FB6893F8FD
:102FE0003830002B08D0FB6803F1240107F11403EB
:102FF0001822184628F089F9FB6824331022002192
:10300000184628F0A8F9FB6803F124007B68073311
:10301000DB081A46B96828F078F97B68DAB2FB68F1
:1030200083F83820FB68402283F8392097F82F3046
:10303000002B06D1FB68243319460020FFF768FFF8
:1030400008E0FB6803F1240207F114031146184657
:10305000FFF75EFF012318463037BD4680BD00BF35
:1030600080B582B000AF786039607B68D3F890306B
:10307000002B09D07B68D3F89030184608F03AF955
:103080007B680022C3F890203B68002B0ED0002103
:10309000386808F0EDF802467B68C3F890207B683A
:1030A000D3F89030002B0CD100230BE07B68D3F8D1
:1030B0009030002B05D07B68D3F89030184608F08C
:1030C00019F9012318460837BD4680BD80B584B084
:1030D00000AF0346FB71184BFB60FB6803F5AA7356
:1030E000BB601FE0FB6893F89530002B16D14FF4BE
:1030F000AA720021F86828F02EF9FB68FA7983F8A3
:103100009420FB680022C3F89020FB68012283F81A
:103110009520F86803F0B6FCFB6808E0FB6803F54F
:10312000AA73FB60FA68BB689A42DBD30023184697
:103130001037BD4680BD00BFDC3A002080B586B0A8
:1031400000AF03463960FB71FB79184600F088FB3D
:1031500038613B69002B09D1FB791846FFF7B6FFB0
:1031600038613B69002B01D1002327E03B69103314
:103170007B617B698033FB601BE07B695B7D002B9F
:1031800014D140220021786928F0E5F87B690122FA
:103190005A757B694FF6FF729A837B694FF6FF720F
:1031A0001A827B693A691A627B6907E07B6940335E
:1031B0007B617A69FB689A42DFD30023184618378F
:1031C000BD4680BD80B582B000AF78607B689B7DD6
:1031D000002B20D07B6800229A757B681B6A002B2D
:1031E00008D07B681B6A93F89730012B02D9786866
:1031F00003F0B6FC7B6893F8393003F04003002BF2
:1032000005D07B68243300211846FFF781FE00219A
:103210007868FFF727FD7B6800225A7500BF0837E2
:10322000BD4680BD80B586B000AFF860B9607A60F9
:1032300000237B61786807F05BFD38613B69002BF8
:1032400015D00D4B1868BB680122396904F0CCF920
:1032500078617B69002B0AD07B69FA681A60BB68C9
:103260005A8A7B699A80BB685A7E7B699A717B69AE
:1032700018461837BD4680BD7000002080B584B068
:1032800000AF7860786807F0E5FCF860F86807F050
:10329000CFFCB860054B1B68B968184604F0F2F91A
:1032A000034618461037BD4680BD00BF70000020A1
:1032B00080B584B000AF786039603868FFF7DEFF12
:1032C000F860FB68002B06D0FB681A687B689A429E
:1032D00001D1FB6800E0002318461037BD4680BDD1
:1032E00080B584B000AF786039603868FFF7C6FFFA
:1032F000F860FB68002B02D0FB681B6800E000232D
:1033000018461037BD4680BD80B584B000AF7860E8
:1033100039603868FFF7B2FFF860FB68002B0BD00C
:10332000FB681B68002B07D0FB681B681A6A7B6868
:103330009A4201D1FB6800E0002318461037BD46D1
:1033400080BD00BF80B588B000AF786039607B6811
:10335000DB689B8BFB827B68DB689B693B617B68DE
:10336000DB68BB61BB699A8B7B68B3F8A4309A4277
:1033700047D03B681B68184600F054F90346002B01
:103380000ED03B681A68BB699A423AD07B689B684A
:103390009B693A6812681146B8699847B86130E08D
:1033A0003B681A68BB699A422BD10023BB617B68DA
:1033B0001033FB61FB698033FB601EE0FB695B7DC2
:1033C000002B17D0FB699B69002B13D0FB699B690D
:1033D0009B884FF6FF7293420CD0BB69002B02D141
:1033E000FB69BB6106E07B689B689B69F969B8690A
:1033F0009847B861FB694033FB61FA69FB689A4200
:10340000DCD3BB69002B01D10023B6E07B68DA680E
:10341000BB699A4237D07B68002B09D07B6893F850
:103420009730012B04D97B68DB68184603F098FBC2
:10343000BB6993F8393003F04003002B0AD07B6856
:10344000DB6803F12402BB69243319461046FFF7F9
:103450005FFD0EE07B68DB6893F8393003F04003D2
:10346000002B06D07B68DB68243300211846FFF769
:103470004FFDBB6901229A757B68DB6800229A7553
:103480007B68BA69DA607B689B68DB697868984713
:10349000BB699B691846FFF7F5FA03461A46BB69F4
:1034A0009A833B69002B05D0BB699A8BBB691B8A49
:1034B0009A4203D2BB699A8BBB691A82BB699B8B08
:1034C0001946B869FFF74AFC0346002B16D17B6802
:1034D000DB6800211846FFF76FFB7B68002B0BD0E1
:1034E0007B6893F89730012B06D93B69002B03D0FA
:1034F0000021386902F032FB00233EE0BB699A6983
:103500003B699A4238D0BB699B691846FFF7F4FAC9
:10351000034619467868FFF7A3FD7B68002B0BD0A4
:103520007B6893F89730012B06D93B69002B03D0B9
:103530000021386902F012FB7B6893F896305BB289
:10354000002B08DA7B6893F896300133DAB27B6897
:1035500083F896200AE07B6893F896300133DBB25B
:1035600003F07F03DAB27B6883F89620786803F073
:1035700053F9786803F070F8BB6918462037BD46E8
:1035800080BD00BF80B586B000AF78603960002391
:103590003B617B68002B08D07B681B6A002B04D042
:1035A0007B681B6A9B68002B01D1002333E07B689A
:1035B0001B6A9B68FB601A4B1B68184603F0C8FF28
:1035C000786124E07B691A687B689A4215D17B692F
:1035D0009B884FF6FF7293420FD03B68002B05D0BB
:1035E0007869FFF7A9FA0346002B08D0FB685B69EE
:1035F000796938699847386102E000BF00E000BF90
:10360000074B1B687969184603F0C8FF78617B692E
:10361000002BD7D13B6918461837BD4680BD00BF87
:103620007000002080B584B000AF78600021786819
:10363000FFF7A8FFF860FB68002B26D0F868FFF7BB
:103640007BFA0346002B04D0F9687868FFF7B4FAD8
:103650001FE001217868FFF795FFB860BB68002B79
:1036600004D1F9687868FFF7A7FA03E0B9687868C9
:10367000FFF7A2FA7B681B6AFA68C3F8CC207B6864
:103680001B6A184603F0FEF903E000217868FFF793
:1036900093FA7B689B691846FFF7F4F903461A46CC
:1036A0007B689A837B689B6918461037BD4680BD4E
:1036B00080B582B000AF7860786800F00DF8054BF7
:1036C0001B687968184603F0FDFF00BF0837BD4648
:1036D00080BD00BF7000002080B584B000AF78606E
:1036E0007B681B68FB60FB689A697B689A4203D021
:1036F000FB689B69002B30D1FB684FF6FF729A8301
:10370000FB689B7D002B28D0FB681B6AD3F89030A8
:10371000002B0BD0FB681B6AD3F89030184607F0DB
:10372000E9FDFB681B6A0022C3F89020FB689A69D8
:103730007B689A4211D1FB681B6A002B09D0FB6899
:103740001B6A93F89730012B03D90021786802F0A7
:1037500005FA0021F868FFF72FFA00BF1037BD46C1
:1037600080BD00BF80B584B000AFF860B9607A60FA
:10377000FB689A697B689A421ED10021F868FFF7BE
:103780001BFAFB684FF6FF729A83FB689B7D002B48
:1037900028D0FB681B6AD3F89030002B22D0FB683E
:1037A0001B6AD3F89030184607F0A4FDFB681B6A2B
:1037B0000022C3F8902015E0FB689B7D002B11D000
:1037C000FB681B6A002B0DD0FB681B6A93F89730CF
:1037D000012B07D97868FFF78FF90346F968184677
:1037E00003F0DEF97B68BA681A6000BF1037BD4687
:1037F00080BD00BF80B483B000AF00237B6023E0B6
:10380000164A7B684FF4AA7101FB03F31344953306
:103810001B78002B15D0114A7B684FF4AA7101FB6D
:1038200003F313440C331B689B7D002B09D00B4A18
:103830007B684FF4AA7101FB03F313440C331B683C
:1038400006E07B6801337B607B68002BD8DD0023BA
:1038500018460C37BD4680BC704700BFDC3A0020DC
:1038600080B485B000AF0346FB710023FB6021E00C
:10387000154AFB684FF4AA7101FB03F31344953317
:103880001B78002B13D0104AFB684FF4AA7101FB80
:1038900003F3134494331B78FA799A4207D1FB68F7
:1038A0004FF4AA7202FB03F3074A134406E0FB68D5
:1038B0000133FB60FB68002BDADD00231846143768
:1038C000BD4680BC704700BFDC3A002080B485B0A4
:1038D00000AF0346FB800023FB6009E0094B1B8C13
:1038E000FA889A4201D1074B06E0FB680133FB607E
:1038F000FB68002BF2D0002318461437BD4680BC6D
:10390000704700BFA800002080B586B000AF786087
:1039100039603B685B7D012B00F0D7803B681B8AD8
:103920001846FFF7D3FF78617B69002B00F0CF804A
:103930003B681B7E3A6811461846FFF7FFFB38616B
:103940003B69002B00F0C5803B691B6AFB607A680D
:1039500039683869FFF766FCB860BB68002B04D192
:10396000FB68002283F89520B4E03B685A7EBB6870
:103970009A713B6893F8513003F04003002B05D057
:103980003B683C3319460020FFF7C2FA3B6901222D
:103990009A753B689A7D3B691A753B681A7D3B694D
:1039A000DA743B68DA7D3B699A74FB687A699A60DD
:1039B0003B685A7DFB6883F897203B6893F8542056
:1039C000FB681A703B6893F85520FB685A703B6897
:1039D00093F85620FB689A703B6893F85720FB6871
:1039E000DA70FB683A69DA60FB68F02283F89620A7
:1039F0003B681A8CFB68A3F8A2203B685A8CFB68D2
:103A0000A3F8A4203B689A7EFB6883F898203B6863
:103A1000DA7EFB6883F89920FB6893F89920FB68AD
:103A200093F898301344DAB2FB6883F89C203B6823
:103A30001A7FFB6883F89A203B685A7FFB6883F8FB
:103A40009B203B68DA8BFB68A3F8A6203B693968AA
:103A50001022184627F059FC3B6903F124003B680B
:103A60003C331822194627F050FCB9683869FFF733
:103A7000A3F8FB689B68DB69F8689847B868FFF7AC
:103A800001F803461A463B699A833B699A8B3B6966
:103A90001A82124B1B68002B02D1104AFB6813607C
:103AA000F86802F0D9FD7968F868FFF7D9FAFB6881
:103AB00093F89730002B02D0F86802F0ADFEFB6857
:103AC0009B681B683869984704E000BF02E000BFAC
:103AD00000E000BF1837BD4680BD00BFD83A0020C7
:103AE00080B588B000AF786039603B681B7E3A686B
:103AF00011461846FFF722FBB861BB69002B01D1C4
:103B00000023AAE0BB691B6A7B6179687869FFF7CB
:103B1000E7FB38613B69002B0DD17A683968B869D9
:103B2000FFF780FBF861FB69002B11D1BB69002214
:103B30005A75002391E079683869FFF7B9FBF8619D
:103B4000FB69002B04D0FA69B9693869FFF70AFEEE
:103B50003B685A8AFB699A803B681B8A1846FFF7C4
:103B6000B5FEF8607B699A68FB689A4237D17B6939
:103B700093F897203B685B7D9A4230D17B69B3F81C
:103B8000A2203B681B8C9A4229D17B69B3F8A42000
:103B90003B685B8C9A4222D17B6993F898203B6802
:103BA0009B7E9A421BD17B6993F899203B68DB7E10
:103BB0009A4214D17B6993F89A203B681B7F9A4202
:103BC0000DD17B6993F89B203B685B7F9A4206D1BD
:103BD0007B69B3F8A6203B68DB8B9A4207D0F86973
:103BE000FFF766FDBB6900225A75002335E0BB690B
:103BF00001225A753B681A7DBB69DA743B689A7D6D
:103C0000BB691A753B68DA7DBB699A74BB69396810
:103C10001022184627F079FBBB6903F124003B68AA
:103C20003C331822194627F070FBF969B869FEF792
:103C3000C3FFF869FEF726FF03461A46BB699A835D
:103C4000BB699A8BBB691A82F969786900F00AF935
:103C50003B685A7EFB699A71BB6918462037BD469E
:103C600080BD00BF80B586B000AFF860B9607A60F3
:103C70000021B868FEF7F6FF7B68DA7DBB689A74AE
:103C8000BB681B6A7A68927E83F89820BB681B6ABF
:103C90007A68D27E83F89920BB681B6A7A68127FA3
:103CA00083F89A20BB681B6A7A68527F83F89B204E
:103CB000BB681B6A7A68D28BA3F8A620BB681B6A14
:103CC0009B681B68B8689847BB684FF6FF721A82FA
:103CD000BB681B6A93F896305BB2002B0ADABB68AC
:103CE0001B6ABA68126A92F896200132D2B283F83F
:103CF00096200CE0BB681B6ABA68126A92F896209C
:103D00000132D2B202F07F02D2B283F89620FA6872
:103D10007968B868FFF786FA78617B69002B04D16F
:103D2000BB684FF6FF729A8310E07869FEF7AAFE2F
:103D300003461A46BB689A83BB689A8BBB681A8293
:103D4000BB681B6A7969184600F08CF800BF183709
:103D5000BD4680BD80B584B000AF78607B68002B25
:103D600043D00023FB601BE07A68FB689B0113448F
:103D700025331B78002B10D07A68FB689B01134415
:103D80002C334FF6FF721A80FB689B0110337A6860
:103D9000134400211846FEF78FFFFB680133FB60D8
:103DA000FB68012BE0DD7B68002283F8A1207868A6
:103DB00002F052FC7B6893F896305BB2002B08DA75
:103DC0007B6893F896300133DAB27B6883F89620EB
:103DD0000CE07B6893F896300133DBB203F07F038D
:103DE000DAB27B6883F8962000E000BF1037BD464A
:103DF00080BD00BF80B582B000AF194B1B6818466C
:103E000003F0A6FB786023E07B681B68002B18D0CA
:103E10007B681B681B6A002B13D07B68DB7903F07F
:103E20000103002B0DD07B68DB7923F00103DAB2AC
:103E30007B68DA717B681B681B6A7968184600F03A
:103E400011F8074B1B687968184603F0A7FB7860E8
:103E50007B68002BD8D100BF0837BD4680BD00BFAE
:103E60007000002080B584B000AF786039607B6856
:103E7000DB689B69BB600123FB607B68002B23D060
:103E80007B6893F89730012B1ED93868FEF734FE13
:103E90000346184607F014F80346002B14D0386880
:103EA000FEF75AFE0346002B0ED17B6893F897303D
:103EB000012B09D93868FEF71FFE02463B681B68D4
:103EC0001946104602F06CFE3B681A683B689B88F6
:103ED00019461046FEF742FF0346002B0CD1386806
:103EE000FFF7FAFB7B68DB689A693B689A4201D06E
:103EF000002311E00023FB6039687868FFF722FA9D
:103F00000346002B07D1BB68002B04D07868FFF76D
:103F100021FF002300E0FB6818461037BD4680BD36
:103F200080B582B000AF786039603A680121786866
:103F300000F0C8FE0346002B01D1002300E001235E
:103F400018460837BD4680BD80B586B000AF7860A2
:103F500039603B685B7D022B40F085813B681B7EAE
:103F60003A6811461846FEF72BFF78613B681B7EC6
:103F70001846FFF775FCF8607B69002B62D0FB6880
:103F8000002B5FD03B68DB7D1A467B699B7C194622
:103F90001046FEF735FE0346002B3FD07B699A8B17
:103FA000FB68B3F8A4309A421CD13B68DA7D7B6988
:103FB0009A747B699B7C5BB2002B06DA7B699B7CE5
:103FC0000133DAB27B699A7408E07B699B7C013328
:103FD000DBB203F07F03DAB27B699A74F86802F00F
:103FE0003BFB51E13B6893F85030002B10D03B680D
:103FF00093F8513003F04003002B09D03B6803F1E4
:104000003C013B6893F850301A467869FEF7D6FFBA
:104010003A6879697868FFF725FE35E17B699B7C12
:104020001A463B68DB7D19461046FEF7E9FD03465C
:10403000002B07D07B699B7D002B03D0F86802F032
:104040000BFB21E1FB68002B0CD139687868FFF786
:1040500067FF0346002B00F0088139687868FFF796
:1040600053FC02E1FB68DB689A8BFB68B3F8A43071
:104070009A4205D1FB68DA687B699A4240F0F78082
:104080007B69002B10D139687868FFF749FF034638
:10409000002B00F0EE8039687868FFF721FD786129
:1040A0007B69002B00F0E7803B685A8AFB68B3F815
:1040B000A4309A42C0F0E1803B6893F85030002B66
:1040C00010D03B6893F8513003F04003002B09D027
:1040D0003B6803F13C013B6893F850301A4678691D
:1040E000FEF76CFF39687868FFF71AFF0346002B6C
:1040F00000F0C5807B699A8BFB68B3F8A4309A42C4
:104100000FD13B685B8A4FF6FF72934200F0B98093
:10411000FB6893F89E300133DAB2FB6883F89E2087
:10412000AFE0FB6893F899301A46FB6893F8983033
:104130001344012202FA03F3554AA2FB03239A090E
:104140007B69DA6379687869FFF7B2F838613B69AF
:10415000002B1FD17968F868FFF7C2F8B860BB6818
:10416000002B09D17A6839687869FFF75BF8386104
:104170003B69002B20D187E07968B868FFF798F891
:1041800038613B69002B17D03A697969B868FFF745
:10419000E9FA11E03B699A883B685B8A9A420BD145
:1041A0007B699B7D002B07D0FB6893F89E30013321
:1041B000DAB2FB6883F89E203B685A8A3B699A8092
:1041C0003B685B8A4FF6FF72934207D17B699A691D
:1041D0003B699A4202D1F86802F03EFA3B69DB790A
:1041E00043F00103DAB23B69DA713969F868FFF725
:1041F00039FE0346002B46D07B699B7D002B2DD0DA
:104200007B699A693B699A4228D13A693968F868AA
:10421000FEF77CFD0346002B1CD0FB6893F896301C
:104220005BB2002B08DAFB6893F896300133DAB200
:10423000FB6883F896200AE0FB6893F89630013318
:10424000DBB203F07F03DAB2FB6883F89620F868EC
:1042500002F0E2FA0021786807F00AF83B685A7E1B
:104260003B699A7110E000BF0EE000BF0CE000BF98
:104270000AE000BF08E000BF06E000BF04E000BFA6
:1042800002E000BF00E000BF1837BD4680BD00BFA0
:10429000D34D621090B589B000AF78600023BB6148
:1042A0007B4B1B7828337B4A13445B78002B01D06F
:1042B0000123E9E0764B1B7803F128027B68134465
:1042C000744A13441B78632B01D00123DCE0704B4C
:1042D0001B7803F128027B6813446E4A13445B7811
:1042E000042B01D00123CFE0694B1B7803F1280296
:1042F0007B681344674A1344DB781846FFF7B0FA2B
:1043000078617B69002B01D10123BDE0604B1B78F4
:1043100003F128027B6813445E4A13449B7803F040
:104320002003002B17D07B69002B0FD07B6993F8FB
:104330009730012B0AD9584B184606F0EBFD38612F
:104340003B69002B02D0386906F0ECFE786902F078
:1043500083F9012398E07B69DB689B7D002B01D109
:10436000012391E00023FB61494B1B7803F12802F4
:104370007B681344474A13449B785BB2002B01DAF5
:104380000123FB61424B1B7803F128027B68134435
:10439000404A13449B881B021AB23D4B1B7803F121
:1043A00028017B680B443B490B449B881B0A9BB24A
:1043B0001BB213431BB2FB81384B1C680F2003F068
:1043C000A7FB03461946204603F05CF9B861BB69B8
:1043D000002B0FD02E4B1B7803F128027B6813446F
:1043E0002C4A13449B7803F04003002B02D0BB6996
:1043F000FA899A807B69DB689B8BFA899A4234BF81
:1044000001230023DBB27B73FB69002B02D07B7B93
:10441000002B05D0FB69002B35D17B7B002B32D0E4
:10442000BB69002B06D07B69BA69C3F85021786953
:1044300002F018FA164B1B7803F128027B6813442C
:10444000144A13449B7803F04003002B04D078698E
:1044500002F002F9012317E00D4B1B7803F128024B
:104460007B6813440B4A1344094A127802F128016D
:104470007A680A4407490A44927842F04002D2B26C
:104480009A70002300E0002318462437BD4690BDF3
:104490008D2700200C3E0020243E002070000020CC
:1044A00080B584B000AF814B1B78FB607F4B00224E
:1044B0001A700223BB607E4B9B79002B4BD17B4B48
:1044C0001B7828337A4A13445B78002B05D0FB68AD
:1044D000DAB2764B1A700123E3E0744B1B7803F1D8
:1044E0002802BB681344724A13441B78632B05D01F
:1044F000FB68DAB26D4B1A700123D2E06B4B1B786C
:1045000003F12802BB681344694A13445B78042B07
:1045100005D0FB68DAB2654B1A700123C1E0634B2A
:104520001B7803F12802BB681344614A1344DB780B
:104530001846FFF795F978607B68002B09D07B68F7
:1045400093F89530002B04D07B68DB689B7D002BB3
:1045500003D10123A5E00123A3E000BF534B1B7847
:1045600003F12802BB681344514A13441B78632BA0
:1045700040F092804D4B1B7803F12802BB68134436
:104580004B4A13447A68D268928B120211B27A684D
:10459000D268928B120A92B212B20A4312B292B24B
:1045A0009A807B68002B71D07B6893F89730012B41
:1045B0006CD93E4B1B7803F12802BB6813443C4A7C
:1045C00013449B785BB2002B2EDA3A4B184606F068
:1045D000A1FC0346002B59D1344B1B7803F1280270
:1045E000BB681344324A1344304A127802F128015E
:1045F000BA680A442E490A44927842F02002D2B2A4
:104600009A700F2003F084FA03461846FEF728FA42
:1046100038603B68002B05D0264B002219463868CD
:1046200001F0E6FA00233CE0224B184606F072FC4B
:104630000346002B15D11D4B1B7803F12802BB68E4
:1046400013441B4A1344194A127802F12801BA682C
:104650000A4417490A44927802F07F02D2B29A7053
:1046600014E0124B1B7803F12802BB681344104A74
:1046700013440E4A127802F12801BA680A440C4920
:104680000A44927862F07F02D2B29A70FB68DAB282
:10469000064B1A70012304E0FB68DAB2034B1A7070
:1046A000012318461037BD4680BD00BF8D2700206E
:1046B0000C3E0020243E002080B584B000AF4B4B60
:1046C0001B78FB60494B00221A700223BB60484BE9
:1046D0001B88083340F21452934205DDFB68DAB2BE
:1046E000424B1A7000237DE0404B1B783033414A27
:1046F00098183E4B1B7828333E4A99183C4B1B8830
:10470000283B1A4626F00CFE384B1B782833394AD2
:10471000134408220021184626F01DFE334B1B7857
:104720002833344A1344334A92791A70314B0022A9
:104730009A712E4B1B7828332E4A134400225A704C
:104740002A4B1B7803F12802BB681344294A1344FF
:1047500063221A70254B1B7803F12802BB681344AF
:10476000244A134404225A70204B1B7803F1280278
:10477000BB6813441F4A134400229A701B4B1B78DA
:1047800003F12802BB6813441A4A13440022DA706A
:10479000164B1B7803F12802BB681344154A1344D7
:1047A00000229A80124B1B8808339AB2104B1A8051
:1047B000104B5B79FB710F4A0E4B5B790833DBB210
:1047C00053710C4B5B79FA799A4204D9094B1A79E7
:1047D0000132D2B21A71FB68DBB20833DAB2034B92
:1047E0001A70012318461037BD4680BD8D27002062
:1047F000FC3D00200C3E002080B586B000AF786004
:10480000434B1B787B61424B00221A7002233B61B1
:10481000404B9B79002B76D13D4B1B7828333D4A8A
:1048200013445B78002B05D07B69DAB2384B1A70E1
:10483000012369E0364B1B7803F128023B691344DE
:10484000344A13441B78632B5DD1314B1B7803F141
:1048500028023B6913442F4A13449B88002B52D1F2
:104860002D4B1B68002B0BD02B4B1B6893F89530FE
:10487000002B05D0284B1B68DB689B7D002B01D1EA
:10488000002341E0244B1B68DB6879681846FEF77B
:104890000FFDF860FB68002B05D0FB681B689A6968
:1048A000FB689A4209D01A4B1B7803F128023B6936
:1048B0001344184A134480229A70154B1B7803F155
:1048C00028023B691344134A1344134A126892F8AE
:1048D0009420DA700E4B1B7803F128023B691344D5
:1048E0000C4A13440C4A1268D268928B120211B21D
:1048F000094A1268D268928B120A92B212B20A4323
:1049000012B292B29A80012318461837BD4680BD74
:104910008D2700200C3E0020D83A002080B582B0C0
:1049200000AF364B00221A70354B7B6060E07B682D
:104930001B782B2B04D03C2B43D0002B00D05AE00B
:104940002E4B1B7828332F4A13441A787B681A7031
:104950002A4B1B7828332B4A13445B780133DBB294
:10496000DB00FB70274B5B79BB70274B1A88FB7809
:104970009BB2D31A9AB2244B1A802249214B5A79FE
:10498000FB78D31ADBB24B711E4B5B79BA789A4233
:1049900004D21C4B1A79013AD2B21A71174B1B7808
:1049A0002833184A9818154B1B782833154A1A448F
:1049B000FB78D118144B1B88283B1A4626F0B0FC14
:1049C00016E00E4B1B7828330E4A13447B600B4BCA
:1049D0001B7828330B4A13445B78DB00DAB2074BB1
:1049E0001B781344DBB20833DAB2044B1A7002E0CE
:1049F0007B68002B9BD10837BD4680BD8D270020EA
:104A0000123E00200C3E0020FC3D002080B500AF8F
:104A1000114B1B68002B1DD00F4B1B68DB68002B54
:104A200018D00E4B1B78FE2B03D10C4B5B78802BE0
:104A300010D00A4B1B78FF2B0CD0074B1B68002BA8
:104A400009D0054B1B6893F89730012B03D9FFF76A
:104A500033FE00E000BF80BDD83A0020243E002095
:104A600080B500AF104B1B68002B01D1002319E06B
:104A70000D4B1B68DB68002B13D00B4B1B68DB68EE
:104A80009A8B094B1B68B3F8A4309A4205D1FFF703
:104A900045FFFFF711FE034604E0FFF701FD034663
:104AA00000E00023184680BDD83A002080B483B0CF
:104AB00000AF03463960FB71164B1B785BB2002BCD
:104AC00006DA144B1B780133DAB2124B1A7008E085
:104AD000104B1B780133DBB203F07F03DAB20D4BCE
:104AE0001A703B68FA7983F821200A4B1A783B68E0
:104AF00083F820203B6893F8223043F00203DAB2B7
:104B00003B6883F82220034B1B7818460C37BD46C0
:104B100080BC70477400002080B584B000AF78601E
:104B20000023FB6034E01E4AFB685B0113442A3318
:104B30001B78BB601A4AFB685B01134418331B786F
:104B4000002B22D0BB68002B02D0BB68012B1CD1EC
:104B5000134AFB685B0113441A331B78FE2B07D101
:104B60000F4AFB685B0113441B331B78802B0CD06E
:104B7000FB685B0118330A4A1344023310221946BA
:104B8000786826F0C2FB012306E0FB680133FB6076
:104B9000FB68022BC7DD002318461037BD4680BDD9
:104BA000903C002080B483B000AF786039603B68EF
:104BB0007A6813441B781A063B68013379680B4402
:104BC0001B781B041A433B68023379680B441B783B
:104BD0001B0213433A68033279680A44127813437C
:104BE00018460C37BD4680BC704700BF80B485B006
:104BF00000AFF860B9607A60BB685A1CBA601A46A8
:104C0000FB6813447A68120ED2B21A70BB685A1C41
:104C1000BA601A46FB6813447A68120CD2B21A7052
:104C2000BB685A1CBA601A46FB6813447A68120AB9
:104C3000D2B21A70BB685A1CBA601A46FB68134499
:104C40007A68D2B21A7000BF1437BD4680BC704774
:104C500080B483B000AF786039603B687A681344F1
:104C60001B781B021AB23B68013379680B441B782E
:104C70001BB213431BB29BB218460C37BD4680BC17
:104C8000704700BF80B485B000AFF860B9601346CC
:104C9000FB80BB685A1CBA601A46FB681344FA884A
:104CA000120A92B2D2B21A70BB685A1CBA601A4683
:104CB000FB681344FA88D2B21A7000BF1437BD469D
:104CC00080BC704780B588B002AFF8600B467A6050
:104CD000FB72F86805F0BEFF78617B69002B0DD18F
:104CE0000F2002F015FF01467B680193FB7A0093C9
:104CF00001230022F86805F053FF78617B691846AC
:104D00001837BD4680BD00BF80B582B000AF1A4BDA
:104D10007B607B6803F5AA733B601EE07B6893F8B9
:104D20009530012B15D1154B1B78FF2B03D17868DB
:104D300001F092FC0DE0124B002203211846FFF710
:104D4000C1FF0346002B04D00D4B1946786800F0D4
:104D500053FA7B6803F5AA737B607A683B689A42D2
:104D6000DCD3084B00221A80074B00221A7000BFC8
:104D70000837BD4680BD00BFDC3A0020243E00203D
:104D8000143E0020FC3D00208D27002080B588B017
:104D900000AF7860174B1B782C33174A1344FB6124
:104DA000FB69013300221A701A78FB691A707B685C
:104DB000002B14D140F2FF23BB810023FB81002391
:104DC0003B8200237B820023BB820023FB820023E3
:104DD0003B834FF4D0537B8307F10C037B600223AA
:104DE00000229B21786807F039F900BF2037BD46C3
:104DF00080BD00BF8D2700200C3E002080B5A0B0F4
:104E000000AF07F110035C220021184626F0A3FA38
:104E1000082387F82A300C2387F82B300A2387F8D9
:104E20002C3080237B864FF460733B8601233B84C8
:104E30001E2387F82D303C23FB85A24A3B461146B2
:104E40001022184626F061FA9F4B1B88DAB29F4B5E
:104E50001B78D31ADBB22C3B87F877300023FB6733
:104E60009A4B1B782C339A4A13443B67FB6F5A1CAE
:104E7000FA671A463B6F13441B7887F82830FB6F9C
:104E80005A1CFA671A463B6F13441B7887F8273081
:104E9000F96F386FFFF7DCFE03467B84FB6F02334C
:104EA000FB67FB6F3A6F13441B7823F07F03DBB281
:104EB00087F82430FB6F3A6F13441B78DB10DBB2AA
:104EC00003F00703DBB287F82530FB6F5A1CFA6743
:104ED0001A463B6F13441B7803F00703DBB287F8D5
:104EE0002630FB6F5A1CFA671A463B6F13441B7837
:104EF00087F82930FB6F0233FB67FB6F3A6FD118DD
:104F000007F110031022184626F0FFF9FB6F10334B
:104F1000FB6749E1FB6F3A6F13441B7887F86F30EA
:104F200097F86F30002B02D10123BB6706E0FB6FBF
:104F300001333A6F13441B780233BB67BA6FFB6FC0
:104F40001A4497F877309A4200F33C8197F86F3013
:104F5000023B062B00F2248101A252F823F000BF8D
:104F60007D4F000847500008D5500008A1510008A7
:104F7000A1510008A151000855510008BB6F052B35
:104F800040F32281FB6F02333A6F13441B7887F89A
:104F90006430FB6F03333A6F13441B785B00DBB262
:104FA00087F8653097F86520FB6F0433396F0B4441
:104FB0001B78DB09DBB21343DBB287F86530FB6F8C
:104FC00004333A6F13441B781B09DBB203F003036D
:104FD000DBB287F86630FB6F04333A6F13441B78FB
:104FE00003F00F03DBB287F86730FB6F05333A6FCE
:104FF00013441B7887F8683097F86430002B00F072
:10500000CE8097F86430072B09D1FB6F0633194621
:10501000386FFFF71DFE0346A7F86A30BFE097F828
:105020006430022B40F0D280FB6F06333A6F13449A
:105030001B7887F86A30FB6F07333A6F13441B788D
:1050400087F86B30ABE0BB6F082B40F3C180FB6F80
:1050500002333A6F13441B7887F84830FB6F0333F1
:105060003A6F13441B7887F84930FB6F04331946B5
:10507000386FFFF797FD03467B6497F84830073396
:10508000002B00DA0733DB1003F10802BB6F9A42F2
:1050900000F3A38097F84830802B00F29E80FB6FCE
:1050A00008333A6FD11897F848300733002B00DAED
:1050B0000733DB101A4607F110032433184626F095
:1050C00024F96DE0143E0020FC3D00208D270020D7
:1050D0000C3E0020BB6F102B7CD1FB6F03333A6F6B
:1050E00013441B7887F82A30FB6F04333A6F13445C
:1050F0001B7887F82B30FB6F05333A6F13441B780E
:1051000087F82C30FB6F06331946386FFFF7A0FD88
:1051100003463B86FB6F08331946386FFFF798FD4F
:1051200003467B86FB6F0A331946386FFFF790FD05
:1051300003463B84FB6F0D333A6F13441B7887F8AB
:105140002D30FB6F0E331946386FFFF781FD034694
:10515000FB8525E0BB6F202B3ED1FB6F02333A6FFE
:1051600013441B7887F86030FB6F03333A6F1344A6
:105170001B7887F86130FB6F08331946386FFFF7EB
:1051800011FD0346FB65FB6F10333A6FD11807F131
:1051900010033C331022184626F0B7F800E000BF99
:1051A000FA6FBB6F1344FB6797F87720FB6F9A4247
:1051B0003FF7B0AE07F110023B4611461846FEF726
:1051C000C3FE0AE000BF08E000BF06E000BF04E045
:1051D00000BF02E000BF00E000BF054B00221A80C4
:1051E000044B00221A7000BF8037BD4680BD00BF4F
:1051F000FC3D00208D27002080B58AB000AF78608C
:1052000039607B68DB683B6200237B62884B1B78DC
:105210002C33884A1344FB617B6A5A1C7A621A4613
:10522000FB6913447A6892F894201A707B6A5A1CBE
:105230007A621A46FB6913443A6A927C1A703B6A96
:105240009A8B7B68B3F8A4309A420CBF01230023E9
:10525000DBB2BB613B6A9B8B1A46796AF869FFF740
:1052600011FD7B6A02337B627B6AFA691344002278
:105270001A703B6ADB7C002B0AD07B6AFA69134404
:105280007A6AF9690A44127862F07F02D2B21A701F
:105290007B6AFA6913447A6AF9690A44127851B24E
:1052A0007A6892F89720D20052B20A4352B2D2B230
:1052B0001A707B6AFA6913447A6AF9690A441278A7
:1052C00051B23A6A127D52B202F0070252B20A4358
:1052D00052B2D2B21A707B6A01337B627B6A5A1C6B
:1052E0007A621A46FB6913447A6892F896201A701B
:1052F000BB69002B1CD03B68002B19D17B6893F84D
:1053000096305BB2002B08DA7B6893F89630013355
:10531000DAB27B6883F896200AE07B6893F89630CF
:105320000133DBB203F07F03DAB27B6883F89620A7
:105330007B6A5A1C7A621A46FB69134400221A706F
:105340007B6A5A1C7A621A46FB69134400221A705F
:105350007B6AFA691344396A1022184625F0D5FF92
:105360007B6A10337B627B681B78002B00F08380A4
:105370007B689B68DB69786898477B6A5A1C7A620D
:105380001A46FB69134402221A707B6A5A1C7A621D
:105390001A46FB69134406221A707B6A5A1C7A6209
:1053A0001A46FB6913447A6812781A707B6A5A1C91
:1053B0007A621A46FB6913447A6852785208D2B26C
:1053C0001A707B6AFA6913447A685278D201D2B2B1
:1053D0001A707B6A5A1C7A621946FA690A4419469D
:1053E000FB690B441B7859B27B689B781B0158B250
:1053F0007B68DB785BB203435BB20B435BB2DBB22F
:1054000013707B681B78072B16D17B6A5A1C7A6253
:105410001A46FB69134402221A707B68DB881A461D
:10542000796AF869FFF72EFC7B6A02337B6222E01F
:105430008D2700200C3E00207B681B78022B40F05B
:1054400006817B6A5A1C7A621A46FB69134402225F
:105450001A707B6A5A1C7A621A46FB6913447A688E
:1054600092791A707B6A5A1C7A621A46FB69134455
:105470007A68D2791A707B6A5A1C7A621A46FB697A
:10548000134404221A707B6A5A1C7A621A46FB691A
:1054900013440E221A707B6A5A1C7A621A46FB6900
:1054A000134400221A707B6A5A1C7A621A46FB69FE
:1054B00013447A6892F898201A707B6A5A1C7A62B0
:1054C0001A46FB6913447A6892F899201A707B6A2D
:1054D0005A1C7A621A46FB6913447A6892F89A2039
:1054E0001A707B68B3F8A2301A46796AF869FFF738
:1054F000C9FB7B6A02337B627B68B3F8A4301A462F
:10550000796AF869FFF7BEFB7B6A02337B627B68CE
:105510009B681B8C1A46796AF869FFF7B3FB7B6AB4
:1055200002337B627B6A5A1C7A621A46FB69134417
:1055300000221A707B6A5A1C7A621A46FB6913446D
:105540007A6892F89B201A707B68B3F8A6301A46E6
:10555000796AF869FFF796FB7B6A02337B623B6AE4
:1055600093F83830002B4ED07B6A5A1C7A621A4668
:10557000FB69134408221A707B6A5A1C7A621A4625
:10558000FB6913441E221A707B6A5A1C7A621A46FF
:10559000FB6913443A6A92F838201A707B6A5A1CE5
:1055A0007A621A46FB6913443A6A92F839201A70F3
:1055B0003B6A5B6B1A46796AF869FFF717FB7B6AEF
:1055C00004337B623B6A5B6B1A46796AF869FFF7C2
:1055D0000DFB7B6A04337B627B6AFA691344042205
:1055E0000021184625F0B7FE7B6A04337B627B6A94
:1055F000FA69D0183B6A24331022194625F085FE3B
:105600007B6A10337B623B68002B19D140F2FF2389
:105610003B8100237B810023BB810023FB8100238E
:105620003B8200237B820023BB824FF4D053FB825A
:1056300007F108007B6A01229B2106F00FFD07E0BD
:105640007B6A01229B21386806F008FD00E000BF5C
:105650002837BD4680BD00BF80B59AB000AF00239B
:1056600087F866300023FB64734A07F11003114684
:105670001022184625F049FE704B1B782C33704AD7
:105680001344BB646F4B1B88DAB26C4B1B78D31A84
:10569000DBB22C3B87F8473000233B663B6E5A1C3D
:1056A0003A661A46BB6C13441B7887F8463097F865
:1056B00046301846FEF7D4F838643B6C93F89B30BC
:1056C00087F867303B6E5A1C3A661A46BB6C134427
:1056D0001B7887F83F303B6E01333B663B6E5A1CAC
:1056E0003A661A46BB6C13441B78BB873B6CDB687D
:1056F000BB63BB6B9A8B3B6CB3F8A4309A420CBF74
:1057000001230023DBB27B6397F83F3003F04003B3
:10571000002B0ED0B86B3B6EBA6C134410221946A6
:1057200025F0E4FD0346002B40F0DA813B6E103398
:105730003B663B7CFF2B01D1022300E001233B634E
:105740003B6B012B3BD107F110031946B86BFDF7FA
:10575000AFFDF864FB6C002B1DD0FB6C9A883B6C92
:10576000B3F8A430B2FBF3F39AB2BB6B998B3B6CEA
:10577000B3F8A430B1FBF3F39BB29A420BD2FB6CAB
:105780004FF6FF729A80FB6CDB7943F00103DAB2CB
:10579000FB6CDA71ABE1FB6C002B10D0BB6B9A6930
:1057A000FB6C9A420BD1FB6C4FF6FF729A80FB6C3C
:1057B000DB7943F00103DAB2FB6CDA7197E13B6EFF
:1057C000BB654DE0BB6DBA6C13441B7887F82F3076
:1057D00097F82F30002B02D10123FB6506E0BB6D4B
:1057E0000133BA6C13441B780233FB6597F82F30F2
:1057F000052B02D0062B27D02EE0BB6D0333BA6CED
:1058000013441B7887F866303B4610220021184667
:1058100025F0A1FDBB6D0433BA6CD11897F8663042
:105820000733002B00DA0733DB101A463B461846D5
:1058300025F06BFD10E000BF143E00208D270020F6
:105840000C3E0020FC3D0020BB6D0533BA6C1344B8
:105850001B7887F8673000BFBA6DFB6D1344BB65DA
:1058600097F84720BB6D9A42ACDC3B46184605F0E2
:1058700051FBB86297F86730002B6DD1BB6A002BE3
:1058800056D0BB6A93F8223003F00103002B4FD1AE
:10589000BB6A93F8243097F866209A4248D1B86AD8
:1058A00005F0DAFA0346002B42D0B86A05F0D4FAC4
:1058B00007F110031022194625F018FD0346002BAE
:1058C00036D1BB6A93F8223043F00103DAB2BB6AE7
:1058D00083F82220BB6A3C229A61BB6B9B69002B38
:1058E00026D0BB6B9B691846FDF706F90346002BD3
:1058F0001ED0BB8FDBB2B96A1846FFF7D7F8034654
:1059000087F823307B4B1B782C337B4A1344BB64D2
:10591000BB6C033397F823201A70BB6B9B69184646
:10592000FDF7EAF897F8473002229B2106F096FB34
:1059300097F93F30002B80F2D580704B00221A80FF
:105940006C4B00221A70BB8FDAB207F110010023F2
:10595000386C00F09BFAC5E007F110033A6C0221A5
:105960001846FFF7AFF978627B6A002B12D197F9DE
:105970003F30002B80F2B880BB8FDAB27B6B002BFC
:1059800001D0FF2300E0802307F11001386C00F004
:105990007DFAA9E097F8662007F110033946B86B45
:1059A00001F026F9B862BB6A002B12D197F93F309B
:1059B000002B80F29B80BB8FDAB27B6B002B01D077
:1059C000FF2300E0802307F11001386C00F05EFA3D
:1059D0008CE03B6CB3F8A6301A4697F8673003FBAF
:1059E00002F2BB6A9A61BB6A93F8223023F001038A
:1059F000DAB2BB6A83F822203B6B012B77D10023FC
:105A00007B6597F93F30002B16DABB6A93F822309A
:105A100003F00203002B06D1BB6A93F821309BB23E
:105A2000BA8F9A4206D0BB6B9A8B3B6CB3F8A4300A
:105A30009A4201D101237B65BB6B9B69002B3DD052
:105A4000BB6B9B691846FDF757F80346002B35D012
:105A5000002387F85330BB6A93F8223003F0020327
:105A6000002B0CD0BB6A93F821309BB2BA8F9A42BC
:105A700005D1BB6A93F8203087F8533008E0BB8F1C
:105A8000DBB2B96A1846FFF711F8034687F85330BE
:105A9000184B1B782C33184A1344BB64BB6C03337C
:105AA00097F853201A70BB6B9B691846FDF724F8D2
:105AB00097F8473002229B2106F0D0FA7B6D002B2D
:105AC00015D00E4B00221A800A4B00221A70BB8F91
:105AD000DAB207F110010023386C00F0D7F906E0C4
